:020000040000FA
:100000000A128A11FC2F00308A000408840A820731
:0E00100000346334613472346F346C34003465
:100D200000300A128A119D260A128A1101300A1215
:100D30008A119D260A128A110800F30083120313F8
:100D4000081173080A128A11B7260A128A1183122F
:100D5000031388150630F2003030F100F10BAE2E8F
:100D6000F20BAE2E00008312031388110800F0006E
:100D7000701CBB2EBC2EC02E831203130816C32E6C
:100D8000831203130812F01CC62EC72EC92E881614
:100D9000CA2E8812701DCD2ECE2ED02E0817D12E21
:100DA0000813F01DD42ED52ED72E8817D82E8813D1
:100DB0000800F700F501F601F02E750877078400AA
:100DC0000A128A1103200A128A110A128A1126278E
:100DD0000A128A110130F5070318F60A0030F607E7
:100DE0007508770784000A128A1103200A128A11F3
:100DF000003A031DFC2EFD2EDD2E08008316031382
:100E000088010A128A119F270A128A110A128A116E
:100E100090260A128A11F401F40A01300A128A118A
:100E200059270A128A1101300A128A11D9260A1288
:100E30008A118230FB00DD30FA00FA0B1D2FFB0B0C
:100E40001D2F222F062F0A128A110028F400740881
:100E50000F39F2007408F039F300831203130815F8
:100E60007308F10004300310F10CFF3E031D332F13
:100E700071080A128A11B7260A128A118312031303
:100E800088150D30F100F10B432F831203138811E5
:100E900072080A128A11B7260A128A1183120313E2
:100EA00088150D30F100F10B532F831203138811B5
:100EB0000800F6007603031D5E2F5F2F7C2F740859
:100EC0007F3EF9007908F50004300310F50CFF3E71
:100ED000031D652F7508F70079080F39F8007708AA
:100EE0000A128A119D260A128A1178080A128A119A
:100EF0009D260A128A119E2F02307606031D812F2D
:100F0000822F9E2F7408BF3EF9007908F500043047
:100F10000310F50CFF3E031D882F7508F7007908B4
:100F20000F39F80077080A128A119D260A128A11D1
:100F300078080A128A119D260A128A1108000030C8
:100F40000A128A11B7260A128A111A30F500F830EF
:100F5000F400F40BA92FF50BA92F000003300A129F
:100F60008A119D260A128A110730F5007D30F4009F
:100F7000F40BB82FF50BB82F03300A128A119D26F7
:100F80000A128A110F30F5004730F400F40BC62F17
:100F9000F50BC62FCB2F03300A128A119D260A1299
:100FA0008A1102300A128A119D260A128A11023011
:100FB0000A128A119D260A128A1108300A128A1111
:100FC0009D260A128A1100300A128A119D260A12E1
:100FD0008A110C300A128A119D260A128A110030D9
:100FE0000A128A119D260A128A1106300A128A11E3
:100FF0009D260A128A11080083010A128A11FE2E08
:00000001FF
