:020000040000FA
:060000000A128A11F82F1C
:100F22000F30831203139700643083160313920069
:100F32008312031395011215080083160313870108
:100F42000117013086000A128A1191270A128A11AA
:100F52000A128A11D4270A128A110A128A11B72791
:100F62000A128A11A92F0A128A1100287008710424
:100F7200031DBC2FBD2FCB2F831203138619C22F43
:100F8200C32FCB2F0130F0000030F10015080A30DA
:100F92009502D32F83120313861DD02FD12FD32F67
:100FA200F001F101080072087304031DD92FDA2F32
:100FB200EF2F831203130619DF2FE02FEF2F0130DB
:100FC200F2000030F300653015020318E92FEA2F12
:100FD200F72F0A30FF007F089507F72F83120313BC
:100FE200061DF42FF52FF72FF201F3010800F0018F
:0E0FF200F101F201F30183010A128A119E2F10
:00000001FF
