:020000040000FA
:060000000A128A11F82F1C
:100F10000F3083120313970064308316031392007B
:100F2000831203139501121508008316031387011A
:100F30000117013086000A128A1188270A128A11C5
:100F40000A128A11D1270A128A110A128A11AE27AF
:100F50000A128A11A02F0A128A110028700871043F
:100F6000031DB32FB42FC82F831203138619B92F73
:100F7000BA2FC82F0130F0000030F1001508031916
:100F8000C22FC32FC62F0A309502D02F9501D02F24
:100F900083120313861DCD2FCE2FD02FF001F10128
:100FA000080072087304031DD62FD72FEF2F83126A
:100FB00003130619DC2FDD2FEF2F0130F200003074
:100FC000F300643015020318E62FE72FEC2F0A30E8
:100FD000FF007F089507F72F64309500F72F8312E5
:100FE0000313061DF42FF52FF72FF201F30108006C
:100FF000F001F101F201F30183010A128A11952F28
:00000001FF
