:020000040000FA
:060000000A128A11FC2F18
:100F7600831203131F150330F200F20BC02F8312E6
:100F860003131E08F200F3017208F4007308F5005B
:100F96007508F1007408F000080083160313860133
:100FA6000A128A11E5270A128A110A128A11BB2728
:100FB6000A128A117008831203138600D82F0A12A8
:100FC6008A110028831603131F109F141F159F15DF
:100FD600831203131F139F13831603131F139F13E9
:100FE6009E01831203139E011F149F111F129F124D
:0A0FF600080083010A128A11D02FAF
:00000001FF
