:020000040000FA
:060000000A128A110C280F
:10000800FE00030EF0000A08F1000A168A11C22B3E
:100018000A128A110F28831603170A128A1501205B
:100028000A128A11B4000A128A1502200A128A11C9
:10003800B5000A128A11FE270A128A11FA000A125A
:100048008A11FF270A128A11FB00AA01AB01AC0131
:10005800AD01AE01AF01B001B101B201B301831628
:100068000313E901EA01EB01EC01ED01EE01830163
:100078000A128A15652A831203132E088039B800DC
:100088002E08B3003307BE00AD1F4B284C284D285F
:100098003E143E0803195128522861283E0A031DC0
:1000A800562857285F280030AE000030AD000030D9
:1000B800AC000030AB00AD1769280030AE0000304E
:1000C800AD000030AC000030AB0032088039FF00D2
:1000D8007F08B8063208B3003307B900B11F752886
:1000E800762877283914390803197B287C288B2827
:1000F800390A031D8028812889280030B200003081
:10010800B1000030B0000030AF00B11793280030C4
:10011800B2000030B1000030B0000030AF00390844
:100128000319972898289D283E08031D9C289D2878
:10013800A6280030AE000030AD000030AC00003022
:10014800AB00832B2B08F20031080A168A11FF2313
:100158000A128A11730883120313C4007208C300B9
:100168004308B300B401B501B6013608BD0035082F
:10017800BC003408BB003308BA004408B300B4011B
:10018800B501B6013608C2003508C1003408C00000
:100198003308BF002C08F20030080A168A11FF2322
:1001A8000A128A11730883120313C4007208C30069
:1001B8004308B300B401B501B6013308BA073408DF
:1001C80003110318013E0319EA28BB073508031178
:1001D8000318013E0319F128BC0736080311031858
:1001E800013E0319F828BD074408B300B401B5015E
:1001F800B6013308BF07340803110318013E031979
:100208000629C007350803110318013E03190D29F3
:10021800C107360803110318013E03191429C20740
:100228002D08F2002F080A168A11FF230A128A11D4
:10023800730883120313C4007208C3004308B30091
:10024800B401B501B6013308BA073408031103181D
:10025800013E03193029BB07350803110318013E75
:1002680003193729BC07360803110318013E03197F
:100278003E29BD074408B300B401B501B6013308EF
:10028800BF07340803110318013E03194C29C0079E
:10029800350803110318013E03195329C10736080D
:1002A80003110318013E03195A29C2070830B30085
:1002B8000310BA0DBB0DBC0DBD0DB30B5C292C088A
:1002C800F2002F080A168A11FF230A128A117308EE
:1002D80083120313C4007208C3004308B300440820
:1002E800B400B501B6013308BA073408031103187E
:1002F800013E03198029BB07350803110318013E85
:1003080003198729BC07360803110318013E03198E
:100318008E29BD072B08F20030080A168A11FF2320
:100328000A128A11730883120313C4007208C300E7
:100338004308B3004408B400B501B6013308BA074E
:10034800340803110318013E0319AB29BB0735080C
:1003580003110318013E0319B229BC07360803111B
:100368000318013E0319B929BD070830B30003106B
:10037800BA0DBB0DBC0DBD0DB30BBB292B08F2008C
:100388002F080A168A11FF230A128A11730883128A
:100398000313C4007208C3004308B3004408B40040
:1003A800B501B6013308BA07340803110318013E32
:1003B8000319DF29BB07350803110318013E031988
:1003C800E629BC07360803110318013E0319ED2975
:1003D800BD072C08F20031080A168A11FF230A12F9
:1003E8008A11730883120313C4007208C3004308F8
:1003F800B3004408B400B501B6013308BF07340898
:1004080003110318013E03190A2AC007350803110E
:100418000318013E0319112AC107360803110318EE
:10042800013E0319182AC2072D08F20030080A16DF
:100438008A11FF230A128A11730883120313C40056
:100448007208C3004308B3004408B400B501B601FC
:100458003308BF07340803110318013E0319352A6E
:10046800C007350803110318013E03193C2AC107C8
:10047800360803110318013E0319432AC2072D0841
:10048800F20031080A168A11FF230A128A1173082A
:1004980083120313C4007208C3004308B30044085E
:1004A800B400B501B60108300310B30DB40DB50D95
:1004B800B60DFF3E031D582A3308BF073408031141
:1004C8000318013E0319692AC007350803110318E8
:1004D800013E0319702AC107360803110318013EAB
:1004E8000319772AC2073A08B3003B08B4003C084E
:1004F800B5003D08B60018300310B60CB50CB40CA6
:10050800B30CFF3E031D802A3308BF0734080311CC
:100518000318013E0319912AC0073508031103186F
:10052800013E0319982AC107360803110318013E32
:1005380003199F2AC2070830B3000310BA0DBB0D78
:10054800BC0DBD0DB30BA12A3E083907B300B40199
:10055800B40D3308823EC30034080318013EFF3E41
:10056800C400D32A0130B3000310BF0DC00DC10D64
:10057800C20DB30BB82ABD1FC22AC32AC42A3F140E
:100588000130B3000310BA0DBB0DBC0DBD0DB30B8C
:10059800C62AFF30C3070318C40AFF30C407C11FA7
:1005A800D62AD72AB62AB901BD1FDB2ADC2AF82A9F
:1005B800FF303A05B300FF303B05B400FF303C057F
:1005C800B5007F303D05B6003608350434043304E1
:1005D8000319EF2AF02AF32AB901B90AF82A3F1CAD
:1005E800F62AF72AF82AF02A39080319FC2AFD2ADC
:1005F8002E2B0130BF07003003180130C007003030
:1006080003180130C107003003180130C207421C2B
:100618000E2B0F2B2E2B3F08B3004008B4004108C7
:10062800B5004208B6000130B700360DB60CB50C5F
:10063800B40CB30CB70B192B3608C2003508C1002F
:100648003408C0003308BF000130C3070318C40AC8
:100658000030C4074408803AFF0080307F02031D41
:10066800372BFF304302031C3A2B3B2B462B7F30A2
:1006780083120313C2008030C1000030C000003074
:10068800BF00772B831203134408803AFF008030A1
:100698007F02031D512B013043020318542B552BA5
:1006A800612B003083120313C2000030C1000030F8
:1006B800C0000030BF00B801772B83120313430832
:1006C800BE00FF30BF05FF30C0057F30C1050030D8
:1006D800C2053E1C702B712B722BC1173E08B3004C
:1006E8000310330CC2003808FF007F08C204420818
:1006F800AE004108AD004008AC003F08AB00080060
:1007080083160313570883120313B20083160313C7
:10071800560883120313B100831603135508831276
:100728000313B00083160313540883120313AF0096
:100738004630AE001C30AD004030AC000030AB009D
:100748000A128A113F200A128A11831203132E08F3
:1007580083160313B700831203132D08831603139C
:10076800B600831203132C0883160313B5008312F3
:1007780003132B0883160313B4004030AF00A030D6
:10078800AE000030AD000030AC005708AB00560892
:10079800AA005508A9005408A8000A168A118E252F
:1007A8000A128A11831603132B08B3002A08B20011
:1007B8002908B1002808B0000A128A1121260A1255
:1007C8008A11831603133308CD003208CC00310890
:1007D800CB003008CA000A128A15AB200A128A1107
:1007E800831603134B0883160317A50083160313F8
:1007F8004A0883160317A400413083160313A30085
:100808001030A2000030A1000030A0000A128A15A2
:1008180036200A128A11831603132308AB00220814
:10082800AA002108A9002008A8004030A3008030B1
:10083800A2000030A1000030A0000A128A1536205C
:100848000A128A11831603132308AF002208AE0088
:100858002108AD002008AC000A168A118E250A125C
:100868008A11831603132B08831603179700831620
:1008780003132A08831603179600831603132908FF
:100888008316031795008316031328088316031786
:100898009400443083160313B3007730B2008030DD
:1008A800B1000030B000BF3083120313C80080309D
:1008B800C7000030C6000030C500831603171708AC
:1008C80083120313CC00831603171608831203132D
:1008D800CB0083160317150883120313CA00831667
:1008E8000317140883120313C9000A128A15A825CE
:1008F8000A128A1183120313480883160313B700D8
:1009080083120313470883160313B60083120313D5
:10091800460883160313B50083120313450883168C
:100928000313B4000A128A1121260A128A118316A7
:100938000313330883160317A90083160313320819
:1009480083160317A80083160313310883160317A9
:10095800A70083160313300883160317A60024087C
:10096800F2002508F3000030F31BFF30F400F50017
:1009780001300A128A151E230A128A117508831675
:1009880003179B0074089A0073089900720898006E
:10099800433083160313A300C830A2000030A1001F
:1009A8000030A0000A128A1536200A128A1183160E
:1009B80003132308AB002208AA002108A900200875
:1009C800A800831603171B0883160313A3008316B6
:1009D80003171A0883160313A200831603171908AE
:1009E80083160313A100831603171808831603132D
:1009F800A0000A128A1536200A128A1183160313D8
:100A08002308AF002208AE002108AD002008AC0082
:100A18000A168A118E250A128A11831603132B08C7
:100A2800831603179F00831603132A0883160317D8
:100A38009E00831603132908831603179D00831647
:100A480003132808831603179C00443083120313EA
:100A5800AE007A30AD000030AC000030AB00831639
:100A68000317290883120313B200831603172808F3
:100A780083120313B1008316031727088312031385
:100A8800B00083160317260883120313AF000A1257
:100A98008A113F200A128A11831203132E08C800F4
:100AA8002D08C7002C08C6002B08C500831603179D
:100AB8001F0883120313CC00831603171E08831222
:100AC8000313CB00831603171D0883120313CA00F0
:100AD800831603171C0883120313C9000A128A1508
:100AE800A8250A128A1183120313480883160317CC
:100AF800A30083120313470883160317A200831267
:100B08000313460883160317A1008312031345082D
:100B180083160317A000290883160313B30083164E
:100B28000317280883160313B20083160317270830
:100B380083160313B10083160317260883160313BD
:100B4800B0003F30B7008030B6000030B50000304C
:100B5800B4000A128A1121260A128A118316031375
:100B6800330883120313AE0083160313320883126B
:100B78000313AD0083160313310883120313AC006B
:100B880083160313300883120313AB00831603176D
:100B9800230883120313B200831603172208831253
:100BA8000313B10083160317210883120313B0003F
:100BB80083160317200883120313AF000A128A1141
:100BC8003F200A128A11831203132E088316031773
:100BD8009300831203132D088316031792008312C0
:100BE80003132C08831603179100831203132B0891
:100BF800831603179000130883160313CD0083167A
:100C08000317120883160313CC0083160317110861
:100C180083160313CB0083160317100883160313D8
:100C2800CA000A128A15AB200A128A118316031306
:100C38004B08D5004A08D400080083160313370868
:100C48008039C1003708B8003807C800B61F2D2EF4
:100C58002E2E2F2E481448080319332E342E442ED6
:100C6800480A031D382E392E412E0030B7000030B7
:100C7800B6000030B5000030B400B617B7014C2EEE
:100C88000030B7000030B6000030B5000030B400C6
:100C980033088039FF007F08C1063308B8003807D9
:100CA800C900B21F582E592E5A2E49144908031943
:100CB8005E2E5F2E6F2E490A031D632E642E6C2E46
:100CC8000030B3000030B2000030B1000030B00096
:100CD800B217B301772E0030B3000030B2000030F5
:100CE800B1000030B0003308320431043004031D71
:100CF8007E2E7F2E982E0030B7000030B6000030D0
:100D0800B5000030B4008030B6047F30B704410825
:100D1800FF007F08B7043708B3003608B20035086B
:100D2800B1003408B000EF2F4808031D9C2E9D2EFB
:100D3800A62E0030B3000030B2000030B100003001
:100D4800B000EF2F4808B800B9013908BB004908BE
:100D58003802BA00031CBB033A087F3EC2003B08B6
:100D68000318013E003EC3003708C0003608BF0024
:100D78003508BE003408BD000030B7000030B600AA
:100D88000030B5000030B4000030C7000030C600A5
:100D98000030C5000030C400C9011C2F49080319E0
:100DA800D62ED72EF72E0130B8000310BD0DBE0D7C
:100DB800BF0DC00DB80BD92E0130B8000310B40D0B
:100DC800B50DB60DB70DB80BE22EC71FEC2EED2EE4
:100DD800EE2E34140130B8000310C40DC50DC60D35
:100DE800C70DB80BF02E33084002031D052F32083B
:100DF8003F02031D052F31083E02031D052F300851
:100E08003D02031C082F092F182F47173008BD0271
:100E18003108031C310FBE023208031C320FBF0217
:100E28003308031C330FC0020130FF007F08C907D5
:100E38001A304902031C212F222FD22E40083F04CA
:100E48003E043D040319292F2A2F492F4414492F02
:100E58000130B8000310B40DB50DB60DB70DB80BC1
:100E68002E2FC71F382F392F3A2F34140130B800CE
:100E78000310C40DC50DC60DC70DB80B3C2FFF30B0
:100E8800C2070318C30AFF30C307B61F4C2F4D2FE4
:100E98002C2FC901C71F512F522F6E2FFF30440529
:100EA800B800FF304505B900FF304605BA007F306D
:100EB8004705BB003B083A04390438040319652F79
:100EC800662F692FC901C90A6E2F341C6C2F6D2F2C
:100ED8006E2F662F49080319722F732FA42F013024
:100EE800B407003003180130B5070030031801308B
:100EF800B607003003180130B707371C842F852F39
:100F0800A42F3408B8003508B9003608BA003708E5
:100F1800BB000130BC003B0DBB0CBA0CB90CB80CC3
:100F2800BC0B8F2F3B08B7003A08B6003908B5004C
:100F38003808B4000130C2070318C30A0030C307D9
:100F48004308803AFF0080307F02031DAD2FFF3039
:100F58004202031CB02FB12FBF2FFF30831603139B
:100F6800C2000030C3000030B7000030B6000030C7
:100F7800B5000030B400831603134308803AFF001D
:100F880080307F02031DCA2F013042020318CD2F83
:100F9800CE2FDB2F83160313C201C3010030B70025
:100FA8000030B6000030B5000030B400C10183162F
:100FB80003134208C800481CE22FE32FE52FB61799
:100FC800E92F7F30FF007F08B6054808B8000310F6
:100FD800380CB7008B2E08000F30831203139700CC
:100FE8006430831603139200323083120313950082
:080FF8001215080090340134C9
:1010020032340034F60076080F39F4007608F039ED
:10101200F5008312031308157508F300043003105A
:10102200F30CFF3E031D102873080A168A11DD23F4
:101032000A128A158312031388150D30F300F30B7D
:10104200202883120313881174080A168A11DD23DB
:101052000A128A158312031388150D30F300F30B5D
:101062003028831203138811080083160313230800
:1010720083120313EC008316031322088312031353
:10108200EB0083160313210883120313EA0083166D
:101092000313200883120313E9000A128A159C2401
:1010A2000A128A15831203136C0883160313A7000E
:1010B200831203136B0883160313A6008312031310
:1010C2006A0883160313A5008312031369088316A3
:1010D2000313A4003E3083120313AE00DE30AD00D2
:1010E2005B30AC00D930AB008316031327088312A0
:1010F2000313B20083160313260883120313B100ED
:1011020083160313250883120313B00083160313F7
:10111200240883120313AF000A128A113F200A1215
:101122008A15831203132E0883160313A300831256
:1011320003132D0883160313A200831203132C0832
:1011420083160313A100831203132B0883160313C0
:10115200A00008000310831603134C0D4D0DD3009D
:101162005308031DB528B628BF280030CD00003033
:10117200CC000030CB000030CA0022294A08CE0041
:101182004B08CF004C08D0004D08D1001F3003108F
:10119200D10CD00CCF0CCE0CFF3E031DC8284E083C
:1011A200D200CC17FF30CA05FF30CB05FF30CC058B
:1011B2000030CD059630D302D31FE028E128FB286A
:1011C2005308803A973E0318E728E828E928B6280A
:1011D20001300310CD0CCC0CCB0CCA0CFF3E031D0E
:1011E200EA280130FF007F08D307031DF928FA28F7
:1011F200E928122920305302031C002901290D2954
:10120200B6280130CE000310CA0DCB0DCC0DCD0D8A
:10121200CE0B04290130D3025308031D11291229D0
:10122200022952080319162917292229CA09CB09AA
:10123200CC09CD09CA0A0319CB0A0319CC0A03192E
:10124200CD0A0800831203135E08E0000130031088
:10125200E00DFF3E031D28290310600D5D07840089
:101262000A168A110A200A128A15E1000A168A1140
:101272000A200A128A15E2000A168A110A200A12A4
:101282008A15E3000A168A110A200A128A15E40056
:101292006408E8006308E7006208E6006108E50008
:1012A200B229FF30DE070318DF0AFF30DF075E08CE
:1012B200E00001300310E00DFF3E031D5B29031027
:1012C200600D5D0784000A168A110A200A128A1527
:1012D200E1000A168A110A200A128A15E2000A1689
:1012E2008A110A200A128A15E3000A168A110A20B4
:1012F2000A128A15E4006408C8006308C70062087D
:10130200C6006108C5006808AE006708AD0066083F
:10131200AC006508AB005C08B2005B08B1005A087B
:10132200B0005908AF000A128A113F200A128A152A
:10133200831203132E08CC002D08CB002C08CA0000
:101342002B08C9000A128A15A8250A128A158312C7
:1013520003134808E8004708E7004608E600450886
:10136200E5005E085F04031DB729B8295229680801
:10137200DC006708DB006608DA006508D9000800AF
:101382000030720583120313A00000307305A10020
:1013920080307405A2007F307505A3002308220463
:1013A20021042004031DD629D729DF290030F500A6
:1013B2000030F4000030F3000030F2000030760517
:1013C200A00000307705A10080307805A2007F30B0
:1013D2007905A3002308220421042004031DF22915
:1013E200F329FB290030F9000030F8000030F70043
:1013F2000030F600F51FFE29FF29232A0030A00045
:101402000030A1000030A2008030A3007208A002C8
:101412007308031C730F0E2A0F2AA1027408031CFF
:10142200740F142A152AA2027508031C750F1A2AB2
:101432001B2AA3022308F5002208F4002108F30066
:101442002008F200F91F262A272A4B2A0030A00082
:101452000030A1000030A2008030A3007608A00274
:101462007708031C770F362A372AA1027808031C53
:10147200780F3C2A3D2AA2027908031C790F422ADE
:10148200432AA3022308F9002208F8002108F700E2
:101492002008F6008030F5068030F90679087502DA
:1014A200031D5D2A78087402031D5D2A7708730202
:1014B200031D5D2A760872020318602A612A632AD4
:1014C2000310642A0314080083160313870101170B
:1014D200013086000A168A1191230A128A150A120D
:1014E2008A11F0270A128A158316031388010A1635
:1014F2008A113C270A128A15253083160313E80045
:101502000A168A1168230A128A150A168A117C237E
:101512000A128A15730883160317B3007208B20001
:101522003208F2003308F3000030F31BFF30F400FE
:10153200F50001300A128A151E230A128A1575084F
:1015420083160313CD007408CC007308CB00720815
:10155200CA000A168A112E260A128A158316031346
:101562004D0883160317AD00831603134C08831628
:101572000317AC00831603134B0883160317AB0043
:10158200831603134A0883160317AA002D0883162D
:101592000313D700831603172C0883160313D600F0
:1015A200831603172B0883160313D500831603171C
:1015B2002A0883160313D4000A128A1184230A12FA
:1015C2008A1583160313550883160317B100831671
:1015D2000313540883160317B0000A168A1128242D
:1015E2000A128A15323083120313950083160317E9
:1015F200310883120313A1008316031730088312E4
:101602000313A000D830A2000A30A3000030A400C7
:101612000A128A15D8230A128A15D83083120313A4
:10162200A5008316031368080A168A1157240A12A2
:101632008A15862A0A128A110C2883120313A00023
:1016420020080319252B262B3A2BF51F292B2A2B91
:101652003A2B7209A2007309A3007409A400750948
:10166200A500A20A0319A30A0319A40A0319A50AC9
:10167200422B7508A5007408A4007308A300720821
:10168200A2007508740473047204031D492B4A2BCB
:10169200532B0030F5000030F4000030F30000302E
:1016A200F200D72B9630A100632B0130FF007F0898
:1016B200A10701300310A50CA40CA30CA20CFF3E41
:1016C200031D5B2BFE302505031D682B692B562B52
:1016D200852B0130FF007F08A1070130A2070030EF
:1016E20003180130A307003003180130A4070030AB
:1016F20003180130A50701300310A50CA40CA30C9C
:10170200A20CFF3E031D7D2BFF302505031D8A2BF6
:101712008B2B6A2B972B0130A1020130F6000310AC
:10172200A20DA30DA40DA50DF60B902BA41B9A2BB5
:101732009B2BA12B023021020318A02BA12B8C2B57
:101742002118A42BA52BAD2BFF30A205FF30A3053A
:101752007F30A405FF30A5050310A10C2108F60077
:10176200F701F801F90118300310F60DF70DF80D25
:10177200F90DFF3E031DB52B7608A2047708A304DA
:101782007808A4047908A50420080319C92BCA2BD8
:10179200CF2BF51FCD2BCE2BCF2BA5172508F50070
:1017A2002408F4002308F3002208F2000800831240
:1017B2000313B001B10120082104031DE12BE22B28
:1017C2004A2C220884003030831380000130B00795
:1017D2000318B10A0030B10730082207A500250816
:1017E200840080019B2C2408F3002308F2002108C6
:1017F200F5002008F4000A168A1187260A128A15B3
:10180200730883120313AB007208AA002B08803AF4
:10181200FF0080307F02031D102C0A302A020318B9
:10182200132C142C1F2C831203132A08303EA800F9
:101832002B080318013E003EA900292C8312031332
:101842002A08373EA8002B080318013E003EA900D3
:1018520030082207A5002508840028088313800089
:101862000130B0070318B10A0030B1072408F300B1
:101872002308F2002108F5002008F4000A168A1154
:1018820099270A128A15730883120313A10072089A
:10189200A00020082104031D4F2C502CF42B3008EB
:1018A2002207A5002508840083138001AC01AD0145
:1018B2003008FF3EAE0031080318013EFF3EAF0084
:1018C2008D2C831203132C082207A50025088400FF
:1018D20083130008A7002E082207A500250884000C
:1018E2000008FF002C082207A600260884007F08B3
:1018F20080002E082207A500250884002708800002
:101902000130AC070318AD0A0030AD07FF30AE0757
:101912000318AF0AFF30AF072D08803AA5002F0841
:10192200803A2502031D972C2E082C02031C9A2CA8
:101932009B2C622C0800831203136C08F5006B08C1
:10194200F4006A08F3006908F2000030F900003080
:10195200F8000030F7000030F6000A128A15C121A3
:101962000A128A150318B62CB72CC82C21308316FC
:101972000317AE000030AF00003083120313EC00F7
:101982000030EB000030EA000030E900A72D83129E
:1019920003136C08F5006B08F4006A08F300690889
:1019A200F2000030F9000030F8000030F70000309B
:1019B200F6000A168A11DE250A128A15031CE22C89
:1019C200E32CF42C223083160317AE000030AF0054
:1019D200003083120313EC000030EB000030EA0009
:1019E2000030E900A72DBF3083120313C8008030F6
:1019F200C7000030C6000030C5004030AE000030E5
:101A0200AD000030AC000030AB006D30A8006C08B7
:101A1200A7006B08A6006A08A5006908A4000A16B8
:101A22008A11E0260A128A15831203132708B200CC
:101A32002608B1002508B0002408AF000A128A1156
:101A42003F200A128A15831203132E08CC002D0898
:101A5200CB002C08CA002B08C9000A128A15A82537
:101A62000A128A15831203134808EC004708EB0098
:101A72004608EA004508E900FF30ED070318EE0AC0
:101A8200FF30EE076C08DC006B08DB006A08DA0046
:101A92006908D9000130DD000830DE000030DF00C7
:101AA2000A128A1523210A128A15831203135C086B
:101AB200EC005B08EB005A08EA005908E9006C08E0
:101AC200C8006B08C7006A08C6006908C5003F3035
:101AD200AE003130AD007230AC001830AB006D0892
:101AE200F2006E08F3000030F31BFF30F400F50043
:101AF20001300A128A151E230A128A1575088312EA
:101B02000313B2007408B1007308B0007208AF008A
:101B12000A128A113F200A128A15831203132E0811
:101B2200CC002D08CB002C08CA002B08C9000A12D1
:101B32008A15A8250A128A15831203134808EC0095
:101B42004708EB004608EA004508E900080083124E
:101B5200031348088039D5004808CD004D07D70047
:101B6200C71FB42DB52DB62D571457080319BA2D1A
:101B7200BB2DCB2D570A031DBF2DC02DC82D003004
:101B8200C8000030C7000030C6000030C500C717CB
:101B9200C801D32D0030C8000030C7000030C60095
:101BA2000030C5004C088039D60056085506031986
:101BB200DB2DDC2DDD2D55174C08CD004D07D60051
:101BC200CB1FE42DE52DE62D561456080319EA2DF8
:101BD200EB2DFB2D560A031DEF2DF02DF82D0030B5
:101BE200CC000030CB000030CA000030C900CB1757
:101BF200CC01032E0030CC000030CB000030CA00F4
:101C02000030C900570856020318082E092E2F2E3D
:101C1200551F0C2E0D2E112E8030FF007F08D50689
:101C22005708D8005608D7005808D6004508D800EB
:101C32004908C5005808C9004608D8004A08C60025
:101C42005808CA004708D8004B08C7005808CB00FC
:101C52004808D8004C08C8005808CC00D8015608DB
:101C6200CD00CE014E08D00057084D02CF00031C14
:101C7200D0035008803AFF0080307F02031D432EBC
:101C82001A304F02031C462E472E7E2E8312031358
:101C92004808470446044504031D502E522E0130C5
:101CA200532E0030D8000030C8000030C70000308A
:101CB200C6000030C5005608D700862E581C622E7A
:101CC200632E6A2E5808CD0003104D0C0138D8003F
:101CD2006C2E0310D80C451C6F2E702E712ED81747
:101CE2000130CD00480DC80CC70CC60CC50CCD0B7D
:101CF200732E0130FF007F08D707831203135608A3
:101D02005702031C852E862E5F2E551B892E8A2E86
:101D1200D32E5708031D8E2E8F2E982E0030C8000A
:101D22000030C7000030C6000030C500FF2F490850
:101D3200C5074A0803110318013E0319A12EC6075D
:101D42004B0803110318013E0319A82EC7074C08BC
:101D520003110318013E0319AF2EC807481CB22E07
:101D6200B32E872F581CB62EB72EBE2E5808CD0084
:101D720003104D0C0138D800C02E0310D80C451C9E
:101D8200C32EC42EC52ED8170130CD00480DC80C65
:101D9200C70CC60CC50CCD0BC72E0130FF007F0847
:101DA200D707872F4808803AFF004C08803A7F0205
:101DB200031DE52E4B084702031DE52E4A08460285
:101DC200031DE52E490845020318E82EE92E412F8E
:101DD200FF30CD00FF30CE00FF30CF00FF30D0000B
:101DE2004908D1004A08D2004B08D3004C08D4005D
:101DF2004508D1024608031C460F002F012FD202CC
:101E02004708031C470F062F072FD3024808031C5D
:101E1200480F0C2F0D2FD4025108CD07520803187A
:101E2200520F142F152FCE0753080318530F1A2FD2
:101E32001B2FCF0754080318540AD0075008C800B4
:101E42004F08C7004E08C6004D08C5008030FF008D
:101E52007F08D506D809D80A5808031D312F322F1A
:101E62004F2F0130C507003003180130C60700307C
:101E720003180130C707003003180130C8074F2F7D
:101E82004908C5024A08031C4A0FC6024B08031C34
:101E92004B0FC7024C08031C4C0FC80248084704EA
:101EA20046044504031D562F572F832F5808031D40
:101EB2005B2F5C2F832F0030C8000030C70000303A
:101EC200C6000030C500FF2F0130CD000310C50D44
:101ED200C60DC70DC80DCD0B672FD81F712F722FDE
:101EE200732F4514581C762F772F7A2F0314D80D91
:101EF2007C2F0310D80D57080319802F812F832FB1
:101F02000130D702C71F862F872F652FD601D81F12
:101F12008B2F8C2F9A2F58087F390319912F922FCC
:101F2200952FD601D60A9A2F451C982F992F9A2FB2
:101F3200922F560803199E2F9F2FD32F0130C507CA
:101F4200003003180130C607003003180130C707FC
:101F5200003003180130C807481CB02FB12FD32F0F
:101F62004508CD004608CE004708CF004808D000FB
:101F72000130D100500DD00CCF0CCE0CCD0CD10BBA
:101F8200BB2F5008C8004F08C7004E08C6004D08B6
:101F9200C500570A0319CE2FCF2FD32F0130FF00D0
:101FA2007F08D707570A0319D72FD82FDD2F5708D5
:101FB200031DDC2FDD2FEB2F0030C8000030C700DF
:101FC2000030C6000030C5005708031DE92FEA2F74
:101FD200EB2FD501571CEE2FEF2FF12FC717F52F3F
:101FE2007F30FF007F08C7055708CD0003104D0C56
:101FF200C800D51FFD2FFE2FFF2FC8170800FF1B9B
:102002000A2883137F1883170008840A0319FF0A1A
:10201200080010308A000408840A82070034003461
:10202200003400340034C434FF347F343F3480340D
:10203200EF34FF34BE349034E134A9343E34EC340E
:1020420082347634BE348234AD342B343E340E3492
:102052003C34C334BD348734D13413343D34413439
:102062007834D334BB344C3455344D3449344E3443
:102072004F345334493444344134443445342034A5
:1020820041345434553441344C343A3400344D34B0
:1020920045344E34553420342D3420344F344234B8
:0E20A2004A3445345434493456344F340034F3
:1026D0008316031301138B170B168B1008000030A1
:1026E0000A168A11A8230A168A1101300A168A11BD
:1026F000A8230A168A110800831203131F1503303A
:10270000F400F40B812B831203131E08F400F5016F
:102710007408F6007508F7007708F3007608F200F1
:102720000800831603131F109F141F159F15831293
:1027300003131F139F13831603131F139F139E016D
:10274000831203139E011F149F111F129F12080072
:10275000F50083120313081175080A168A11DD2388
:102760000A168A118312031388150630F4003030DC
:10277000F300F30BB92BF40BB92B000083120313F6
:10278000881108008B1CC52BC62BD62B8316031370
:1027900069086A040319CD2BCE2BD12BE901EA017C
:1027A000D52B0130E9000030EA008B1071088A0057
:1027B000700E8300FE0E7E0E0900F200721CE12BEB
:1027C000E22BE62B831203130816E92B8312031363
:1027D0000812F21CEC2BED2BEF2B8816F02B881235
:1027E000721DF32BF42BF62B0817F72B0813F21D91
:1027F000FA2BFB2BFD2B8817FE2B88130800831266
:102800000313A400A001A1017208F400F5017408EB
:10281000A2007508A300241C0E2C0F2C152C2208D6
:10282000A0070318A10A2308A10701300310A20D75
:10283000A30DFF3E031D162C0310A40C2408031D3A
:10284000222C232C0B2C2108F3002008F200080076
:102850004E2C0A168A118E240A168A110A168A111B
:10286000C5240A168A117B0883120313A1007A0873
:10287000A0003230A2000A30A3000030A4000A12E7
:102880008A15D8230A168A11323083120313A50041
:1028900039300A168A1157240A168A11831603132F
:1028A00069086A04031D552C562C292C0800F900D0
:1028B0000A168A116F230A168A11F601F60A0130E8
:1028C0000A168A1142250A168A117908F700003083
:1028D000031D8030F8000A168A11FC240A168A119A
:1028E000F601F60A02300A168A1142250A168A11E2
:1028F000831203132508F7000030F8000A168A1126
:10290000FC240A168A11823083120313A700DD30DB
:10291000A600A60B892CA70B892C0800831603138D
:102920006D086E04031D952C962CBB2C831203138B
:1029300006199B2C9C2CBB2C013083160313ED0035
:102940000030EE007B08803AFF0083307F02031DD9
:10295000AB2CE8307A020318AE2CAF2CB62C0A3020
:10296000FA070318FB0A0030FB07C42CE830FA0012
:102970000330FB00C42C8312061DBF2CC02CC42CBA
:1029800083160313ED01EE010800831603136B0891
:102990006C04031DCC2CCD2CF22C8312031386194E
:1029A000D22CD32CF22C013083160313EB00003011
:1029B000EC007B08803AFF0080307F02031DE22C90
:1029C0000B307A02031CE52CE62CED2CF630FA07CE
:1029D0000318FB0AFF30FB07FB2C0A30FA0000301B
:1029E000FB00FB2C8312861DF62CF72CFB2C831688
:1029F0000313EB01EC01080083120313A301A401EC
:102A0000252D23087707A1007808A0000318A00A45
:102A1000A31F0B2DA003831203132008A20022087A
:102A2000FF00210884000A168A1100200A168A1164
:102A30000A128A1503200A168A1101308312031321
:102A4000A3070318A40A0030A40723087707A100EE
:102A50007808A0000318A00AA31F2F2DA00383123B
:102A600003132008A2002208FF00210884000A1690
:102A70008A1100200A168A11003A031D402D412DAB
:102A8000012D080083120313A0002003031D492D0C
:102A90004A2D692D76087F3EA3002308F7000430F5
:102AA0000310F70CFF3E031D502D7708A1002308EB
:102AB0000F39A20021080A168A11A8230A168A11C2
:102AC0008312031322080A168A11A8230A168A11F0
:102AD0008D2D02302006031D6E2D6F2D8D2D760855
:102AE000BF3EA3002308F70004300310F70CFF3E9D
:102AF000031D752D7708A10023080F39A2002108B6
:102B00000A168A11A8230A168A11831203132208AF
:102B10000A168A11A8230A168A1108008030831623
:102B20000313AB062F0883120313C8008316031385
:102B30002E0883120313C700831603132D08831274
:102B40000313C600831603132C0883120313C50056
:102B5000831603132B0883120313CC00831603136D
:102B60002A0883120313CB00831603132908831248
:102B70000313CA0083160313280883120313C90022
:102B80000A128A15A8250A168A1183120313480807
:102B900083160313AB008312031347088316031332
:102BA000AA0083120313460883160313A900831295
:102BB0000313450883160313A800080000307205AC
:102BC00083120313A00000307305A1008030740548
:102BD000A2007F307505A3002308220421042004ED
:102BE000031DF32DF42DFC2D0030F5000030F40012
:102BF0000030F3000030F20000307605A000003015
:102C00007705A10080307805A2007F307905A30008
:102C10002308220421042004031D0F2E102E182E39
:102C20000030F9000030F8000030F7000030F60006
:102C300079087506031D262E78087406031D262EB6
:102C400077087306031D262E760872060319292EAF
:102C50002A2E2C2E03102D2E031408004330831629
:102C60000313B3007F30B2000030B1000030B00079
:102C7000403083120313AE00A030AD000030AC0032
:102C80000030AB00831603134D0883120313B20008
:102C9000831603134C0883120313B1008316031326
:102CA0004B0883120313B000831603134A088312E0
:102CB0000313AF000A128A113F200A168A118312E9
:102CC00003132E0883160313B700831203132D0872
:102CD00083160313B600831203132C088316031301
:102CE000B500831203132B0883160313B4000A12D2
:102CF0008A1121260A168A11831603133308CD0080
:102D00003208CC003108CB003008CA000800F701B7
:102D1000F51F8B2E8C2E932EF409F509F40A031956
:102D2000F50AF701F70AF31F962E972E9C2EF2094B
:102D3000F309F20A0319F30A720873040319A12EA6
:102D4000A22ED12EF601F60AB02E01300310F20D9C
:102D5000F30DFF3E031DA62E0130FF007F08F6078E
:102D6000F31FB32EB42EA52E73087502031DBA2EC1
:102D700072087402031CBD2EBE2EC42E7208F4020B
:102D80007308031CF503F50201300310F30CF20C79
:102D9000FF3E031DC52E0130F602031DD02ED12E9D
:102DA000B42E77080319D52ED62EDB2EF409F5099B
:102DB000F40A0319F50A7508F3007408F200080014
:102DC000831203132708F5002608F4002508F300F2
:102DD0002408F2000030F9000030F8000030F7005D
:102DE0000030F6000A168A11DE250A168A11031C25
:102DF000FA2EFB2E0C2F8312031328088400831352
:102E00008001840A80010030A7000030A600003055
:102E1000A5000030A4003B2F8312031327087F393D
:102E2000A900AA010310A90DAA0D280884002908E9
:102E300083138000840A2A088000260D260D01399C
:102E4000A900AA012808840029088004840A2A0805
:102E500080042808840082308007840F000803184B
:102E6000000AFF00FF307F078000840327088039B5
:102E70003F38A700A613080000300A168A11DD2388
:102E80000A168A111A30F700F830F600F60B462FB2
:102E9000F70B462F000003300A168A11A8230A16E2
:102EA0008A110730F7007D30F600F60B552FF70B2F
:102EB000552F03300A168A11A8230A168A110F30DB
:102EC000F7004730F600F60B632FF70B632F682FE0
:102ED00003300A168A11A8230A168A1102300A162C
:102EE0008A11A8230A168A1102300A168A11A82309
:102EF0000A168A1108300A168A11A8230A168A119E
:102F000000300A168A11A8230A168A110C300A16F4
:102F10008A11A8230A168A1100300A168A11A823DA
:102F20000A168A1106300A168A11A8230A168A116F
:102F30000800F701F31F9D2F9E2FA52FF209F3091B
:102F4000F20A0319F30AF701F70AF51FA82FA92FB0
:102F5000B22FF409F509F40A0319F50A0130FF004C
:102F60007F08F706F801F901720873040319B92FF5
:102F7000BA2FF12FF601F60AC82F01300310F20D17
:102F8000F30DFF3E031DBE2F0130FF007F08F60743
:102F9000F31FCB2FCC2FBD2F01300310F80DF90DEF
:102FA000FF3E031DCD2F73087502031DD92F720834
:102FB0007402031CDC2FDD2FE42F7208F402730867
:102FC000031CF503F502781401300310F30CF20C26
:102FD000FF3E031DE52F0130F602031DF02FF12FF8
:102FE000CC2F77080319F52FF62FFB2FF809F909D5
:102FF000F80A0319F90A7908F3007808F2000800C2
:00000001FF
