:020000040000FA
:060000000A128A110C280F
:10000800FE00030EF0000A08F1000A168A15B02C4B
:100018000A128A110F28831603170A128A1501205B
:100028000A128A11E7000A128A1502200A128A1196
:10003800E800831603130A128A1503200A128A118C
:10004800EC000A128A1504200A128A11ED008316A0
:100058000317E101E201E301E401E501E601FA0128
:10006800FB0183010A168A11DD29831203134C0848
:100078008039D6004C08D1005107DC00CB1F452839
:10008800462847285C145C0803194B284C285B2831
:100098005C0A031D5028512859280030CC00003034
:1000A800CB000030CA000030C900CB1763280030ED
:1000B800CC000030CB000030CA000030C900500826
:1000C8008039FF007F08D6065008D1005107D700B5
:1000D800CF1F6F28702871285714570803197528DF
:1000E80076288528570A031D7A287B28832800301C
:1000F800D0000030CF000030CE000030CD00CF1748
:100108008D280030D0000030CF000030CE00003005
:10011800CD00570803199128922897285C08031DD9
:1001280096289728A0280030CC000030CB0000305B
:10013800CA000030C9007D2B4908F2004F080A1692
:100148008A1183200A128A11730883120313E200AA
:100158007208E1006108D100D201D301D40154082A
:10016800DB005308DA005208D9005108D8006208A9
:10017800D100D201D301D4015408E0005308DF00B4
:100188005208DE005108DD004A08F2004E080A163F
:100198008A1183200A128A11730883120313E2005A
:1001A8007208E1006108D100D201D301D4015108DD
:1001B800D807520803110318013E0319E428D90788
:1001C800530803110318013E0319EB28DA075408F2
:1001D80003110318013E0319F228DB076208D10056
:1001E800D201D301D4015108DD07520803110318C5
:1001F800013E03190029DE07530803110318013EC5
:1002080003190729DF07540803110318013E0319CE
:100218000E29E0074B08F2004D080A168A118320C0
:100228000A128A11730883120313E2007208E100AC
:100238006108D100D201D301D4015108D80752086E
:1002480003110318013E03192A29D907530803117A
:100258000318013E03193129DA075408031103185A
:10026800013E03193829DB076208D100D201D30106
:10027800D4015108DD07520803110318013E031980
:100288004629DE07530803110318013E03194D29B7
:10029800DF07540803110318013E03195429E00726
:1002A8000830D1000310D80DD90DDA0DDB0DD10BB4
:1002B80056294A08F2004D080A168A1183200A12A4
:1002C8008A11730883120313E2007208E1006108BF
:1002D800D1006208D200D301D4015108D8075208CE
:1002E80003110318013E03197A29D907530803118A
:1002F8000318013E03198129DA075408031103186A
:10030800013E03198829DB074908F2004E080A163E
:100318008A1183200A128A11730883120313E200D8
:100328007208E1006108D1006208D200D301D4014B
:100338005108D807520803110318013E0319A529CB
:10034800D907530803110318013E0319AC29DA072A
:10035800540803110318013E0319B329DB070830B9
:10036800D1000310D80DD90DDA0DDB0DD10BB5294D
:100378004908F2004D080A168A1183200A128A11C8
:10038800730883120313E2007208E1006108D100C8
:100398006208D200D301D4015108D80752080311CA
:1003A8000318013E0319D929D90753080311031863
:1003B800013E0319E029DA07540803110318013E26
:1003C8000319E729DB074A08F2004F080A168A11C1
:1003D80083200A128A11730883120313E200720839
:1003E800E1006108D1006208D200D301D4015108AC
:1003F800DD07520803110318013E0319042ADE071A
:10040800530803110318013E03190B2ADF07540888
:1004180003110318013E0319122AE0074B08F200E2
:100428004E080A168A1183200A128A117308831249
:100438000313E2007208E1006108D1006208D200EB
:10044800D301D4015108DD07520803110318013EF6
:1004580003192F2ADE07530803110318013E031955
:10046800362ADF07540803110318013E03193D2AF1
:10047800E0074B08F2004F080A168A1183200A1277
:100488008A11730883120313E2007208E1006108FD
:10049800D1006208D200D301D40108300310D10D75
:1004A800D20DD30DD40DFF3E031D522A5108DD078E
:1004B800520803110318013E0319632ADE07530883
:1004C80003110318013E03196A2ADF0754080311B0
:1004D8000318013E0319712AE0075808D10059088A
:1004E800D2005A08D3005B08D40018300310D40C8B
:1004F800D30CD20CD10CFF3E031D7A2A5108DD071C
:10050800520803110318013E03198B2ADE0753080A
:1005180003110318013E0319922ADF075408031137
:100528000318013E0319992AE0070830D100031087
:10053800D80DD90DDA0DDB0DD10B9B2A5C085707B6
:10054800D100D201D20D5108823EE10052080318B1
:10055800013EFF3EE200CD2A0130D1000310DD0D3F
:10056800DE0DDF0DE00DD10BB22ADB1FBC2ABD2A40
:10057800BE2A5D140130D1000310D80DD90DDA0D53
:10058800DB0DD10BC02AFF30E1070318E20AFF3068
:10059800E207DF1FD02AD12AB02AD701DB1FD52ACC
:1005A800D62AF22AFF305805D100FF305905D2006B
:1005B800FF305A05D3007F305B05D400540853043C
:1005C800520451040319E92AEA2AED2AD701D70A65
:1005D800F22A5D1CF02AF12AF22AEA2A570803199E
:1005E800F62AF72A282B0130DD07003003180130DE
:1005F800DE07003003180130DF0700300318013030
:10060800E007601C082B092B282B5D08D1005E0829
:10061800D2005F08D3006008D4000130D500540D23
:10062800D40CD30CD20CD10CD50B132B5408E000EE
:100638005308DF005208DE005108DD000130E107F1
:100648000318E20A0030E2076208803AFF008030AF
:100658007F02031D312BFF306102031C342B352B25
:10066800402B7F3083120313E0008030DF0000301E
:10067800DE000030DD00712B831203136208803A1C
:10068800FF0080307F02031D4B2B013061020318ED
:100698004E2B4F2B5B2B003083120313E0000030EE
:1006A800DF000030DE000030DD00D601712B831240
:1006B80003136108DC00FF30DD05FF30DE057F3005
:1006C800DF050030E0055C1C6A2B6B2B6C2BDF17F9
:1006D8005C08D1000310510CE0005608FF007F08A9
:1006E800E0046008CC005F08CB005E08CA005D0823
:1006F800C90008008312031366088039EB006608F6
:1007080083160313A000200783120313ED00E51FCF
:100718008E2B8F2B902B6D146D080319942B952B12
:10072800A52B6D0A031D992B9A2BA22B0030E600EE
:100738000030E5000030E4000030E300E517E60192
:10074800AD2B0030E6000030E5000030E40000305A
:10075800E3006A088039EC006C086B060319B52BB6
:10076800B62BB72B6B176A0883160313A000200754
:1007780083120313EC00E91FC22BC32BC42B6C1488
:100788006C080319C82BC92BD92B6C0A031DCD2B58
:10079800CE2BD62B0030EA000030E9000030E8000C
:1007A8000030E700E917EA01E12B0030EA000030E9
:1007B800E9000030E8000030E7006D086C0203181B
:1007C800E62BE72B0D2C6B1FEA2BEB2BEF2B803046
:1007D800FF007F08EB066D08EE006C08ED006E0860
:1007E800EC006308EE006708E3006E08E7006408A1
:1007F800EE006808E4006E08E8006508EE00690885
:10080800E5006E08E9006608EE006A08E6006E0872
:10081800EA00EE016C0883160313A000A101210869
:10082800A300831203136D08831603132002A2008A
:10083800031CA3032308803AFF0080307F02031DB6
:10084800272C1A302202031C2A2C2B2C6E2C8312E4
:1008580003136608650464046304031D342C362CF2
:100868000130372C0030EE000030E6000030E500A3
:100878000030E4000030E3006C08ED00762C6E1CBC
:10088800462C472C522C6E0883160313A000031025
:10089800200C013883120313EE00542C0310EE0CC5
:1008A800631C572C582C592CEE1701308316031350
:1008B800A00083120313660DE60CE50CE40CE30CB0
:1008C80083160313A00B5D2C0130FF007F088312F1
:1008D8000313ED07831203136C086D02031C752CB8
:1008E800762C432C6B1B792C7A2CCF2C6D08031D8E
:1008F8007E2C7F2C882C0030E6000030E50000308C
:10090800E4000030E300572E6708E3076808031186
:100918000318013E0319912CE40769080311031811
:10092800013E0319982CE5076A0803110318013ED4
:1009380003199F2CE607661CA22CA32CBF2D6E1C46
:10094800A62CA72CB22C6E0883160313A000031044
:10095800200C013883120313EE00B42C0310EE0CA4
:10096800631CB72CB82CB92CEE170130831603136F
:10097800A00083120313660DE60CE50CE40CE30CEF
:1009880083160313A00BBD2C0130FF007F088312D0
:100998000313ED07BF2D6608803AFF006A08803A06
:1009A8007F02031DE12C69086502031DE12C68081C
:1009B8006402031DE12C670863020318E42CE52C8C
:1009C800712DFF3083160313A000FF30A100FF3004
:1009D800A200FF30A30083120313670883160313D2
:1009E800A40083120313680883160313A500831257
:1009F8000313690883160313A600831203136A08F6
:100A080083160313A70083120313630883160313C3
:100A1800A402831203136408031C640F142D172DFA
:100A280083160313A502831203136508031C650FBD
:100A38001E2D212D83160313A602831203136608A5
:100A4800031C660F282D2B2D83160313A702831270
:100A58000313831603132408A00725080318250F7A
:100A6800362D372DA10726080318260F3C2D3D2DBE
:100A7800A20727080318270AA307230883120313CA
:100A8800E60083160313220883120313E500831676
:100A98000313210883120313E400831603132008A9
:100AA80083120313E3008030FF007F08EB06EE0992
:100AB800EE0A6E08031D612D622D7F2D0130E307BC
:100AC800003003180130E407003003180130E5074F
:100AD800003003180130E6077F2D6708E302680835
:100AE800031C680FE4026908031C690FE5026A0821
:100AF800031C6A0FE6026608650464046304031DA8
:100B0800862D872DBB2D6E08031D8B2D8C2DBB2D9F
:100B18000030E6000030E5000030E4000030E3007B
:100B2800572E013083160313A000031083120313FA
:100B3800E30DE40DE50DE60D83160313A00B992DC7
:100B480083120313EE1FA92DAA2DAB2D63146E1C5F
:100B5800AE2DAF2DB22D0314EE0DB42D0310EE0DF6
:100B68006D080319B82DB92DBB2D0130ED02E51F15
:100B7800BE2DBF2D952DEC01EE1FC32DC42DD22DFA
:100B88006E087F390319C92DCA2DCD2DEC01EC0A49
:100B9800D22D631CD02DD12DD22DCA2D6C0803194E
:100BA800D62DD72D272E0130E3070030031801304A
:100BB800E407003003180130E5070030031801305E
:100BC800E607661CE82DE92D272E63088316031314
:100BD800A00083120313640883160313A100831271
:100BE8000313650883160313A20083120313660810
:100BF80083160313A3000130A400230DA30CA20C39
:100C0800A10CA00CA40B012E230883120313E600E9
:100C180083160313220883120313E50083160313B4
:100C2800210883120313E400831603132008831298
:100C38000313E3006D0A0319222E232E272E0130F9
:100C4800FF007F08ED076D0A03192B2E2C2E312E7D
:100C58006D08031D302E312E3F2E0030E600003087
:100C6800E5000030E4000030E3006D08031D3D2E70
:100C78003E2E3F2EEB016D1C422E432E452EE517CE
:100C8800492E7F30FF007F08E5056D0883160313A2
:100C9800A0000310200C83120313E600EB1F552E4F
:100CA800562E572EE6170800831603133B08F50047
:100CB8003A08F4003908F3003808F2000030F90067
:100CC8000030F8000030F7000030F6000A168A11EC
:100CD80075220A128A110318722E732E842E21305F
:100CE80083160317E1000030E20000308316031377
:100CF800BB000030BA000030B9000030B800B32F94
:100D0800831603133B0883120313B90083160313D6
:100D18003A0883120313B8008316031339088312A1
:100D28000313B70083160313380883120313B6009E
:100D38000030BD000030BC000030BB000030BA00FD
:100D48000A168A15AE260A128A11031CAC2EAD2E7D
:100D5800BE2E223083160317E1000030E200003077
:100D680083160313BB000030BA000030B90000300E
:100D7800B800B32FBF3083120313E6008030E500BC
:100D88000030E4000030E3004030CC000030CB00FD
:100D98000030CA000030C900BC30C60083160313F7
:100DA8003B0883120313C500831603133A08831202
:100DB8000313C40083160313390883120313C300F3
:100DC80083160313380883120313C2000A168A1104
:100DD800AC200A128A11831203134508D000440874
:100DE800CF004308CE004208CD000A128A113920EC
:100DF8000A128A11831203134C08EA004B08E9000F
:100E08004A08E8004908E7000A128A117E230A12F4
:100E18008A1183120313660883160313BB00831217
:100E28000313650883160313BA00831203136408B7
:100E380083160313B900831203136308831603137D
:100E4800B800FF30BC070318BD0AFF30BD073B08D8
:100E5800AB003A08AA003908A9003808A8002930C8
:100E6800AC000830AD000030AE000A168A115725D4
:100E78000A128A11831603132B08BB002A08BA002A
:100E88002908B9002808B8003B0883120313E600B4
:100E9800831603133A0883120313E500831603131A
:100EA800390883120313E4008316031338088312E6
:100EB8000313E3003F30CC003130CB007230CA005E
:100EC8001830C900831603133C0883120313A800C3
:100ED800831603133D0883120313A9000030A91BCE
:100EE800FF30AA00AB0001300A168A1119230A1232
:100EF8008A11831203132B08D0002A08CF0029086F
:100F0800CE002808CD000A128A1139200A128A1147
:100F1800831203134C08EA004B08E9004A08E8006A
:100F28004908E7000A128A117E230A128A118312DD
:100F38000313660883160313BB00831203136508A3
:100F480083160313BA00831203136408831603136A
:100F5800B90083120313630883160313B80008004B
:100F680083120313A0002003031DBB2FBC2FDB2F0C
:100F780076087F3EA3002308F70004300310F70C1F
:100F8800FF3E031DC22F7708A10023080F39A200D6
:100F980021080A168A15C9240A128A118312031312
:100FA80022080A168A15C9240A128A11FF2F02304C
:100FB8002006031DE02FE12FFF2F7608BF3EA30078
:100FC8002308F70004300310F70CFF3E031DE72F3A
:100FD8007708A10023080F39A20021080A168A15EC
:100FE800C9240A128A118312031322080A168A15C1
:080FF800C9240A128A11080045
:10100200323400349034013483120313A501A11F3A
:101012000B280C281328A009A109A00A0319A10A68
:10102200A501A50AA31F162817282028A209A3098B
:10103200A20A0319A30A0130FF007F08A506A60130
:10104200A701200821040319272828285F28A401C2
:10105200A40A362801300310A00DA10DFF3E031D86
:101062002C280130FF007F08A407A11F39283A2845
:101072002B2801300310A60DA70DFF3E031D3B28B0
:1010820021082302031D472820082202031C4A28A4
:101092004B2852282008A2022108031CA303A30202
:1010A200261401300310A10CA00CFF3E031D53288F
:1010B2000130A402031D5E285F283A28250803197F
:1010C200632864286928A609A709A60A0319A70A9A
:1010D2002708A1002608A0000800831603132B0886
:1010E20083120313C500831603132A088312031302
:1010F200C40083160313290883120313C300831643
:101102000313280883120313C200B030C6000A1664
:101112008A11AC200A128A1583160313B11F922872
:101122009328C2282B08F5002A08F4002908F300A6
:101132002808F2000030F9000030F8000030F70013
:101142000030F6000A168A1175220A128A1503184F
:10115200AB28AC28B728BF3083160313AB0080300E
:10116200AA000030A9000030A800642900308316CC
:101172000313AB000030AA000030A9000030A80021
:101182006429003031021D3003193002031CCA28C1
:10119200CB28CC2864292B08F5002A08F40029085A
:1011A200F3002808F2000A168A1165210A128A152C
:1011B200750883120313AB007408AA007308A90010
:1011C2007208A80001300A168A1119230A128A1518
:1011D200831203132B0883160313AF008312031326
:1011E2002A0883160313AE008312031329088316F9
:1011F2000313AD0083120313280883160313AC00F4
:101202002B08F5002A08F4002908F3002808F20048
:101212002F08F9002E08F8002D08F7002C08F60018
:101222000A168A1175220A128A15031819291A290F
:101232005A29BF3083120313E6008030E5000030E4
:10124200E4000030E300831603132F088312031314
:10125200EA00831603132E0883120313E900831690
:1012620003132D0883120313E800831603132C08BB
:1012720083120313E7000A128A117E230A128A15C7
:1012820083120313660883160313AB00831203133E
:10129200650883160313AA008312031364088316D6
:1012A2000313A90083120313630883160313A80010
:1012B2006429831603132F08AB002E08AA002D08F9
:1012C200A9002C08A800080083160317A7011A0812
:1012D20083120313B9008316031719088312031329
:1012E200B80083160317180883120313B700831676
:1012F2000317170883120313B6000030BD00003035
:10130200BC000030BB000030BA000A168A15AE26B7
:101312000A128A15031C8E298F29BB290030F50079
:101322000030F4000030F3000030F200831603179F
:101332001E08F9001D08F8001C08F7001B08F6003B
:101342000A168A1175220A128A15031CA929AA29CA
:10135200B029213083160317E1000030E20000308B
:10136200831603179A00003099000030980000306D
:101372009700652B831603171E0883120313B90007
:10138200831603171D0883120313B800831603176D
:101392001C0883120313B700831603171B0883125A
:1013A2000313B6000030BD000030BC000030BB00AB
:1013B2000030BA000A168A15AE260A128A15031CD4
:1013C200E329E429EF293F30831603179A0080307E
:1013D20099000030980000309700652B83160317A0
:1013E2001A08F5001908F4001808F3001708F200AB
:1013F2000030F9000030F8000030F7000030F6004D
:101402000A168A1175220A128A150318092A0A2A4B
:10141200952A831603171E08F5001D08F4001C0800
:10142200F3001B08F2000A168A1165210A128A15B6
:10143200750883160317AB007408AA007308A90085
:101442007208A8002B0883120313AB00831603173C
:101452002A0883120313AA0083160317290883128A
:101462000313A90083160317280883120313A80085
:1014720000300A168A1119230A128A1583120313DD
:101482002B08B9002A08B8002908B7002808B600B6
:10149200831603171E0883120313BD008316031756
:1014A2001D0883120313BC00831603171C08831242
:1014B2000313BB00831603171B0883120313BA001E
:1014C2000A168A15AE260A128A150318692A6A2A8A
:1014D200792A213083160317E1000030E200003040
:1014E2009A00003099000030980000309700652B78
:1014F2008316031728080139A7001A08F5001908EE
:10150200F4001808F3001708F2000A168A155E2480
:101512000A128A157508831603179A00740899002F
:101522007308980072089700831603171A08831627
:101532000313BB0083160317190883160313BA009B
:1015420083160317180883160313B90083160317AB
:10155200170883160313B8000A128A1158260A12B2
:101562008A15831603133B0883160317A2008316FA
:1015720003133A0883160317A100831603133908CD
:1015820083160317A0008316031338088316031764
:101592009F001E0883120313CC00831603171D0835
:1015A20083120313CB00831603171C088312031341
:1015B200CA00831603171B0883120313C90083167C
:1015C2000317220883120313D0008316031721087E
:1015D20083120313CF008316031720088312031309
:1015E200CE00831603171F0883120313CD000A12BD
:1015F2008A1139200A128A15831203134C088316A2
:101602000317A600831203134B0883160317A500C2
:10161200831203134A0883160317A40083120313C9
:10162200490883160317A300260883160313EB0049
:1016320083160317250883160313EA00831603177C
:10164200240883160313E90083160317230883165D
:101652000313E8000A128A1566230A128A158316F2
:1016620003136B08831603179A00831603136A0881
:101672008316031799008316031369088316031749
:101682009800831603136808831603179700270828
:1016920003194C2B4D2B652B1A08F5001908F40081
:1016A2001808F3001708F2000A168A155E240A12B7
:1016B2008A157508831603179A007408990073082F
:1016C200980072089700652B0800831603136B08B5
:1016D20083120313B900831603136A0883120313D8
:1016E200B80083160313690883120313B700831625
:1016F2000313680883120313B6000030BD000030E4
:10170200BC000030BB000030BA000A168A15AE26B3
:101712000A128A15031C8E2B8F2B9A2B3F308316AD
:101722000313EB008030EA000030E9000030E800EB
:10173200802D4430F5003130F4007230F30018305F
:10174200F200831603136B08F9006A08F8006908AF
:10175200F7006808F6000A168A1175220A128A151D
:101762000318B42BB52BC62B223083160317E100C6
:101772000030E2007F3083160313EB007F30EA0073
:10178200FF30E900FF30E800802D831603136B0859
:10179200F5006A08F4006908F3006808F200C43032
:1017A200F9003A30F8004830F7008730F6000A16A0
:1017B2008A1175220A128A150318E02BE12BF22BEB
:1017C200223083160317E1000030E2000030831656
:1017D2000313EB000030EA000030E9000030E800BB
:1017E200802D831603136B08F5006A08F40069085C
:1017F200F3006808F2000030F9000030F800003011
:10180200F7000030F6000A168A1175220A128A15AC
:10181200031C0C2C0E2C01300F2C003083160317E6
:10182200960016080319162C172C302C8316031356
:101832006B08F5006A08F4006908F3006808F20012
:101842000A168A155E240A128A157508831603136E
:10185200EB007408EA007308E9007208E8003F3000
:1018620083120313CC00B830CB00AA30CA003B303D
:10187200C900831603136B0883120313D000831667
:1018820003136A0883120313CF0083160313690834
:1018920083120313CE008316031368088312031303
:1018A200CD000A128A1139200A128A1583120313F3
:1018B2004C0883160313EB00831203134B088316A1
:1018C2000313EA00831203134A0883160313E90081
:1018D20083120313490883160313E8006B08AB0055
:1018E2006A08AA006908A9006808A8000A128A15ED
:1018F2006E200A128A15831603132B088316031708
:101902009300831603132A08831603179200831683
:10191200031329088316031791008316031328085B
:101922008316031790001308F5001208F40011083B
:10193200F3001008F2000A168A1165210A128A15AC
:101942007308831603179500720894001408831213
:101952000313A80083160317150883120313A900A3
:101962000030A91BFF30AA00AB0001300A168A1111
:1019720019230A128A15831203132B0883160313E1
:10198200C900831203132A0883160313C8008312A3
:101992000313290883160313C700831203132808AD
:1019A20083160313C6006B08CD006A08CC006908D1
:1019B200CB006808CA000A168A15FE260A128A1582
:1019C200831603134908EB004808EA004708E900B8
:1019D2004608E8006B08AB006A08AA006908A9007B
:1019E2006808A8000130AC000930AD000030AE003C
:1019F2000A168A1157250A128A15831603132B0811
:101A0200BB002A08BA002908B9002808B8008316C2
:101A12000317150883160313BD0083160317140852
:101A220083160313BC000A168A11D3230A128A15DD
:101A3200831603133B08EB003A08EA003908E90071
:101A42003808E8008316031716080319292D2A2DD2
:101A5200802D831603136B0883120313B9008316B8
:101A620003136A0883120313B80083160313690869
:101A720083120313B7008316031368088312031338
:101A8200B6007F30BD007F30BC00FF30BB00FF30AE
:101A9200BA000A168A15AE260A128A15031C522D9E
:101AA200532D5E2D003083160313EB000030EA0045
:101AB2000030E9000030E800802D831603136B0824
:101AC200D1006A08D0006908CF006808CE003F3014
:101AD200D5008030D4000030D3000030D2000A1686
:101AE2008A1131260A128A15831603135108EB0054
:101AF2005008EA004F08E9004E08E800802D08006F
:101B0200831603172F0883160313C90083160317BE
:101B12002E0883160313C800831603172D08831695
:101B22000313C700831603172C0883160313C6007A
:101B32004030CD00A030CC000030CB000030CA00D5
:101B42000A168A15FE260A128A15831603134908F5
:101B5200D1004808D0004708CF004608CE004630E2
:101B620083120313CC001C30CB004030CA0000307B
:101B7200C900831603172F0883120313D00083169C
:101B820003172E0883120313CF00831603172D08A1
:101B920083120313CE00831603172C088312031338
:101BA200CD000A128A1139200A128A1583120313F0
:101BB2004C0883160313D500831203134B088316B4
:101BC2000313D400831203134A0883160313D300AA
:101BD20083120313490883160313D2000A168A11CB
:101BE20031260A128A158316031351088316031726
:101BF200B30083160313500883160317B20083162B
:101C020003134F0883160317B100831603134E08FC
:101C120083160317B000413083160313C10010303E
:101C2200C0000030BF000030BE000A168A154E27E1
:101C32000A128A15831603134108C9004008C80016
:101C42003F08C7003E08C6004030C1008030C000D7
:101C52000030BF000030BE000A168A154E270A1255
:101C62008A15831603134108CD004008CC003F08B3
:101C7200CB003E08CA000A168A15FE260A128A15E9
:101C820083160313490883160317C7008316031329
:101C9200480883160317C6008316031347088316E2
:101CA2000317C50083160313460883160317C400DF
:101CB200443083160313D1007730D0008030CF0038
:101CC2000030CE00BF3083120313E6008030E500FF
:101CD2000030E4000030E300831603174708831244
:101CE2000313EA0083160317460883120313E9005D
:101CF20083160317450883120313E800831603179C
:101D0200440883120313E7000A128A117E230A127F
:101D12008A1583120313660883160313D5008312F0
:101D22000313650883160313D40083120313640894
:101D320083160313D300831203136308831603135A
:101D4200D2000A168A1131260A128A158316031343
:101D5200510883160317C300831603135008831612
:101D62000317C200831603134F0883160317C1001B
:101D7200831603134E0883160317C00043308316DD
:101D82000313C100C830C0000030BF000030BE00E5
:101D92000A168A154E270A128A158316031341085A
:101DA200C9004008C8003F08C7003E08C6008316A5
:101DB2000317330883160313C1008316031732086F
:101DC20083160313C0008316031731088316031307
:101DD200BF0083160317300883160313BE000A16CA
:101DE2008A154E270A128A15831603134108CD005D
:101DF2004008CC003F08CB003E08CA000A168A15EC
:101E0200FE260A128A15831603134908831603173E
:101E1200C70083160313480883160317C6008316E8
:101E22000313470883160317C500831603134608D6
:101E320083160317C400BF309E0080309D0000301F
:101E42009C0000309B0043089A0042089900410818
:101E52009800400897000A128A1565210A128A150D
:101E6200831603171A08BB001908BA001808B9002C
:101E72001708B800443083120313CC007A30CB0029
:101E82000030CA000030C9008316031743088312CA
:101E92000313D00083160317420883120313CF00E3
:101EA20083160317410883120313CE008316031708
:101EB200400883120313CD000A128A1139200A1234
:101EC2008A15831203134C08E6004B08E5004A0802
:101ED200E4004908E300831603174708831203133B
:101EE200EA0083160317460883120313E9008316D8
:101EF2000317450883120313E800831603174408E7
:101F020083120313E7000A128A117E230A128A152A
:101F120083120313660883160317BF008312031389
:101F2200650883160317BE00831203136408831621
:101F32000317BD0083120313630883160317BC0043
:101F42003B0883120313CC00831603173A0883124B
:101F52000313CB0083160317390883120313CA0035
:101F620083160317380883120313C9008316031755
:101F72003F0883120313D000831603173E0883120F
:101F82000313CF00831603173D0883120313CE00F9
:101F9200831603173C0883120313CD000A128A1119
:101FA20039200A128A15831203134C088316031769
:101FB200B700831203134B0883160317B60083126C
:101FC20003134A0883160317B50083120313490843
:101FD20083160317B4003708F5003608F4003508F5
:101FE200F3003408F2000A168A1165210A128A15D2
:101FF200730883160317AD007208AC000800FF1BBC
:102002000A2883137F1883170008840A0319FF0A1A
:10201200080010308A000408840A82070034003461
:10202200003480343F341834723431343F34F03465
:10203200FD3475343E344734583463343D345834B7
:1020420095341D343C348234C434AE343A34A8342A
:10205200783421343934EF34933480343734A03433
:102062009234A7343534463456341534343400347B
:10207200003400340034C434FF347F343F348034BD
:10208200EF34FF34BE349034E134A9343E34EC34BE
:1020920082347634BE348234AD342B343E340E3442
:1020A2003C34C334BD348734D13413343D344134E9
:1020B2007834D334BB344D3445344E345534203423
:1020C2002D3420344F3442344A3445345434493464
:1020D20056344F3400344C3441344D34503441344E
:1020E20044344134203445344D3420343A340034BD
:1020F20035343034303420344C3455345834003490
:1021060083120313A400A001A1017208F400F501D3
:102116007408A2007508A300241C92289328992805
:102126002208A0070318A10A2308A10701300310FB
:10213600A20DA30DFF3E031D9A280310A40C24082C
:10214600031DA628A7288F282108F3002008F200DF
:102156000800831203134508B9004408B800430871
:10216600B7004208B6000030BD000030BC000030A9
:10217600BB000030BA000A168A15AE260A168A1166
:10218600031CC628C728D8288312031346088400D0
:1021960083138001840A80010030C5000030C4002A
:1021A6000030C3000030C20007298312031345081C
:1021B6007F39C700C8010310C70DC80D4608840043
:1021C600470883138000840A48088000440D440DA4
:1021D6000139C700C8014608840047088004840AFC
:1021E600480880044608840082308007840F00086F
:1021F6000318000AFF00FF307F07800084034508AC
:1022060080393F38C500C413080000300A168A1505
:1022160001250A168A111A30F700F830F600F60B77
:102226001229F70B1229000003300A168A15C92451
:102236000A168A110730F7007D30F600F60B2129C1
:10224600F70B212903300A168A15C9240A168A11A2
:102256000F30F7004730F600F60B2F29F70B2F2922
:10226600342903300A168A15C9240A168A1102303F
:102276000A168A15C9240A168A1102300A168A1500
:10228600C9240A168A1108300A168A15C9240A169C
:102296008A1100300A168A15C9240A168A110C30CA
:1022A6000A168A15C9240A168A1100300A168A15D2
:1022B600C9240A168A1106300A168A15C9240A166E
:1022C6008A1108000310740D750D83120313A10003
:1022D6002108031D6F29702979290030F500003087
:1022E600F4000030F3000030F200DC297208F6003A
:1022F6007308F7007408F8007508F9001F3003101A
:10230600F90CF80CF70CF60CFF3E031D8229760833
:10231600A000F417FF30F205FF30F305FF30F40597
:102326000030F5059630A102A11F9A299B29B529EF
:102336002108803A973E0318A129A229A3297029CA
:1023460001300310F50CF40CF30CF20CFF3E031DE8
:10235600A4290130FF007F08A107031DB329B42972
:10236600A329CC2920302102031CBA29BB29C7295D
:1023760070290130F6000310F20DF30DF40DF50D82
:10238600F60BBE290130A1022108031DCB29CC2959
:10239600BC2920080319D029D129DC29F209F3091F
:1023A600F409F509F20A0319F30A0319F40A0319E1
:1023B600F50A08008316031387010117013086000A
:1023C6000A168A1599240A168A110A168A15762477
:1023D6000A168A118316031388010A168A11082120
:1023E6000A168A115D3083160317E0000A168A154D
:1023F60057240A168A110A168A1584240A168A117F
:10240600730883160317DD007208DC005D0883126B
:102416000313B700831603175C0883120313B60071
:102426000A168A15B2250A168A1183120313390869
:1024360083160317DB00831203133808831603176A
:10244600DA0083120313370883160317D9008312A1
:102456000313360883160317D8005B08AF005A0823
:10246600AE005908AD005808AC000A128A1581253D
:102476000A168A11831603172D08DF002C08DE00C2
:102486000A168A15E3240A168A11323083120313B8
:102496009500831603175F0883120313A90083169A
:1024A60003175E0883120313A800C830AA000A3077
:1024B600AB000030AC000A168A1193240A168A1162
:1024C600C83083120313A5000130A6008316031734
:1024D60060080A168A157B250A168A11FE290A1231
:1024E6008A110C280030720583120313A0000030F5
:1024F6007305A10080307405A2007F307505A30026
:102506002308220421042004031D8A2A8B2A932AE5
:102516000030F5000030F4000030F3000030F20027
:1025260000307605A00000307705A10080307805E0
:10253600A2007F307905A300230822042104200489
:10254600031DA62AA72AAF2A0030F9000030F8009A
:102556000030F7000030F600F51FB22AB32AD72A5A
:102566000030A0000030A1000030A2008030A3009F
:102576007208A0027308031C730FC22AC32AA102A1
:102586007408031C740FC82AC92AA2027508031C02
:10259600750FCE2ACF2AA3022308F5002208F400DD
:1025A6002108F3002008F200F91FDA2ADB2AFF2AA5
:1025B6000030A0000030A1000030A2008030A3004F
:1025C6007608A0027708031C770FEA2AEB2AA102F5
:1025D6007808031C780FF02AF12AA2027908031C56
:1025E600790FF62AF72AA3022308F9002208F80031
:1025F6002108F7002008F6008030F5068030F9063D
:1026060079087502031D112B78087402031D112B1E
:1026160077087302031D112B760872020318142B18
:10262600152B172B0310182B031408008312031302
:10263600B00030080319202B212B352BAB1F242B80
:10264600252B352B2809B2002909B3002A09B40025
:102656002B09B500B20A0319B30A0319B40A031900
:10266600B50A3D2B2B08B5002A08B4002908B3008B
:102676002808B2002B082A0429042804031D442B29
:10268600452B4E2B0030AB000030AA000030A900CD
:102696000030A800D22B9630B1005E2B0130FF002F
:1026A6007F08B10701300310B50CB40CB30CB20CA3
:1026B600FF3E031D562BFE303505031D632B642B91
:1026C600512B802B0130FF007F08B1070130B20784
:1026D600003003180130B307003003180130B40787
:1026E600003003180130B50701300310B50CB40CE7
:1026F600B30CB20CFF3E031D782BFF303505031DCE
:10270600852B862B652B922B0130B1020130AC0054
:102716000310B20DB30DB40DB50DAC0B8B2BB41B62
:10272600952B962B9C2B0230310203189B2B9C2B4E
:10273600872B31189F2BA02BA82BFF30B205FF301B
:10274600B3057F30B405FF30B5050310B10C310871
:10275600AC00AD01AE01AF0118300310AC0DAD0DEC
:10276600AE0DAF0DFF3E031DB02B2C08B2042D0895
:10277600B3042E08B4042F08B50430080319C42B7B
:10278600C52BCA2BAB1FC82BC92BCA2BB5173508AF
:10279600AB003408AA003308A9003208A8000800D4
:1027A600831603133B0883120313B900831603131E
:1027B6003A0883120313B8008316031339088312E9
:1027C6000313B70083160313380883120313B600E6
:1027D6000030BD000030BC000030BB000030BA0045
:1027E6000A168A15AE260A168A11031CFB2BFC2B29
:1027F600072C003083160313BB000030BA000030EC
:10280600B9000030B800922C831603133B087F39B9
:10281600BE00BF010310BE0DBF0D3E08BC07031866
:10282600BD0A3F08BD073A0D3A0D0139BE00BF018A
:102836003E08BC070318BD0A3F08BD07BD1F242C70
:10284600252C362C223083160317E1000030E200D7
:10285600003083160313BB000030BA000030B90005
:102866000030B800922C3D08803AFF0081307F028C
:10287600031D3F2C00303C02031C422C432C7A2CB7
:10288600223083160317E1000030E200831603139B
:102896003B08F5003A08F4003908F3003808F2005E
:1028A6000030F9000030F8000030F7000030F60084
:1028B6000A168A1175220A168A110318632C642CCB
:1028C6006F2CFF3083160313BB007F30BA00FF3036
:1028D600B900FF30B800922C7F3083160313BB007B
:1028E6007F30BA00FF30B900FF30B800922C831653
:1028F60003133D08BF003C08BE003F0DBF0CBE0CD5
:102906003B083E0680393E06BB003C080139BE0046
:10291600BE0CBE0C3A083E067F393E06BA000800D9
:1029260083120313B601B70128082904031D9C2C42
:102936009D2C052D2A088400303083178000013035
:10294600B6070318B70A0030B70736082A07F80093
:10295600780884008001562D2C08F3002B08F2001D
:102966002908F5002808F4000A168A15A7270A166A
:102976008A11730883120313B1007208B00031087C
:10298600803AFF0080307F02031DCB2C0A303002D4
:102996000318CE2CCF2CDA2C831203133008303ECA
:1029A600AE0031080318013E003EAF00E42C83124E
:1029B60003133008373EAE0031080318013E003ECF
:1029C600AF0036082A07F800780884002E08831717
:1029D60080000130B6070318B70A0030B7072C0885
:1029E600A1002B08A0002908A3002808A2000A12AB
:1029F6008A1505200A168A11831203132108A900D5
:102A06002008A80028082904031D0A2D0B2DAF2C29
:102A160036082A07F8007808840083178001B20177
:102A2600B3013608FF3EB40037080318013EFF3EE7
:102A3600B500482D8312031332082A07F8007808D8
:102A4600840083170008AD0034082A07F8007808C8
:102A560084000008FF0032082A07F900790884007C
:102A66007F08800034082A07F800780884002D08BB
:102A760080000130B2070318B30A0030B307FF30F5
:102A8600B4070318B50AFF30B5073308803AF800D3
:102A96003508803A7802031D522D34083202031C91
:102AA600552D562D1D2D0800831603132D08AF0036
:102AB60001300310AF0DFF3E031D5C2D03102F0DDB
:102AC6002C0784000A168A110A200A168A11B000F9
:102AD6000A168A110A200A168A11B1000A168A11E4
:102AE6000A200A168A11B2000A168A110A200A1644
:102AF6008A11B3003308B7003208B6003108B500B2
:102B06003008B400222EFF30AD070318AE0AFF309E
:102B1600AE072D08AF0001300310AF0DFF3E031DB9
:102B26008F2D03102F0D2C0784000A168A110A20F8
:102B36000A168A11B0000A168A110A200A168A1184
:102B4600B1000A168A110A200A168A11B2000A165C
:102B56008A110A200A168A11B30033088312031356
:102B6600E60083160313320883120313E500831667
:102B76000313310883120313E4008316031330088A
:102B860083120313E3008316031337088312031318
:102B9600CC0083160313360883120313CB00831667
:102BA6000313350883120313CA008316031334086C
:102BB60083120313C900831603132B08831203130E
:102BC600D000831603132A0883120313CF0083163B
:102BD6000313290883120313CE0083160313280850
:102BE60083120313CD000A128A1139200A168A119C
:102BF600831203134C08EA004B08E9004A08E80070
:102C06004908E7000A128A117E230A168A118312DE
:102C16000313660883160313B700831203136508AC
:102C260083160313B6008312031364088316031373
:102C3600B50083120313630883160313B4002D082B
:102C46002E04031D272E282E862D3708AB003608A6
:102C5600AA003508A9003408A80008008316031343
:102C660055088039DF005508D6005607E600D41F00
:102C76003D2E3E2E3F2E661466080319432E442E23
:102C8600542E660A031D482E492E512E0030D500BB
:102C96000030D4000030D3000030D200D417D50164
:102CA6005C2E0030D5000030D4000030D300003058
:102CB600D20051088039FF007F08DF065108D60090
:102CC6005607E700D01F682E692E6A2E671467081C
:102CD60003196E2E6F2E7F2E670A031D732E742E18
:102CE6007C2E0030D1000030D0000030CF00003004
:102CF600CE00D017D101872E0030D1000030D00091
:102D06000030CF000030CE00510850044F044E046E
:102D1600031D8E2E8F2EA82E0030D5000030D40035
:102D26000030D3000030D2008030D4047F30D50488
:102D36005F08FF007F08D5045508D1005408D0006D
:102D46005308CF005208CE00FF2F6608031DAC2E95
:102D5600AD2EB62E0030D1000030D0000030CF00AE
:102D66000030CE00FF2F6608D600D7015708D900DD
:102D760067085602D800031CD90358087F3EE000B6
:102D860059080318013E003EE1005508DE005408CC
:102D9600DD005308DC005208DB000030D5000030AF
:102DA600D4000030D3000030D2000030E5000030FF
:102DB600E4000030E3000030E200E7012C2F670852
:102DC6000319E62EE72E072F0130D6000310DB0D80
:102DD600DC0DDD0DDE0DD60BE92E0130D60003101D
:102DE600D20DD30DD40DD50DD60BF22EE51FFC2E2C
:102DF600FD2EFE2E52140130D6000310E20DE30D17
:102E0600E40DE50DD60B002F51085E02031D152FAC
:102E160050085D02031D152F4F085C02031D152F78
:102E26004E085B02031C182F192F282F65174E0812
:102E3600DB024F08031C4F0FDC025008031C500F27
:102E4600DD025108031C510FDE020130FF007F082E
:102E5600E7071A306702031C312F322FE22E5E0875
:102E66005D045C045B040319392F3A2F592F621451
:102E7600592F0130D6000310D20DD30DD40DD50D28
:102E8600D60B3E2FE51F482F492F4A2F52140130EB
:102E9600D6000310E20DE30DE40DE50DD60B4C2F25
:102EA600FF30E0070318E10AFF30E107D41F5C2F6B
:102EB6005D2F3C2FE701E51F612F622F7E2FFF302C
:102EC6006205D600FF306305D700FF306405D800E1
:102ED6007F306505D900590858045704560403196C
:102EE600752F762F792FE701E70A7E2F521C7C2F4C
:102EF6007D2F7E2F762F67080319822F832FB42FFD
:102F06000130D207003003180130D3070030031810
:102F16000130D407003003180130D507551C942F13
:102F2600952FB42F5208D6005308D7005408D8005E
:102F36005508D9000130DA00590DD90CD80CD70C38
:102F4600D60CDA0B9F2F5908D5005808D40057081D
:102F5600D3005608D2000130E0070318E10A00301A
:102F6600E1076108803AFF0080307F02031DBD2F14
:102F7600FF306002031CC02FC12FCF2FFF308316F6
:102F86000313E0000030E1000030D5000030D4002B
:102F96000030D3000030D200831603136108803A54
:102FA600FF0080307F02031DDA2F01306002031814
:102FB600DD2FDE2FEB2F83160313E001E101003036
:102FC600D5000030D4000030D3000030D200DF013D
:102FD600831603136008E600661CF22FF32FF52F05
:102FE600D417F92F7F30FF007F08D4056608D60076
:0A2FF6000310560CD5009B2E0800B6
:1038AE008316031301138B170B168B100800750864
:1038BE007404730472040319652C662C682C803012
:1038CE00F506080000300A168A15C9240A168A154C
:1038DE0001300A168A15C9240A168A1508000F30F7
:1038EE008312031397006430831603139200323051
:1038FE0083120313950012150800831203131F156C
:10390E000330F400F40B892C831203131E08F40009
:10391E00F5017408F6007508F7007708F3007608CD
:10392E00F2000800831603131F109F141F159F1516
:10393E00831203131F139F13831603131F139F1357
:10394E009E01831203139E011F149F111F129F12BB
:10395E0008008B1CB32CB42CC22C7A087B040319E0
:10396E00B92CBA2CBD2CFA01FB01C12C0130FA0086
:10397E000030FB008B1071088A00700E8300FE0E63
:10398E007E0E0900F50083120313081175080A163E
:10399E008A1501250A168A15831203138815063017
:1039AE00F4003030F300F30BDA2CF40BDA2C0000B9
:1039BE008312031388110800FA2C0A168A15EC25B7
:1039CE000A168A150A168A152A260A168A156A30C2
:1039DE0083120313A5008030A6004D300A168A15F7
:1039EE007B250A168A157A087B04031DFF2C002DF1
:1039FE00E42C0800F200721C052D062D0A2D8312F0
:103A0E00031308160D2D831203130812F21C102D2A
:103A1E00112D132D8816142D8812721D172D182D89
:103A2E001A2D08171B2D0813F21D1E2D1F2D212DCB
:103A3E008817222D88130800F601F701721C282D15
:103A4E00292D2F2D7408F6070318F70A7508F707A6
:103A5E0001300310F40DF50DFF3E031D302D013026
:103A6E000310F30CF20CFF3E031D372D7208730486
:103A7E00031D422D432D252D7708F3007608F20005
:103A8E000800F60076080F39F4007608F039F500D4
:103A9E008312031308157508F30004300310F30C9A
:103AAE00FF3E031D552D73080A168A1501250A16A9
:103ABE008A158312031388150D30F300F30B652D51
:103ACE0083120313881174080A168A1501250A1623
:103ADE008A158312031388150D30F300F30B752D21
:103AEE008312031388110800F9000A168A15692437
:103AFE000A168A15F601F60A01300A128A11B4273F
:103B0E000A168A157908F7000030031D8030F80078
:103B1E000A168A1568260A168A15F601F60A023062
:103B2E000A128A11B4270A168A158312031325085E
:103B3E00F7002608F8000A168A1568260A168A154E
:103B4E00823083120313A800DD30A700A70BAD2D22
:103B5E00A80BAD2D08000530F4000030F5008312DF
:103B6E0003133708F3003608F2000A168A152325C8
:103B7E000A168A15730883120313A3007208A20093
:103B8E00FF30A0000030A1000A128A1505200A1687
:103B9E008A15831203132008A8002108A9000030FB
:103BAE00A91BFF30AA00AB0001300A168A11192397
:103BBE000A168A15831203132B08B9002A08B800B7
:103BCE002908B7002808B6000800831603176508F1
:103BDE006604031DF32DF42D1F2E831203130619F5
:103BEE00F92DFA2D1F2E013083160317E500003034
:103BFE00E600831603136D08803AFF0083307F02C0
:103C0E00031D0B2EE8306C0203180E2E0F2E182EED
:103C1E000A3083160313EC070318ED0A0030ED0784
:103C2E00292EE83083160313EC000330ED00292E05
:103C3E0083120313061D242E252E292E83160317F9
:103C4E00E501E60108008316031763086404031DEB
:103C5E00312E322E5D2E831203138619372E382EF7
:103C6E005D2E013083160317E3000030E400831647
:103C7E0003136D08803AFF0080307F02031D492E2A
:103C8E000B306C02031C4C2E4D2E562EF630831626
:103C9E000313EC070318ED0AFF30ED07672E0A3009
:103CAE0083160313EC000030ED00672E831203130E
:103CBE00861D622E632E672E83160317E301E40121
:103CCE00080083120313A301A401912E2308770782
:103CDE00A1007808A0000318A00AA31F772EA00346
:103CEE00831203132008A2002208FF00210884007B
:103CFE000A168A1100200A168A150A168A154825F0
:103D0E000A168A15013083120313A3070318A40A97
:103D1E000030A40723087707A1007808A000031835
:103D2E00A00AA31F9B2EA003831203132008A20038
:103D3E002208FF00210884000A168A1100200A16A4
:103D4E008A15003A031DAC2EAD2E6D2E08000030E4
:103D5E00831203133605BE0000303705BF008030D6
:103D6E003805C0007F303905C100410840043F04CA
:103D7E003E04031DC32EC42ECC2E0030B9000030DD
:103D8E00B8000030B7000030B60000303A05BE0073
:103D9E0000303B05BF0080303C05C0007F303D0544
:103DAE00C100410840043F043E04031DDF2EE02EF7
:103DBE00E82E0030BD000030BC000030BB000030EB
:103DCE00BA003D083906031DF62E3C083806031DC1
:103DDE00F62E3B083706031DF62E3A083606031953
:103DEE00F92EFA2EFC2E0310FD2E0314080080303F
:103DFE0083160313C9064D0883120313E6008316B8
:103E0E0003134C0883120313E500831603134B08A8
:103E1E0083120313E400831603134A088312031359
:103E2E00E30083160313490883120313EA00831673
:103E3E000313480883120313E9008316031347087C
:103E4E0083120313E8008316031346088312031329
:103E5E00E7000A128A117E230A168A1583120313AB
:103E6E00660883160313C9008312031365088316AD
:103E7E000313C80083120313640883160313C700C9
:103E8E0083120313630883160313C60008008316F8
:103E9E0003134108BB004008BA003F08B9003E08B2
:103EAE00B8000A128A1158260A168A1583160313A9
:103EBE003B08C5003A08C4003908C3003808C200E0
:103ECE003E3083120313CC00DE30CB005B30CA00D1
:103EDE00D930C90083160313450883120313D0008B
:103EEE0083160313440883120313CF0083160313A0
:103EFE00430883120313CE00831603134208831262
:103F0E000313CD000A128A1139200A168A1583125C
:103F1E0003134C0883160313C100831203134B08BB
:103F2E0083160313C000831203134A088316031368
:103F3E00BF0083120313490883160313BE00080043
:103F4E00F701F51FAB2FAC2FB32FF409F509F40AC7
:103F5E000319F50AF701F70AF31FB62FB72FBC2F77
:103F6E00F209F309F20A0319F30A7208730403192A
:103F7E00C12FC22FF12FF601F60AD02F01300310F8
:103F8E00F20DF30DFF3E031DC62F0130FF007F081B
:103F9E00F607F31FD32FD42FC52F73087502031DF9
:103FAE00DA2F72087402031CDD2FDE2FE42F720845
:103FBE00F4027308031CF503F50201300310F30C31
:103FCE00F20CFF3E031DE52F0130F602031DF02F0C
:103FDE00F12FD42F77080319F52FF62FFB2FF409A5
:103FEE00F509F40A0319F50A7508F3007408F200CE
:023FFE000800B9
:00000001FF
