:060000000A128A110E280D
:10000800FE00030EF3000A08F4007F08F5000A1644
:100018008A11922F0A128A111128831603130A16BD
:100028008A1141270A128A11B9000A168A11422731
:100038000A128A11BA00831203130A168A11432777
:100048000A128A11EA000A168A1144270A128A112A
:10005800EB000A128A152B200A128A11FA000A12DA
:100068008A152C200A128A11FB0083160313B70184
:10007800B80183120313E801E901F601F701F80159
:10008800F90183010A128A11322E831203132C08F4
:100098008039B1003108B6002C08B1003107B20030
:1000A8003208BC00AB1F59285A285B283C143C086E
:1000B80003195F2860286F283C0A031D64286528F7
:1000C8006D280030AC000030AB000030AA000030D2
:1000D800A900AB1777280030AC000030AB00003027
:1000E800AA000030A90030088039B1003108B606EE
:1000F8003008B1003107B2003208B700AF1F8528B9
:10010800862887283714370803198B288C289B28BA
:10011800370A031D9028912899280030B000003034
:10012800AF000030AE000030AD00AF17A32800309C
:10013800B0000030AF000030AE000030AD0037082E
:100148000319A728A828AD283C08031DAC28AD280A
:10015800B6280030AC000030AB000030AA000030F8
:10016800A900A92B2908B1003108A0002F080A12FC
:100178008A1592200A128A11831203132108C200D9
:100188002008C1004108B100B201B301B40134082C
:10019800BB003308BA003208B9003108B800420879
:1001A800B100B201B301B4013408C0003308BF0084
:1001B8003208BE003108BD002A08B1003108A0008D
:1001C8002E080A128A1592200A128A118312031322
:1001D8002108C2002008C1004108B100B201B301E2
:1001E800B4013108B807320803110318013E031996
:1001F800FE28B907330803110318013E031905291E
:10020800BA07340803110318013E03190C29BB0768
:100218004208B100B201B301B4013108BD07320888
:1002280003110318013E03191A29BE0733080311E5
:100238000318013E03192129BF07340803110318C5
:10024800013E03192829C0072B08B1003108A00076
:100258002D080A128A1592200A128A118312031392
:100268002108C2002008C1004108B100B201B30151
:10027800B4013108B807320803110318013E031905
:100288004629B907330803110318013E03194D29FC
:10029800BA07340803110318013E03195429BB0790
:1002A8004208B100B201B301B4013108BD073208F8
:1002B80003110318013E03196229BE07330803110D
:1002C8000318013E03196929BF07340803110318ED
:1002D800013E03197029C0070830B1000310B80D9A
:1002E800B90DBA0DBB0DB10B72292A08B10031083E
:1002F800A0002D080A128A1592200A128A11831268
:1003080003132108C2002008C1004108B1004208B7
:10031800B200B301B4013108B80732080311031859
:10032800013E03199829B907330803110318013E40
:1003380003199F29BA07340803110318013E03194A
:10034800A629BB072908B1003108A0002E080A1207
:100358008A1592200A128A11831203132108C200F7
:100368002008C1004108B1004208B200B301B4013D
:100378003108B807320803110318013E0319C529CB
:10038800B907330803110318013E0319CC29BA072A
:10039800340803110318013E0319D329BB07083099
:1003A800B1000310B80DB90DBA0DBB0DB10BD529AD
:1003B8002908B1003108A0002D080A128A159220D8
:1003C8000A128A11831203132108C2002008C100EF
:1003D8004108B1004208B200B301B4013108B807BE
:1003E800320803110318013E0319FB29B907330822
:1003F80003110318013E0319022ABA07340803112E
:100408000318013E0319092ABB072A08B10031085D
:10041800A0002F080A128A1592200A128A11831244
:1004280003132108C2002008C1004108B100420896
:10043800B200B301B4013108BD0732080311031833
:10044800013E0319282ABE07330803110318013E89
:1004580003192F2ABF07340803110318013E031993
:10046800362AC0072B08B1003108A0002E080A124E
:100478008A1592200A128A11831203132108C200D6
:100488002008C1004108B1004208B200B301B4011C
:100498003108BD07320803110318013E0319552A14
:1004A800BE07330803110318013E03195C2ABF076E
:1004B800340803110318013E0319632AC0072B08E7
:1004C800B1003108A0002F080A128A1592200A12DA
:1004D8008A11831203132108C2002008C1004108B1
:1004E800B1004208B200B301B40108300310B10DE5
:1004F800B20DB30DB40DFF3E031D7A2A3108BD07B6
:10050800320803110318013E03198B2ABE0733086A
:1005180003110318013E0319922ABF073408031177
:100528000318013E0319992AC0073808B100390891
:10053800B2003A08B3003B08B40018300310B40CFA
:10054800B30CB20CB10CFF3E031DA22A3108BD0743
:10055800320803110318013E0319B32ABE073308F2
:1005680003110318013E0319BA2ABF0734080311FF
:100578000318013E0319C12AC0070830B10003104F
:10058800B80DB90DBA0DBB0DB10BC32A3C0837071E
:10059800B100B201B20D3108823EC1003208031821
:1005A800013EFF3EC200F52A0130B1000310BD0D27
:1005B800BE0DBF0DC00DB10BDA2ABB1FE42AE52A18
:1005C800E62A3D140130B1000310B80DB90DBA0D7B
:1005D800BB0DB10BE82AFF30C1070318C20AFF3070
:1005E800C207BF1FF82AF92AD82AB701BB1FFD2A5C
:1005F800FE2A1A2BFF303805B100FF303905B2004A
:10060800FF303A05B3007F303B05B40034083304AB
:10061800320431040319112B122B152BB701B70A19
:100628001A2B3D1C182B192B1A2B122B37080319C0
:100638001E2B1F2B502B0130BD0700300318013033
:10064800BE07003003180130BF070030031801301F
:10065800C007401C302B312B502B3D08B1003E0801
:10066800B2003F08B3004008B4000130B500340DB3
:10067800B40CB30CB20CB10CB50B3B2B3408C00056
:100688003308BF003208BE003108BD000130C10781
:100698000318C20A0030C2074208803AFF008030BF
:1006A8007F02031D592BFF304102031C5C2B5D2B7D
:1006B800682B7F3083120313C0008030BF000030E6
:1006C800BE000030BD009D2B831203134208803A00
:1006D800FF0080307F02031D732B01304102031895
:1006E800762B772B832B003083120313C000003046
:1006F800BF000030BE000030BD00B6019D2B831244
:1007080003134108B1003108BC00FF30BD05FF30BC
:10071800BE057F30BF050030C0053C1C942B952BCF
:10072800962BBF173C08B1000310310CB2003208F9
:10073800C0003608B1003108C0044008AC003F08CA
:10074800AB003E08AA003D08A90008008312031365
:1007580046088039CB004B08D3004608CB004B072E
:10076800CC004C08D500C51FBA2BBB2BBC2B55148D
:1007780055080319C02BC12BD12B550A031DC52BB6
:10078800C62BCE2B0030C6000030C5000030C40098
:100798000030C300C517C601D92B0030C600003091
:1007A800C5000030C4000030C3004A088039CB00BF
:1007B8004B08D400540853060319E32BE42BE52B0C
:1007C80053174A08CB004B07CC004C08D400C91F6C
:1007D800EE2BEF2BF02B541454080319F42BF52BA4
:1007E800052C540A031DF92BFA2B022C0030CA00E1
:1007F8000030C9000030C8000030C700C917CA015E
:100808000D2C0030CA000030C9000030C80000308C
:10081800C700550854020318122C132C572C531FC9
:10082800162C172C1B2C8030CB004B08D3065508F0
:10083800CB004B08D6005408CB004B08D50056080F
:10084800CB004B08D4004308CB004B08D600470820
:10085800CB004B08C3005608CB004B08C700440820
:10086800CB004B08D6004808CB004B08C4005608FC
:10087800CB004B08C8004508CB004B08D6004908F8
:10088800CB004B08C5005608CB004B08C9004608EA
:10089800CB004B08D6004A08CB004B08C6005608C8
:1008A800CB004B08CA00D6015408CB00CC014C0839
:1008B800CE0055084B02CD00031CCE034E08803AEB
:1008C800FF0080307F02031D6B2C1A304D02031C81
:1008D8006E2C6F2CAC2C8312031346084504440479
:1008E8004304031D782C7A2C01307B2C0030CB007C
:1008F8004B08D6000030C6000030C5000030C400E8
:100908000030C3005408CB004B08D500B42C561C4B
:100918008E2C8F2C982C5608CB0003104B0C0138CA
:10092800CC004C08D6009A2C0310D60C431C9D2CE6
:100938009E2C9F2CD6170130CB00460DC60CC50C3B
:10094800C40CC30CCB0BA12C0130CB004B08D50732
:100958008312031354085502031CB32CB42C8B2C9C
:10096800531BB72CB82C032D5508031DBC2CBD2CCC
:10097800C62C0030C6000030C5000030C40000306E
:10098800C300312E4708C307480803110318013E66
:100998000319CF2CC407490803110318013E031992
:1009A800D62CC5074A0803110318013E0319DD2C8C
:1009B800C607461CE02CE12CB72D561CE42CE52C70
:1009C800EE2C5608CB0003104B0C0138CC004C0819
:1009D800D600F02C0310D60C431CF32CF42CF52C69
:1009E800D6170130CB00460DC60CC50CC40CC30C81
:1009F800CB0BF72C0130CB004B08D507B72D460899
:100A0800803AFF004A08803A7F02031D152D4908E5
:100A18004502031D152D48084402031D152D4708DE
:100A280043020318182D192D712DFF30CB00FF300C
:100A3800CC00FF30CD00FF30CE004708CF0048087B
:100A4800D0004908D1004A08D2004308CF02440820
:100A5800031C440F302D312DD0024508031C450FCF
:100A6800362D372DD1024608031C460F3C2D3D2D4F
:100A7800D2024F08CB0750080318500F442D452DBC
:100A8800CC0751080318510F4A2D4B2DCD0752089A
:100A98000318520ACE074E08C6004D08C5004C0878
:100AA800C4004B08C3008030CB004B08D306D609DE
:100AB800D60A5608031D612D622D7F2D0130C3070C
:100AC800003003180130C407003003180130C5078F
:100AD800003003180130C6077F2D4708C3024808B5
:100AE800031C480FC4024908031C490FC5024A08E1
:100AF800031C4A0FC6024608450444044304031D68
:100B0800862D872DB32D5608031D8B2D8C2DB32DC7
:100B18000030C6000030C5000030C4000030C300FB
:100B2800312E0130CB000310C30DC40DC50DC60D09
:100B3800CB0B972DD61FA12DA22DA32D4314561CE8
:100B4800A62DA72DAA2D0314D60DAC2D0310D60D56
:100B580055080319B02DB12DB32D0130D502C51F8D
:100B6800B62DB72D952DD401D61FBB2DBC2DCA2D62
:100B780056087F390319C12DC22DC52DD401D40AB9
:100B8800CA2D431CC82DC92DCA2DC22D54080319BE
:100B9800CE2DCF2D032E0130C307003003180130AE
:100BA800C407003003180130C507003003180130AE
:100BB800C607461CE02DE12D032E4308CB00440850
:100BC800CC004508CD004608CE000130CF004E0DC0
:100BD800CE0CCD0CCC0CCB0CCF0BEB2D4E08C6009D
:100BE8004D08C5004C08C4004B08C300550A03193A
:100BF800FE2DFF2D032E0130CB004B08D507550ADB
:100C08000319072E082E0D2E5508031D0C2E0D2E28
:100C18001B2E0030C6000030C5000030C400003074
:100C2800C3005508031D192E1A2E1B2ED301551C5F
:100C38001E2E1F2E212EC517252E7F30CB004B08C8
:100C4800C5055508CB0003104B0CCC004C08C6005A
:100C5800D31F2F2E302E312EC617080083160313EC
:100C680087010117073086000A128A152D200A12FB
:100C78008A110A168A1161270A128A11831203132C
:100C8800071086138316031388010A128A15F8229F
:100C98000A128A11113083120313E70067088316BA
:100CA8000313B6000A168A1145270A128A110A1672
:100CB8008A114C270A128A110A168A116F270A12FA
:100CC8008A110A128A11E7270A128A11831203135A
:100CD800210883160313B500831203132008831613
:100CE8000313B400340883120313A00083160313FC
:100CF800350883120313A1000030A11BFF30A200A6
:100D0800A30001300A128A1567250A128A11831274
:100D180003132308E0002208DF002108DE00200872
:100D2800DD000A128A15ED200A128A1183120313B4
:100D3800600883160313B300831203135F08831636
:100D48000313B200831203135E0883160313B10062
:100D5800831203135D0883160313B000330883124C
:100D68000313DA0083160313320883120313D9001E
:100D780083160313310883120313D8008316031351
:100D8800300883120313D7000A128A159C220A120C
:100D98008A1183120313580883160313B8008312A9
:100DA8000313570883160313B7000A128A15BB20CA
:100DB8000A128A1183160313380883120313AA0030
:100DC80083160313370883120313A900A030E70022
:100DD8006708AB000A30AC000030AD000A128A1177
:100DE8001B270A128A11A03083120313E700670831
:100DF800AC008316031336080A128A1563210A12F7
:100E08008A11831603133A0883120313AA00831660
:100E18000313390883120313A9000A128A15AE2492
:100E28000A128A116400652E0A128A110E2883128A
:100E38000313BA01BB0129082A04031D242F252FF7
:100E4800912F3030AE002B0884002E0883138000C9
:100E58000130BA070318BB0A0030BB073A082B0752
:100E6800AE002E0884008001E62F2D08A1002C0872
:100E7800A0002A08A3002908A2000A128A15412204
:100E88000A128A11831203132108B5002008B4003E
:100E98003508803AFF0080307F02031D552F0A3045
:100EA80034020318582F592F642F83120313340860
:100EB800303EB20035080318013E003EB3006E2FE5
:100EC800831203133408373EB20035080318013E75
:100ED800003EB3003208AE003A082B07AF002F08D7
:100EE80084002E08831380000130BA070318BB0A58
:100EF8000030BB072D08A1002C08A0002A08A30079
:100F08002908A2000A128A155B230A128A11831281
:100F180003132108AA002008A90029082A04031D90
:100F2800962F972F392F3A082B07AE002E088400EA
:100F380083138001B601B7013A08FF3EB8003B08A9
:100F48000318013EFF3EB900D82F83120313360859
:100F58002B07AE002E08840083130008AF002F086B
:100F6800B10038082B07AE002E0884000008AF0037
:100F780036082B07B000300884002F08800031089D
:100F8800AE0038082B07AF002F0884002E08800019
:100F98000130B6070318B70A0030B707FF30B807A3
:100FA8000318B90AFF30B9073708803AAE00390884
:100FB800803A2E02031DE22F38083602031CE52F63
:100FC800E62FA92F08006400831203131F150230AF
:100FD80083120313A200A20BEF2F00008312031346
:100FE8001E08A200A3012208A4002308A5002508C2
:100FF800A1002408A0000800FF1B0A2883137F18FB
:1010080083170008840A0319FF0A080008308A00B9
:101018000408840A820700344D3445344E3455346C
:1010280020342D3420344F3442344A344534543437
:10103800493456344F3400344C3455345834203401
:1010480041345434553441344C343A3400340A343D
:101058000034831603131F109F141F159F15831246
:1010680003131F139F13831603131F139F139E014C
:10107800831203139E011F149F111F129F12080051
:1010880083120313061949284A286A280130F800F0
:101098000030F9006B08803AFF0083307F02031D9F
:1010A8005728E8306A0203185A285B2864280A304F
:1010B80083120313EA070318EB0A0030EB076A28C8
:1010C800E83083120313EA000330EB0008008312B0
:1010D800031386187028712891280130F600003013
:1010E800F7006B08803AFF0080307F02031D7E28DE
:1010F8000B306A02031C812882288B28F630831261
:101108000313EA070318EB0AFF30EB0791280A30AC
:1011180083120313EA000030EB0008008312031364
:10112800A800A401A5012008A200A3012208A60086
:101138002308A700281CA128A228A8282608A40755
:101148000318A50A2708A50701300310A60DA70D47
:10115800FF3E031DA9280310A80C2808031DB52865
:10116800B6289E282508A1002408A0000800E52824
:101178000A128A1544200A128A150A128A156B2047
:101188000A128A15831203136B08AA006A08A900B9
:101198003D30BC003C08AB000A30AC000030AD006C
:1011A8000A128A111B270A128A153D30831203136B
:1011B800BC003C08AC0001300A128A1563210A12EF
:1011C8008A1583120313861BEA28EB28BC2886138A
:1011D8000800433083120313C6007F30C500003077
:1011E800C4000030C3004030AC00A030AB00003079
:1011F800AA000030A9006008B0005F08AF005E08D0
:10120800AE005D08AD000A128A1149200A128A153B
:10121800831203132C08CA002B08C9002A08C80027
:101228002908C7000A128A1523260A128A1583126A
:1012380003134608E0004508DF004408DE004308C1
:10124800DD00080083120313A40024080F39A1004D
:101258002108A2002408F039A1002108A3000815DC
:101268002308A10004300310A10CFF3E031D3729F9
:1012780021080A168A11E0270A128A158312031315
:1012880088150C3083120313A100A10B4929000013
:1012980083120313881122080A168A11E0270A12FA
:1012A8008A158312031388150C3083120313A100C7
:1012B800A10B5C2900008312031388110800831214
:1012C8000313AF000A168A1154270A128A158312CB
:1012D8000313A401A40A01300A128A15E9210A128B
:1012E8008A15831203132F08A5000030031D8030D0
:1012F800A6000A128A15A3210A128A15831203135B
:10130800A401A40A02300A128A15E9210A128A15D0
:10131800831203132C08A5000030A6000A128A15B0
:10132800A3210A128A15823083120313AE00DD301E
:10133800AD00AD0B9D29AE0B9D29640008008312FA
:101348000313AA01AB01CC292A082507A8002608FF
:10135800A7000318A70AAA1FB229A7038312031319
:101368002708A9002908FF00280884000A128A15FE
:1013780000200A128A150A128A1526210A128A15CD
:10138800013083120313AA070318AB0A0030AB0716
:101398002A082507A8002608A7000318A70AAA1FD5
:1013A800D629A703831203132708A9002908FF00D9
:1013B800280884000A128A1500200A128A15003AA1
:1013C800031DE729E829A829080083120313A700A9
:1013D8002703031DF029F129162A24087F3EA500BA
:1013E8002508AA002A08A50004300310A50CFF3E12
:1013F800031DF9292508A6002608A8002A080F3980
:10140800A5002508A90028080A168A11A5270A1286
:101418008A158312031329080A168A11A5270A12A6
:101428008A15402A02302706031D1B2A1C2A402A37
:101438002408BF3EA5002508AA002A08A5000430F4
:101448000310A50CFF3E031D242A2508A600260824
:10145800A8002A080F39A5002508A90028080A1697
:101468008A11A5270A128A158312031329080A1656
:101478008A11A5270A128A15080083120313A601E8
:10148800A31F472A482A4F2AA209A309A20A031917
:10149800A30AA601A60AA11F522A532A582AA0095C
:1014A800A109A00A0319A10A2008210403195D2A29
:1014B8005E2A8D2AA501A50A6C2A01300310A00D09
:1014C800A10DFF3E031D622A0130A4002408A507D0
:1014D800A11F6F2A702A612A21082302031D762A78
:1014E80020082202031C792A7A2A802A2008A202CC
:1014F8002108031CA303A30201300310A10CA00CB4
:10150800FF3E031D812A0130A502031D8C2A8D2A66
:10151800702A26080319912A922A972AA209A30950
:10152800A20A0319A30A2308A1002208A0000800A0
:10153800C33083120313DE00E430DD005130DC00D9
:10154800EC30DB004430E2008730E100F530E000A9
:101558007130DF006208C6006108C5006008C40079
:101568005F08C3005A08AC005908AB005808AA0025
:101578005708A9005E08B0005D08AF005C08AE001F
:101588005B08AD000A128A1149200A128A158312D3
:1015980003132C08CA002B08C9002A08C800290808
:1015A800C7000A128A11AA230A128A158312031382
:1015B8004608E6004508E5004408E4004308E3005F
:1015C8006608A3006508A2006408A1006308A000DB
:1015D8000A128A1532240A128A1583120313210863
:1015E800D8002008D700080000300A168A11E02722
:1015F8000A128A151A3083120313A500F730A400C3
:10160800A40B042BA50B042B092B03300A168A11F3
:10161800A5270A128A15073083120313A5007C3008
:10162800A400A40B152BA50B152B000003300A16DC
:101638008A11A5270A128A150F3083120313A500F1
:101648004730A400A40B262BA50B262B03300A1623
:101658008A11A5270A128A1502300A168A11A527A7
:101668000A128A1502300A168A11A5270A128A1543
:1016780008300A168A11A5270A128A1500300A1698
:101688008A11A5270A128A150C300A168A11A5276D
:101698000A128A1500300A168A11A5270A128A1515
:1016A80006300A168A11A5270A128A15080083121D
:1016B8000313A601A11F612B622B692BA009A109A5
:1016C800A00A0319A10AA601A60AA31F6C2B6D2B59
:1016D800762BA209A309A20A0319A30A0130A400C0
:1016E8002408A606A701A8012008210403197D2BB8
:1016F8007E2BB52BA501A50A8C2B01300310A00D5C
:10170800A10DFF3E031D822B0130A4002408A5076C
:10171800A11F8F2B902B812B01300310A70DA80D33
:10172800FF3E031D912B21082302031D9D2B20083A
:101738002202031CA02BA12BA82B2008A2022108FF
:10174800031CA303A302271401300310A10CA00C4F
:10175800FF3E031DA92B0130A502031DB42BB52B99
:10176800902B26080319B92BBA2BBF2BA709A80958
:10177800A70A0319A80A2808A1002708A00008003A
:101788008312031306137A086A02F0007B08031C0D
:101798007B0A6B02F100831603133808803AF200C3
:1017A8007108803A7202031DDB2B70083702031898
:1017B800DE2BDF2BFA2B8312031306178316031372
:1017C8003A08803AFF0080307F02031DED2B643019
:1017D80039020318F02BF12B2B2C0A308316031334
:1017E800B9070318BA0A0030BA072B2C7A088312F3
:1017F80003136A07F0007B0803187B0A6B07F100E4
:101808007108803AF200831603133808803A72028E
:10181800031D102C370870020318132C142C2B2CC2
:10182800831603133A08803AFF0080307F02031DB5
:101838001F2C01303902031C222C232C2B2CF630B0
:1018480083160313B9070318BA0AFF30BA078316B9
:101858000313390883120313950008000310831239
:101868000313220D230DA4002408AA002A08031D2F
:101878003E2C3F2C482C0030A3000030A200003042
:10188800A1000030A000AD2C2008A4002108A5006C
:101898002208A6002308A7001F300310A70CA60CD7
:1018A800A50CA40CFF3E031D512C2408A8002808F1
:1018B800A900A217FF30A005FF30A105FF30A2053F
:1018C8000030A3059630AA02AA1F6B2C6C2C862C1C
:1018D8002A08803A973E0318722C732C742C3F2CDC
:1018E80001300310A30CA20CA10CA00CFF3E031D99
:1018F800752C0130A4002408AA07031D842C852C0C
:10190800742C9D2C20302A02031C8B2C8C2C982C98
:101918003F2C0130A4000310A00DA10DA20DA30DB2
:10192800A40B8F2C0130AA022A08031D9C2C9D2C85
:101938008D2C29080319A12CA22CAD2CA009A109D2
:10194800A209A309A00A0319A10A0319A20A0319E3
:10195800A30A0800643083120313A0000030A1001A
:101968002A08AC002908AB000310AB0DAC0D03101E
:10197800AB0DAC0D0310AB0DAC0D2B08A2002C0861
:10198800A3000A128A155B230A128A15831203130D
:101998002108AE002008AD0088100810871307132F
:1019A80087120712871187102E08803AFF008030AF
:1019B8007F02031DE12C01302D02031CE42CE52CD1
:1019C800E82C831203138814831203132E08803A19
:1019D800FF0080307F02031DF32C02302D02031C10
:1019E800F62CF72CFA2C8312031308148312031312
:1019F8002E08803AFF0080307F02031D052D03303A
:101A08002D02031C082D092D0C2D83120313871793
:101A1800831203132E08803AFF0080307F02031DD3
:101A2800172D04302D02031C1A2D1B2D1E2D831279
:101A380003130717831203132E08803AFF00803020
:101A48007F02031D292D05302D02031C2C2D2D2D61
:101A5800302D831203138716831203132E08803A3E
:101A6800FF0080307F02031D3B2D06302D02031C32
:101A78003E2D3F2D422D83120313071683120313A5
:101A88002E08803AFF0080307F02031D4D2D07305D
:101A98002D02031C502D512D542D8312031387152D
:101AA800831203132E08803AFF0080307F02031D43
:101AB8005F2D08302D02031C622D632D662D8312C5
:101AC80003138714080083120313A80028080319B6
:101AD8006E2D6F2D832DA31F722D732D832D20093D
:101AE800AA002109AB002209AC002309AD00AA0A0B
:101AF8000319AB0A0319AC0A0319AD0A8B2D230885
:101B0800AD002208AC002108AB002008AA00230879
:101B1800220421042004031D922D932D9C2D0030B6
:101B2800A3000030A2000030A1000030A000222E47
:101B38009630A4002408A900AE2D0130A400240882
:101B4800A90701300310AD0CAC0CAB0CAA0CFF3E7E
:101B5800031DA62DFE302D05031DB32DB42DA12D7B
:101B6800D02D0130A4002408A9070130AA070030AD
:101B780003180130AB07003003180130AC07003000
:101B880003180130AD0701300310AD0CAC0CAB0CE1
:101B9800AA0CFF3E031DC82DFF302D05031DD52DB2
:101BA800D62DB52DE22D0130A9020130A400031075
:101BB800AA0DAB0DAC0DAD0DA40BDB2DAC1BE52DAB
:101BC800E62DEC2D023029020318EB2DEC2DD72D34
:101BD8002918EF2DF02DF82DFF30AA05FF30AB05A1
:101BE8007F30AC05FF30AD050310A90C2908A4000F
:101BF800A501A601A70118300310A40DA50DA60D77
:101C0800A70DFF3E031D002E2408AA042508AB04D7
:101C18002608AC042708AD0428080319142E152E2D
:101C28001A2EA31F182E192E1A2EAD172D08A30031
:101C38002C08A2002B08A1002A08A0000800831283
:101C480003134A088039CB004B08D4004A08CB005C
:101C58004B07CC004C08DB00C91F332E342E352E21
:101C68005B145B080319392E3A2E4A2E5B0A031DB2
:101C78003E2E3F2E472E0030CA000030C9000030EB
:101C8800C8000030C700C917CA01522E0030CA0068
:101C98000030C9000030C8000030C700460880394D
:101CA800CB004B08D4064608CB004B07CC004C08A9
:101CB800DC00C51F602E612E622E5C145C080319BF
:101CC800662E672E772E5C0A031D6B2E6C2E742EE3
:101CD8000030C6000030C5000030C4000030C3002A
:101CE800C517C6017F2E0030C6000030C500003081
:101CF800C4000030C3004608450444044304031DDF
:101D0800862E872EA02E0030CA000030C900003071
:101D1800C8000030C7008030C9047F30CA045408A6
:101D2800CB004B08CA044A08C6004908C500480841
:101D3800C4004708C300FF2F5B08031DA42EA52E6F
:101D4800AE2E0030C6000030C5000030C4000030A0
:101D5800C300FF2F5B08CB00CC014C08CE005C0809
:101D68004B02CD00031CCE034D087F3ED5004E0824
:101D78000318013E003ED6004A08D3004908D200A5
:101D88004808D1004708D0000030CA000030C90018
:101D98000030C8000030C7000030DA000030D90039
:101DA8000030D8000030D700DC01242F5C0803196C
:101DB800DE2EDF2EFF2E0130CB000310D00DD10D0B
:101DC800D20DD30DCB0BE12E0130CB000310C70D84
:101DD800C80DC90DCA0DCB0BEA2EDA1FF42EF52E4D
:101DE800F62E47140130CB000310D70DD80DD90DAE
:101DF800DA0DCB0BF82E46085302031D0D2F4508AC
:101E08005202031D0D2F44085102031D0D2F4308D4
:101E18005002031C102F112F202F5A174308D002ED
:101E28004408031C440FD1024508031C450FD20285
:101E38004608031C460FD3020130CB004B08DC07D1
:101E48001A305C02031C292F2A2FDA2E5308520459
:101E5800510450040319312F322F512F5714512F89
:101E68000130CB000310C70DC80DC90DCA0DCB0B2F
:101E7800362FDA1F402F412F422F47140130CB0055
:101E88000310D70DD80DD90DDA0DCB0B442FFF3029
:101E9800D5070318D60AFF30D607C91F542F552F68
:101EA800342FDC01DA1F592F5A2F762FFF305705B0
:101EB800CB00FF305805CC00FF305905CD007F30EE
:101EC8005A05CE004E084D044C044B0403196D2FDF
:101ED8006E2F712FDC01DC0A762F471C742F752FAB
:101EE800762F6E2F5C0803197A2F7B2FAC2F0130C9
:101EF800C707003003180130C80700300318013045
:101F0800C907003003180130CA074A1C8C2F8D2FCF
:101F1800AC2F4708CB004808CC004908CD004A0838
:101F2800CE000130CF004E0DCE0CCD0CCC0CCB0C1E
:101F3800CF0B972F4E08CA004D08C9004C08C8009F
:101F48004B08C7000130D5070318D60A0030D6075A
:101F58005608803AFF0080307F02031DB52FFF30FE
:101F68005502031CB82FB92FC72FFF308312031354
:101F7800D5000030D6000030CA000030C90000305B
:101F8800C8000030C700831203135608803AFF00C8
:101F980080307F02031DD22F013055020318D52F40
:101FA800D62FE32F83120313D501D6010030CA00C0
:101FB8000030C9000030C8000030C700D4018312C7
:101FC80003135508CB004B08DB005B1CEC2FED2FEF
:101FD800EF2FC917F32F7F30CB004B08C9055B08DB
:101FE800CB0003104B0CCC004C08CA005408CB00A3
:081FF8004B08CA04972E0800F3
:102E820032340034903401348316031301138B1748
:102E92000B168B1008008316031381150110811481
:102EA20001156400080000300A168A11A5270A16C7
:102EB2008A1101300A168A11A5270A168A110800FA
:102EC2000F308312031397006430831603139200AA
:102ED2003908831203139500121508008B170B177C
:102EE200831603130C1483120313901010169016FA
:102EF200E7308F0096308E001014080083120313FF
:102F02000C1C842F852F912F0A128A15C4230A16AE
:102F12008A11831203130C10E7308F0096308E0053
:102F220008000A168A11C1270A168A110A168A117E
:102F32007F270A168A117508FF0074088A00730E2B
:102F42008300FE0E7E0E090083120313A3000811F4
:102F520023080A168A11E0270A168A11831203131C
:102F62008815063083120313A2002F30A100A10B93
:102F7200B82FA20BB82FBD2F83120313881108009C
:102F82008B1CC42FC52FDF2F83120313861FCA2F5A
:102F9200CB2FDD2F861307140230F2008630F100AA
:102FA2009930F000F00BD32FF10BD32FF20BD32F6C
:102FB200831203130710DE2F86178B10080083126B
:102FC2000313A000201CE62FE72FE92F0816EA2F93
:102FD2000812A01CED2FEE2FF02F8816F12F881269
:102FE200201DF42FF52FF72F0817F82F0813A01D17
:0E2FF200FB2FFC2FFE2F8817FF2F88130800DF
:08400000FF3FFF3FFF3FFF3FC0
:02400E00B23FBF
:00000001FF
