:020000040000FA
:060000000A128A110E280D
:10000800FE00030EF3000A08F4007F08F5000A1644
:100018008A11D6280A128A111128831603170A1280
:100028008A1504200A128A11C3000A128A150520AB
:100038000A128A11C4000A128A11FB270A128A11AD
:10004800F6000A128A11FC270A128A11F7000A120E
:100058008A11FD270A128A11F8000A128A11FE274E
:100068000A128A11F900C101C20183160313E001C3
:10007800E101E201E301E401E501FA01FB01830189
:100088000A128A15C5298312031336088039C0005D
:100098003608BB003B07C600B51F5328542855280F
:1000A80046144608031959285A286928460A031D80
:1000B8005E285F2867280030B6000030B5000030A1
:1000C800B4000030B300B51771280030B600003016
:1000D800B5000030B4000030B3003A088039FF00A2
:1000E8007F08C0063A08BB003B07C100B91F7D283E
:1000F8007E287F28411441080319832884289328DF
:10010800410A031D8828892891280030BA00003048
:10011800B9000030B8000030B700B9179B2800308C
:10012800BA000030B9000030B8000030B70041080C
:1001380003199F28A028A5284608031DA428A52838
:10014800AE280030B6000030B5000030B4000030F2
:10015800B3008B2B3308A00039080A128A15062031
:100168000A128A11831203132108CC002008CB003D
:100178004B08BB00BC01BD01BE013E08C5003D08DF
:10018800C4003C08C3003B08C2004C08BB00BC01CB
:10019800BD01BE013E08CA003D08C9003C08C800B0
:1001A8003B08C7003408A00038080A128A15062040
:1001B8000A128A11831203132108CC002008CB00ED
:1001C8004B08BB00BC01BD01BE013B08C2073C088F
:1001D80003110318013E0319F228C3073D08031150
:1001E8000318013E0319F928C4073E080311031830
:1001F800013E03190029C5074C08BB00BC01BD011D
:10020800BE013B08C7073C0803110318013E031948
:100218000E29C8073D0803110318013E03191529C3
:10022800C9073E0803110318013E03191C29CA0710
:100238003508A00037080A128A1506200A128A1102
:10024800831203132108CC002008CB004B08BB0005
:10025800BC01BD01BE013B08C2073C0803110318DD
:10026800013E03193829C3073D0803110318013E4D
:1002780003193F29C4073E0803110318013E031957
:100288004629C5074C08BB00BC01BD01BE013B089F
:10029800C7073C0803110318013E03195429C8076E
:1002A8003D0803110318013E03195B29C9073E08DD
:1002B80003110318013E03196229CA070830BB005D
:1002C8000310C20DC30DC40DC50DBB0B6429340842
:1002D800A00037080A128A1506200A128A1183120A
:1002E80003132108CC002008CB004B08BB004C08A6
:1002F800BC00BD01BE013B08C2073C08031103183E
:10030800013E03198829C3073D0803110318013E5C
:1003180003198F29C4073E0803110318013E031966
:100328009629C5073308A00038080A128A1506203E
:100338000A128A11831203132108CC002008CB006B
:100348004B08BB004C08BC00BD01BE013B08C207FE
:100358003C0803110318013E0319B329C3073D08DC
:1003680003110318013E0319BA29C4073E080311F3
:100378000318013E0319C129C5070830BB00031043
:10038800C20DC30DC40DC50DBB0BC3293308A00096
:1003980037080A128A1506200A128A1183120313D3
:1003A8002108CC002008CB004B08BB004C08BC003F
:1003B800BD01BE013B08C2073C0803110318013EFA
:1003C8000319E729C3073D0803110318013E031960
:1003D800EE29C4073E0803110318013E0319F52945
:1003E800C5073408A00039080A128A1506200A121F
:1003F8008A11831203132108CC002008CB004B0874
:10040800BB004C08BC00BD01BE013B08C7073C0847
:1004180003110318013E0319122AC8073D080311E6
:100428000318013E0319192AC9073E0803110318C6
:10043800013E0319202ACA073508A00038080A1205
:100448008A1506200A128A11831203132108CC0088
:100458002008CB004B08BB004C08BC00BD01BE0106
:100468003B08C7073C0803110318013E03193D2A3E
:10047800C8073D0803110318013E0319442AC90798
:100488003E0803110318013E03194B2ACA07350811
:10049800A00039080A128A1506200A128A11831246
:1004A80003132108CC002008CB004B08BB004C08E4
:1004B800BC00BD01BE0108300310BB0DBC0DBD0D55
:1004C800BE0DFF3E031D602A3B08C7073C08031109
:1004D8000318013E0319712AC8073D0803110318C0
:1004E800013E0319782AC9073E0803110318013E83
:1004F80003197F2ACA074208BB004308BC00440806
:10050800BD004508BE0018300310BE0CBD0CBC0C65
:10051800BB0CFF3E031D882A3B08C7073C08031194
:100528000318013E0319992AC8073D080311031847
:10053800013E0319A02AC9073E0803110318013E0A
:100548000319A72ACA070830BB000310C20DC30D40
:10055800C40DC50DBB0BA92A46084107BB00BC0149
:10056800BC0D3B08823ECB003C080318013EFF3E11
:10057800CC00DB2A0130BB000310C70DC80DC90D24
:10058800CA0DBB0BC02AC51FCA2ACB2ACC2A4714BE
:100598000130BB000310C20DC30DC40DC50DBB0B4C
:1005A800CE2AFF30CB070318CC0AFF30CC07C91F6F
:1005B800DE2ADF2ABE2AC101C51FE32AE42A002B4E
:1005C800FF304205BB00FF304305BC00FF30440547
:1005D800BD007F304505BE003E083D043C043B0499
:1005E8000319F72AF82AFB2AC101C10A002B471C64
:1005F800FE2AFF2A002BF82A41080319042B052B91
:10060800362B0130C707003003180130C807003007
:1006180003180130C907003003180130CA074A1C03
:10062800162B172B362B4708BB004808BC00490877
:10063800BD004A08BE000130BF003E0DBE0CBD0C17
:10064800BC0CBB0CBF0B212B3E08CA003D08C900DF
:100658003C08C8003B08C7000130CB070318CC0A88
:100668000030CC074C08803AFF0080307F02031D21
:100678003F2BFF304B02031C422B432B4E2B7F306A
:1006880083120313CA008030C9000030C80000304C
:10069800C7007F2B831203134C08803AFF00803079
:1006A8007F02031D592B01304B0203185C2B5D2B75
:1006B800692B003083120313CA000030C9000030D0
:1006C800C8000030C700C0017F2B831203134B08FA
:1006D800C600FF30C705FF30C8057F30C9050030A8
:1006E800CA05461C782B792B7A2BC9174608BB00FC
:1006F80003103B0CCA004008FF007F08CA044A08E0
:10070800B6004908B5004808B4004708B300080017
:10071800831603135F0883120313BA0083160313A7
:100728005E0883120313B900831603135D0883124E
:100738000313B800831603135C0883120313B7006E
:100748004630B6001C30B5004030B4000030B3006D
:100758000A128A1147200A128A11831203133608D3
:1007680083160313BF00831203133508831603137C
:10077800BE0083120313340883160313BD008312CB
:100788000313330883160313BC004030B700A030AE
:10079800B6000030B5000030B4005F08B3005E0852
:1007A800B2005D08B1005C08B0000A168A11EA229E
:1007B8000A128A11831603133308BB003208BA00E1
:1007C8003108B9003008B8000A128A15D9230A126C
:1007D8008A11831603133B08D5003A08D400390858
:1007E800D3003808D2000A168A112B260A128A1159
:1007F80083160313530883160317A50083160313E0
:10080800520883160317A400413083160313AB0064
:100818001030AA000030A9000030A8000A168A117A
:10082800E3230A128A11831603132B08B3002A083C
:10083800B2002908B1002808B0004030AB00803071
:10084800AA000030A9000030A8000A168A11E32384
:100858000A128A11831603132B08B7002A08B60058
:100868002908B5002808B4000A168A11EA220A12D3
:100878008A11831603133308831603179700831608
:1008880003133208831603179600831603133108DF
:10089800831603179500831603133008831603176E
:1008A8009400443083160313BB007730BA008030BD
:1008B800B9000030B800BF3083120313D000803075
:1008C800CF000030CE000030CD0083160317170884
:1008D80083120313D4008316031716088312031315
:1008E800D30083160317150883120313D200831647
:1008F8000317140883120313D1000A128A15A825B6
:100908000A128A1183120313500883160313BF00B7
:10091800831203134F0883160313BE0083120313B5
:100928004E0883160313BD00831203134D08831664
:100938000313BC000A128A15D9230A128A118316D6
:1009480003133B0883160317A900831603133A08F9
:1009580083160317A8008316031339088316031791
:10096800A70083160313380883160317A600240864
:1009780083120313A0008316031725088312031399
:10098800A1000030A11BFF30A200A30001300A1211
:100998008A152F200A128A1183120313230883163B
:1009A80003179B00831203132208831603179A0068
:1009B8008312031321088316031799008312031364
:1009C8002008831603179800433083160313AB00DF
:1009D800C830AA000030A9000030A8000A168A1101
:1009E800E3230A128A11831603132B08B3002A087B
:1009F800B2002908B1002808B000831603171B08A5
:100A080083160313AB00831603171A088316031300
:100A1800AA0083160317190883160313A90083165F
:100A28000317180883160313A8000A168A11E3236C
:100A38000A128A11831603132B08B7002A08B60076
:100A48002908B5002808B4000A168A11EA220A12F1
:100A58008A11831603133308831603179F0083161E
:100A680003133208831603179E00831603133108F5
:100A7800831603179D008316031330088316031784
:100A88009C00443083120313B6007A30B50000305E
:100A9800B4000030B3008316031729088312031328
:100AA800BA0083160317280883120313B9008316A4
:100AB8000317270883120313B800831603172608A1
:100AC80083120313B7000A128A1147200A128A11E7
:100AD800831203133608D0003508CF003408CE003F
:100AE8003308CD00831603171F0883120313D4009D
:100AF800831603171E0883120313D30083160317E4
:100B08001D0883120313D200831603171C088312CF
:100B18000313D1000A128A15A8250A128A11831212
:100B28000313500883160317A300831203134F08F7
:100B380083160317A200831203134E0883160317A4
:100B4800A100831203134D0883160317A000290878
:100B580083160313BB008316031728088316031391
:100B6800BA0083160317270883160313B9008316E0
:100B78000317260883160313B8003F30BF008030E0
:100B8800BE000030BD000030BC000A128A15D9230F
:100B98000A128A11831603133B0883120313B60043
:100BA800831603133A0883120313B500831603133D
:100BB800390883120313B400831603133808831209
:100BC8000313B30083160317230883120313BA0011
:100BD80083160317220883120313B9008316031719
:100BE800210883120313B800831603172008831201
:100BF8000313B7000A128A1147200A128A118312B6
:100C0800031336088316031793008312031335085A
:100C180083160317920083120313340883160317ED
:100C280091008312031333088316031790001308E7
:100C380083160313D50083160317120883160313AC
:100C4800D40083160317110883160313D3008316E1
:100C58000317100883160313D2000A168A112B26CD
:100C68000A128A11831603135308DD005208DC00A8
:100C7800080083160313270883120313A30083169F
:100C88000313260883120313A200831603132508EF
:100C980083120313A100831603132408831203137A
:100CA800A0000030A7000030A6000030A5000030EA
:100CB800A4000A168A11A3260A128A110318652E9F
:100CC800662E752E213083160313E0000030E100F4
:100CD8000030A7000030A6000030A5000030A400B6
:100CE800BA2F83160313270883120313A30083164E
:100CF8000313260883120313A2008316031325087F
:100D080083120313A1008316031324088312031309
:100D1800A0000030A7000030A6000030A500003079
:100D2800A4000A168A113A230A128A11031C9D2E5E
:100D38009E2EAD2E223083160313E0000030E10012
:100D48000030A7000030A6000030A5000030A40045
:100D5800BA2FBF3083120313D0008030CF00003089
:100D6800CE000030CD004030B6000030B500003075
:100D7800B4000030B3006D30B000831603132708A9
:100D880083120313AF008316031326088312031379
:100D9800AE0083160313250883120313AD008316D0
:100DA8000313240883120313AC000A168A1197242C
:100DB8000A128A11831203132F08BA002E08B900E9
:100DC8002D08B8002C08B7000A128A1147200A1209
:100DD8008A11831203133608D4003508D300340867
:100DE800D2003308D1000A128A15A8250A128A11DE
:100DF80083120313500883160313A70083120313E7
:100E08004F0883160313A600831203134E08831694
:100E18000313A500831203134D0883160313A400BC
:100E2800FF3083120313ED070318EE0AFF30EE07B5
:100E380083160313270883120313E400831603138E
:100E4800260883120313E30083160313250883126D
:100E58000313E20083160313240883120313E1002B
:100E68000130E5000830E6000030E7000A128A1574
:100E7800E9200A128A1183120313640883160313E4
:100E8800A70083120313630883160313A6008312B3
:100E98000313620883160313A50083120313610862
:100EA80083160313A400270883120313D0008316A4
:100EB8000313260883120313CF0083160313250890
:100EC80083120313CE00831603132408831203131B
:100ED800CD003F30B6003130B5007230B400183064
:100EE800B3006D08A0006E08A1000030A11BFF3000
:100EF800A200A30001300A128A152F200A128A11B3
:100F0800831203132308BA002208B9002108B80085
:100F18002008B7000A128A1147200A128A11831280
:100F280003133608D4003508D3003408D200330838
:100F3800D1000A128A15A8250A128A1183120313EE
:100F4800500883160313A700831203134F08831650
:100F58000313A600831203134E0883160313A50078
:100F6800831203134D0883160313A4000800831289
:100F78000313B0000A168A1196200A128A118312E6
:100F88000313A401A40A01300A168A119E220A1228
:100F98008A11831203133008A5000030031D803026
:100FA800A6000A168A1158220A128A1183120313FC
:100FB800A401A40A02300A168A119E220A128A1172
:100FC800831203132C08A5002D08A6000A168A11FF
:100FD80058220A128A11823083120313AF00DD30BF
:100FE800AE00AE0BF52FAF0BF52F640008000A34E6
:060FF800003490340134C6
:101008003234003483120313A800A401A501200878
:10101800A200A3012208A6002308A700281C15285F
:1010280016281C282608A4070318A50A2708A507B8
:1010380001300310A60DA70DFF3E031D1D28031048
:10104800A80C2808031D29282A2812282508A100E9
:101058002408A000080083120313A8002808031915
:10106800362837284B28A31F3A283B284B28200925
:10107800AA002109AB002209AC002309AD00AA0A85
:101088000319AB0A0319AC0A0319AD0A532823083C
:10109800AD002208AC002108AB002008AA002308F4
:1010A800220421042004031D5A285B2864280030E8
:1010B800A3000030A2000030A1000030A000E82802
:1010C8009630A90074280130FF007F08A907013075
:1010D8000310AD0CAC0CAB0CAA0CFF3E031D6C2826
:1010E800FE302D05031D79287A28672896280130B7
:1010F800FF007F08A9070130AA0700300318013054
:10110800AB07003003180130AC070030031801307A
:10111800AD0701300310AD0CAC0CAB0CAA0CFF3EB4
:10112800031D8E28FF302D05031D9B289C287B2836
:10113800A8280130A9020130A4000310AA0DAB0DA4
:10114800AC0DAD0DA40BA128AC1BAB28AC28B22864
:10115800023029020318B128B2289D282918B52879
:10116800B628BE28FF30AA05FF30AB057F30AC0596
:10117800FF30AD050310A90C2908A400A501A6019C
:10118800A70118300310A40DA50DA60DA70DFF3E4D
:10119800031DC6282408AA042508AB042608AC04A5
:1011A8002708AD0428080319DA28DB28E028A31F3C
:1011B800DE28DF28E028AD172D08A3002C08A200A0
:1011C8002B08A1002A08A000080083120313660850
:1011D800E80001300310E80DFF3E031DEE28031060
:1011E800680D650784000A168A110A200A128A15F2
:1011F800E9000A168A110A200A128A15EA000A1654
:101208008A110A200A128A15EB000A168A110A2086
:101218000A128A15EC006C0883160313A3008312C4
:1012280003136B0883160313A200831203136A08BF
:1012380083160313A100831203136908831603138B
:10124800A000A429FF30E6070318E70AFF30E707E4
:101258006608E80001300310E80DFF3E031D2F2942
:101268000310680D650784000A168A110A200A12FD
:101278008A15E9000A168A110A200A128A15EA0054
:101288000A168A110A200A128A15EB000A168A1110
:101298000A200A128A15EC006C08D0006B08CF00EF
:1012A8006A08CE006908CD00831603132308831249
:1012B8000313B60083160313220883120313B50021
:1012C80083160313210883120313B4008316031330
:1012D800200883120313B3006408BA006308B90036
:1012E8006208B8006108B7000A128A1147200A127A
:1012F8008A15831203133608D4003508D30034083E
:10130800D2003308D1000A128A15A8250A128A15B4
:1013180083120313500883160313A30083120313C5
:101328004F0883160313A200831203134E08831673
:101338000313A100831203134D0883160313A0009F
:101348008312031366086704031DAB29AC292629F9
:1013580083160313230883120313E400831603136D
:10136800220883120313E300831603132108831250
:101378000313E20083160313200883120313E1000A
:1013880008008316031387010117073086000A1621
:101398008A11E9200A128A150A168A11A3200A124C
:1013A8008A158316031388010A168A11F3240A1270
:1013B8008A15353083160317C0000A168A1187204C
:1013C8000A128A150A168A118E200A128A150A1616
:1013D8008A11B3200A128A150A168A1100210A12E4
:1013E8008A1583120313210883160317BF0083127B
:1013F8000313200883160317BE003E088312031345
:10140800A000831603173F0883120313A1000030BE
:10141800A11BFF30A200A30001300A128A152F2059
:101428000A128A1583120313230883160313D5009F
:1014380083120313220883160313D40083120313A1
:10144800210883160313D30083120313200883167D
:101458000313D2000A168A118A230A128A158316E0
:101468000313550883160317BD0083160313540886
:1014780083160317BC008316031353088316031738
:10148800BB0083160313520883160317BA003D08DE
:1014980083160313DF00831603173C088316031310
:1014A800DE00831603173B0883160313DD0083163B
:1014B80003173A0883160313DC000A128A118C23D7
:1014C8000A128A15831603135D0883160317C200D0
:1014D800831603135C0883160317C1000A168A11C2
:1014E800E8210A128A158316031742088312031388
:1014F800A90083160317410883120313A800AA3012
:10150800AA000130AB000A30AC000030AD000A126E
:101518008A15B4220A128A15AA3083120313AC0062
:101528000130AD008316031740080A128A11BB2741
:101538000A128A1583160317440883120313A90095
:1015480083160317430883120313A8000A168A1187
:1015580047270A128A156400F0290A128A110E28F0
:1015680083120313BD01BE0128082904031DBD2AE7
:10157800BE2A432B2A08840083172B1C8313303080
:1015880080000130BD070318BE0A0030BE073D08C1
:101598002A07AF002B08AE000318AE0ABD1FD52AD4
:1015A800AE03831203132E08B0002F08840083179C
:1015B800301C83138001D82B2D08A1002C08A00013
:1015C8002908A3002808A2000A168A113C240A1236
:1015D8008A15831203132108B8002008B7003808B9
:1015E800803AFF0080307F02031DFC2A0A30370250
:1015F8000318FF2A002B0B2B831203133708303EE6
:10160800B50038080318013E003EB600152B8312BA
:1016180003133708373EB50038080318013E003E6B
:10162800B6003D082A07AF002B08AE000318AE0A23
:10163800BD1F1F2BAE03831203132E08B0002F0803
:1016480084008317301C8313350880000130BD07E0
:101658000318BE0A0030BE072D08A1002C08A00000
:101668002908A3002808A2000A168A1156250A127A
:101678008A15831203132108A9002008A800280846
:101688002904031D482B492BE02A3D082A07AF00EF
:101698002B08AE000318AE0ABD1F532BAE038312EE
:1016A80003132E08B0002F0884008317301C8313FF
:1016B8008001B901BA013D08FF3EBB003E0803188E
:1016C800013EFF3EBC00CA2B8312031339082A07C8
:1016D800AF002B08AE000318AE0AB91F742BAE0377
:1016E800831203132E08B0002F0884008317301CC0
:1016F80083130008B4003B082A07AF002B08AE008C
:101708000318AE0ABB1F892BAE03831203132E08DE
:10171800B0002F0884008317301C83130008FF00D3
:1017280039082A07B2002B08B1000318B10AB91FFB
:101738009E2BB103831203133108B30032088400CF
:101748008317331C83137F0880003B082A07AF00E8
:101758002B08AE000318AE0ABB1FB32BAE038312CF
:1017680003132E08B0002F0884008317301C83133E
:10177800340880000130B9070318BA0A0030BA07E4
:10178800FF30BB070318BC0AFF30BC073A08803A91
:10179800AE003C08803A2E02031DD42B3B083902C8
:1017A800031CD72BD82B682B0800831603133F087C
:1017B8008039C9003F08C0004007D000BE1FE52B94
:1017C800E62BE72B501450080319EB2BEC2BFC2BC2
:1017D800500A031DF02BF12BF92B0030BF0000300D
:1017E800BE000030BD000030BC00BE17BF01042C95
:1017F8000030BF000030BE000030BD000030BC002B
:101808003B088039FF007F08C9063B08C000400735
:10181800D100BA1F102C112C122C51145108031985
:10182800162C172C272C510A031D1B2C1C2C242C7E
:101838000030BB000030BA000030B9000030B800FA
:10184800BA17BB012F2C0030BB000030BA000030A3
:10185800B9000030B8003B083A0439043804031DC5
:10186800362C372C502C0030BF000030BE00003022
:10187800BD000030BC008030BE047F30BF04490882
:10188800FF007F08BF043F08BB003E08BA003D08C0
:10189800B9003C08B800A72D5008031D542C552C3E
:1018A8005E2C0030BB000030BA000030B9000030B8
:1018B800B800A72D5008C000C1014108C300510855
:1018C8004002C200031CC30342087F3ECA0043080B
:1018D8000318013E003ECB003F08C8003E08C70081
:1018E8003D08C6003C08C5000030BF000030BE00FF
:1018F8000030BD000030BC000030CF000030CE000A
:101908000030CD000030CC00D101D42C510803198F
:101918008E2C8F2CAF2C0130C0000310C50DC60DC6
:10192800C70DC80DC00B912C0130C0000310BC0DB1
:10193800BD0DBE0DBF0DC00B9A2CCF1FA42CA52C1E
:10194800A62C3C140130C0000310CC0DCD0DCE0DDB
:10195800CF0DC00BA82C3B084802031DBD2C3A082C
:101968004702031DBD2C39084602031DBD2C38084B
:101978004502031CC02CC12CD02C4F173808C502B7
:101988003908031C390FC6023A08031C3A0FC7026C
:101998003B08031C3B0FC8020130FF007F08D1073A
:1019A8001A305102031CD92CDA2C8A2C4808470417
:1019B800460445040319E12CE22C012D4C14012D99
:1019C8000130C0000310BC0DBD0DBE0DBF0DC00B16
:1019D800E62CCF1FF02CF12CF22C3C140130C00067
:1019E8000310CC0DCD0DCE0DCF0DC00BF42CFF3058
:1019F800CA070318CB0AFF30CB07BE1F042D052DDD
:101A0800E42CD101CF1F092D0A2D262DFF304C05BE
:101A1800C000FF304D05C100FF304E05C2007F30C9
:101A28004F05C300430842044104400403191D2D17
:101A38001E2D212DD101D10A262D3C1C242D252D0A
:101A4800262D1E2D510803192A2D2B2D5C2D013012
:101A5800BC07003003180130BD07003003180130FF
:101A6800BE07003003180130BF073F1C3C2D3D2D39
:101A78005C2D3C08C0003D08C1003E08C2003F087C
:101A8800C3000130C400430DC30CC20CC10CC00C10
:101A9800C40B472D4308BF004208BE004108BD00E3
:101AA8004008BC000130CA070318CB0A0030CB0736
:101AB8004B08803AFF0080307F02031D652DFF3000
:101AC8004A02031C682D692D772DFF3083160313F6
:101AD800CA000030CB000030BF000030BE0000302C
:101AE800BD000030BC00831603134B08803AFF008A
:101AF80080307F02031D822D01304A020318852D94
:101B0800862D932D83160313CA01CB010030BF0025
:101B18000030BE000030BD000030BC00C901831693
:101B280003134A08D000501C9A2D9B2D9D2DBE17DB
:101B3800A12D7F30FF007F08BE055008C0000310AC
:101B4800400CBF00432C080083120313500880394F
:101B5800DD005008D5005507DF00CF1FB42DB52D87
:101B6800B62D5F145F080319BA2DBB2DCB2D5F0A64
:101B7800031DBF2DC02DC82D0030D0000030CF0070
:101B88000030CE000030CD00CF17D001D32D00306B
:101B9800D0000030CF000030CE000030CD00540817
:101BA8008039DE005E085D060319DB2DDC2DDD2D96
:101BB8005D175408D5005507DE00D31FE42DE52D29
:101BC800E62D5E145E080319EA2DEB2DFB2D5E0A47
:101BD800031DEF2DF02DF82D0030D4000030D30078
:101BE8000030D2000030D100D317D401032E0030CA
:101BF800D4000030D3000030D2000030D1005F089C
:101C08005E020318082E092E2F2E5D1F0C2E0D2E96
:101C1800112E8030FF007F08DD065F08E0005E08B7
:101C2800DF006008DE004D08E0005108CD006008C4
:101C3800D1004E08E0005208CE006008D2004F08DC
:101C4800E0005308CF006008D3005008E0005408B3
:101C5800D0006008D400E0015E08D500D60156081F
:101C6800D8005F085502D700031CD8035808803AEB
:101C7800FF0080307F02031D432E1A305702031CD9
:101C8800462E472E7E2E8312031350084F044E040F
:101C98004D04031D502E522E0130532E0030E0000B
:101CA8000030D0000030CF000030CE000030CD0032
:101CB8005E08DF00862E601C622E632E6A2E600886
:101CC800D5000310550C0138E0006C2E0310E00C11
:101CD8004D1C6F2E702E712EE0170130D500500D5F
:101CE800D00CCF0CCE0CCD0CD50B732E0130FF00D1
:101CF8007F08DF07831203135E085F02031C852E2B
:101D0800862E5F2E5D1B892E8A2ED32E5F08031D1B
:101D18008E2E8F2E982E0030D0000030CF0000304D
:101D2800CE000030CD00FF2F5108CD075208031117
:101D38000318013E0319A12ECE07530803110318F7
:101D4800013E0319A82ECF07540803110318013EBA
:101D58000319AF2ED007501CB22EB32E872F601C4C
:101D6800B62EB72EBE2E6008D5000310550C0138CC
:101D7800E000C02E0310E00C4D1CC32EC42EC52E4F
:101D8800E0170130D500500DD00CCF0CCE0CCD0C87
:101D9800D50BC72E0130FF007F08DF07872F5008BB
:101DA800803AFF005408803A7F02031DE52E53084D
:101DB8004F02031DE52E52084E02031DE52E510861
:101DC8004D020318E82EE92E412FFF30D500FF30D1
:101DD800D600FF30D700FF30D8005108D90052088C
:101DE800DA005308DB005408DC004D08D9024E081D
:101DF800031C4E0F002F012FDA024F08031C4F0F50
:101E0800062F072FDB025008031C500F0C2F0D2F35
:101E1800DC025908D5075A0803185A0F142F152F32
:101E2800D6075B0803185B0F1A2F1B2FD7075C0810
:101E380003185C0AD8075808D0005708CF0056087E
:101E4800CE005508CD008030FF007F08DD06E00990
:101E5800E00A6008031D312F322F4F2F0130CD07C4
:101E6800003003180130CE07003003180130CF07C7
:101E7800003003180130D0074F2F5108CD02520807
:101E8800031C520FCE025308031C530FCF025408F1
:101E9800031C540FD00250084F044E044D04031D78
:101EA800562F572F832F6008031D5B2F5C2F832F1E
:101EB8000030D0000030CF000030CE000030CD0020
:101EC800FF2F0130D5000310CD0DCE0DCF0DD00D55
:101ED800D50B672FE01F712F722F732F4D14601CC5
:101EE800762F772F7A2F0314E00D7C2F0310E00D47
:101EF8005F080319802F812F832F0130DF02CF1F46
:101F0800862F872F652FDE01E01F8B2F8C2F9A2FAE
:101F180060087F390319912F922F952FDE01DE0A71
:101F28009A2F4D1C982F992F9A2F922F5E080319DC
:101F38009E2F9F2FD32F0130CD070030031801307B
:101F4800CE07003003180130CF07003003180130E6
:101F5800D007501CB02FB12FD32F4D08D5004E08F5
:101F6800D6004F08D7005008D8000130D900580DC6
:101F7800D80CD70CD60CD50CD90BBB2F5808D000D1
:101F88005708CF005608CE005508CD005F0A031940
:101F9800CE2FCF2FD32F0130FF007F08DF075F0A36
:101FA8000319D72FD82FDD2F5F08031DDC2FDD2F56
:101FB800EB2F0030D0000030CF000030CE000030D2
:101FC800CD005F08031DE92FEA2FEB2FDD015F1C11
:101FD800EE2FEF2FF12FCF17F52F7F30FF007F085F
:101FE800CF055F08D5000310550CD000DD1FFD2F6D
:101FF800FE2FFF2FD0170800FF1B0A2883137F1816
:1020080083170008840A0319FF0A080010308A00A1
:102018000408840A82070034003400340034003491
:10202800C434FF347F343F348034EF34FF34BE345B
:102038009034E134A9343E34EC3482347634BE34FE
:102048008234AD342B343E340E343C34C334BD3486
:102058008734D13413343D3441347834D334BB34E9
:102068004D3445344E34553420342D3420344F34D7
:1020780042344A3445345434493456344F340034A5
:102088004C34553458342034413454345534413464
:062098004C343A34003420
:10210E008316031301138B170B168B1008008316FF
:10211E0003138115011081140115640008000030AD
:10212E000A168A1119210A168A1101300A168A1105
:10213E0019210A168A1108000F3083120313970013
:10214E006430831603139200831603174308831219
:10215E0003139500121508008B170B178316031324
:10216E000C1483120313901010169016E7308F0084
:10217E0096308E0010140800831203130C1CC8280E
:10218E00C928D5280A168A11BF250A168A11831264
:10219E0003130C10E7308F0096308E0008000A16DD
:1021AE008A1155210A168A110A168A11C3200A1697
:1021BE008A117508FF0074088A00730E8300FE0EE4
:1021CE007E0E0900831603131F109F141F159F15F3
:1021DE00831203131F139F13831603131F139F13CF
:1021EE009E01831203139E011F149F111F129F1233
:1021FE0008006400831203131F15023083120313A9
:10220E00A200A20B08290000831203131E08A200CD
:10221E00A3012208A4002308A5002508A100240874
:10222E00A000080083120313A300081123080A1646
:10223E008A1135210A168A11831203138815063066
:10224E0083120313A2002F30A100A10B2C29A20B85
:10225E002C293129831203138811080083120313CA
:10226E00A000201C3B293C293E2908163F290812B4
:10227E00A01C422943294529881646298812201D6B
:10228E0049294A294C2908174D290813A01D502900
:10229E005129532988175429881308008B1C582953
:1022AE00592979297A087B0403195E295F29742933
:1022BE00FA01FB018312031307140230F200863079
:1022CE00F1009930F000F00B6A29F10B6A29F20B3C
:1022DE006A2983120313071078290130FA0000309F
:1022EE00FB008B1008008316031364086504031D9E
:1022FE0081298229A7298312031306198729882980
:10230E00A729013083160313E4000030E500790895
:10231E00803AFF0083307F02031D9729E830780250
:10232E0003189A299B29A2290A30F8070318F90ADB
:10233E000030F907B029E830F8000330F900B02971
:10234E008312061DAB29AC29B02983160313E401B1
:10235E00E50108008316031362086304031DB82900
:10236E00B929DE29831203138618BE29BF29DE2957
:10237E00013083160313E2000030E3007908803A3F
:10238E00FF0080307F02031DCE290B307802031C24
:10239E00D129D229D929F630F8070318F90AFF30C6
:1023AE00F907E7290A30F8000030F900E72983120F
:1023BE00861CE229E329E72983160313E201E301D0
:1023CE000800831203138617152A0A168A117A211A
:1023DE000A168A110A168A11B1210A168A1179086B
:1023EE0083120313A9007808A8003F30AA0000301A
:1023FE00AB000A30AC000030AD000A128A15B422D0
:10240E000A168A113F3083120313AC000030AD0060
:10241E0025300A128A11BB270A168A117A087B0404
:10242E00031D1A2A1B2AEC29831203138613080094
:10243E0083120313A40024080F39A2002408F039D4
:10244E00A30008152308A10004300310A10CFF3EC1
:10245E00031D2C2A21080A168A1135210A168A1103
:10246E008312031388150C3083120313A100A10BE2
:10247E003E2A000083120313881122080A168A11BD
:10248E0035210A168A118312031388150C30831214
:10249E000313A100A10B512A00008312031388110C
:1024AE00080083120313AA01AB01812A2A0825070B
:1024BE00A8002608A7000318A70AAA1F672AA703C1
:1024CE00831203132708A9002908FF002808840097
:1024DE000A168A1100200A168A110A168A111F225C
:1024EE000A168A11013083120313AA070318AB0AC6
:1024FE000030AB072A082507A8002608A7000318F6
:10250E00A70AAA1F8B2AA703831203132708A90061
:10251E002908FF00280884000A168A1100200A16CE
:10252E008A11003A031D9C2A9D2A5D2A08008312F7
:10253E000313A6002603031DA52AA62AC52A2408CE
:10254E007F3EA9002908A50004300310A50CFF3E0C
:10255E00031DAC2A2508A70029080F39A800270853
:10256E000A168A1119210A168A11831203132808D2
:10257E000A168A1119210A168A11E92A023026062C
:10258E00031DCA2ACB2AE92A2408BF3EA90029081E
:10259E00A50004300310A50CFF3E031DD12A25080B
:1025AE00A70029080F39A80027080A168A11192131
:1025BE000A168A118312031328080A168A11192182
:1025CE000A168A110800803083160313B3063708E3
:1025DE0083120313D00083160313360883120313DA
:1025EE00CF0083160313350883120313CE00831610
:1025FE000313340883120313CD0083160313330819
:10260E0083120313D40083160313320883120313A9
:10261E00D30083160313310883120313D2008316DB
:10262E000313300883120313D1000A128A15A8254A
:10263E000A168A1183120313500883160313B3006C
:10264E00831203134F0883160313B200831203136E
:10265E004E0883160313B100831203134D0883161D
:10266E000313B00008000030831203132005A800E6
:10267E0000302105A90080302205AA007F302305F5
:10268E00AB002B082A0429042804031D4F2B502BC2
:10269E00582B0030A3000030A2000030A100003003
:1026AE00A00000302405A80000302505A9008030C8
:1026BE002605AA007F302705AB002B082A04290423
:1026CE002804031D6B2B6C2B742B0030A7000030DD
:1026DE00A6000030A5000030A40027082306031D25
:1026EE00822B26082206031D822B25082106031D98
:1026FE00822B240820060319852B862B882B03108A
:10270E00892B03140800433083160313BB007F305C
:10271E00BA000030B9000030B80040308312031305
:10272E00B600A030B5000030B4000030B300831600
:10273E000313550883120313BA00831603135408A8
:10274E0083120313B9008316031353088312031362
:10275E00B80083160313520883120313B7000A122C
:10276E008A1147200A168A1183120313360883161C
:10277E000313BF0083120313350883160313BE0021
:10278E0083120313340883160313BD00831203133D
:10279E00330883160313BC000A128A15D9230A16AE
:1027AE008A11831603133B08D5003A08D400390862
:1027BE00D3003808D2000800831603132B08A70095
:1027CE002A08A6002908A5002808A4000A128A11C2
:1027DE003D260A168A11831603132708AF00260812
:1027EE00AE002508AD002408AC003E308312031362
:1027FE00B600DE30B5005B30B400D930B3008316BE
:10280E0003132F0883120313BA00831603132E0823
:10281E0083120313B900831603132D0883120313B7
:10282E00B800831603132C0883120313B7000A1281
:10283E008A1147200A168A1183120313360883164B
:10284E000313AB0083120313350883160313AA0078
:10285E0083120313340883160313A9008312031380
:10286E00330883160313A800080083120313A5016F
:10287E00A31F422C432C4A2CA209A309A20A031916
:10288E00A30AA501A50AA11F4D2C4E2C532CA0095D
:10289E00A109A00A0319A10A200821040319582C22
:1028AE00592C882CA401A40A672C01300310A00D0A
:1028BE00A10DFF3E031D5D2C0130FF007F08A40714
:1028CE00A11F6A2C6B2C5C2C21082302031D712C7A
:1028DE0020082202031C742C752C7B2C2008A202CB
:1028EE002108031CA303A30201300310A10CA00CAA
:1028FE00FF3E031D7C2C0130A402031D872C882C67
:10290E006B2C250803198C2C8D2C922CA209A30953
:10291E00A20A0319A30A2308A1002208A000080096
:10292E00831203132F08A3002E08A2002D08A10066
:10293E002C08A0000030A7000030A6000030A50033
:10294E000030A4000A168A113A230A168A11031CB3
:10295E00B12CB22CC32C83120313300884008313C2
:10296E008001840A80010030AF000030AE000030DC
:10297E00AD000030AC00F22C831203132F087F3908
:10298E00B100B2010310B10DB20D30088400310850
:10299E0083138000840A320880002E0D2E0D01391B
:1029AE00B100B2013008840031088004840A320874
:1029BE0080043008840082308007840F00080318DA
:1029CE00000AFF00FF307F07800084032F08803944
:1029DE003F38AF00AE13080000300A168A113521B9
:1029EE000A168A111A3083120313A500F730A400B9
:1029FE00A40BFF2CA50BFF2C042D03300A168A11F5
:102A0E0019210A168A11073083120313A5007C3090
:102A1E00A400A40B102DA50B102D000003300A16D8
:102A2E008A1119210A168A110F3083120313A50079
:102A3E004730A400A40B212DA50B212D03300A161F
:102A4E008A1119210A168A1102300A168A111921C1
:102A5E000A168A1102300A168A1119210A168A11CB
:102A6E0008300A168A1119210A168A1100300A1620
:102A7E008A1119210A168A110C300A168A11192187
:102A8E000A168A1100300A168A1119210A168A119D
:102A9E0006300A168A1119210A168A1108008312A5
:102AAE000313A501A11F5C2D5D2D642DA009A109A5
:102ABE00A00A0319A10AA501A50AA31F672D682D57
:102ACE00712DA209A309A20A0319A30A0130FF005E
:102ADE007F08A506A601A701200821040319782D59
:102AEE00792DB02DA401A40A872D01300310A00D5D
:102AFE00A10DFF3E031D7D2D0130FF007F08A407B1
:102B0E00A11F8A2D8B2D7C2D01300310A60DA70D34
:102B1E00FF3E031D8C2D21082302031D982D200836
:102B2E002202031C9B2D9C2DA32D2008A2022108FE
:102B3E00031CA303A302261401300310A10CA00C46
:102B4E00FF3E031DA42D0130A402031DAF2DB02D99
:102B5E008B2D25080319B42DB52DBA2DA609A7095D
:102B6E00A60A0319A70A2708A1002608A000080034
:102B7E0083120313061376087802F0007708031CFD
:102B8E00770A7902F100831603174208803AF200A1
:102B9E007108803A7202031DD62D70084102031887
:102BAE00D92DDA2DF52D831203130617831603176D
:102BBE004408803AFF0080307F02031DE82D643008
:102BCE0043020318EB2DEC2D242E01308316031730
:102BDE00C3070318C40A0030C407242E76087807EA
:102BEE00F00077080318770A7907F1007108803A28
:102BFE00F200831603174208803A7202031D092E53
:102C0E004108700203180C2E0D2E242E8316031766
:102C1E004408803AFF0080307F02031D182E0130D9
:102C2E004302031C1B2E1C2E242EFF30831603176B
:102C3E00C3070318C40AFF30C407831603174308DB
:102C4E008312031395000800031083160313540D0B
:102C5E00550DDB005B08031D352E362E3F2E003042
:102C6E00D5000030D4000030D3000030D200A22EA8
:102C7E005208D6005308D7005408D8005508D9007A
:102C8E001F300310D90CD80CD70CD60CFF3E031DE9
:102C9E00482E5608DA00D417FF30D205FF30D30580
:102CAE00FF30D4050030D5059630DB02DB1F602ED9
:102CBE00612E7B2E5B08803A973E0318672E682E96
:102CCE00692E362E01300310D50CD40CD30CD20C39
:102CDE00FF3E031D6A2E0130FF007F08DB07031D38
:102CEE00792E7A2E692E922E20305B02031C802EB6
:102CFE00812E8D2E362E0130D6000310D20DD30D1F
:102D0E00D40DD50DD60B842E0130DB025B08031DCE
:102D1E00912E922E822E5A080319962E972EA22E9F
:102D2E00D209D309D409D509D20A0319D30A031932
:102D3E00D40A0319D50A08000030831203132005A4
:102D4E00A80000302105A90080302205AA007F309E
:102D5E002305AB002B082A0429042804031DB82ED2
:102D6E00B92EC12E0030A3000030A2000030A10009
:102D7E000030A00000302405A80000302505A90071
:102D8E0080302605AA007F302705AB002B082A04C9
:102D9E0029042804031DD42ED52EDD2E0030A700C5
:102DAE000030A6000030A5000030A400A31FE02EC6
:102DBE00E12E052F0030A8000030A9000030AA0037
:102DCE008030AB002008A8022108031C210FF02E32
:102DDE00F12EA9022208031C220FF62EF72EAA02AC
:102DEE002308031C230FFC2EFD2EAB022B08A30081
:102DFE002A08A2002908A1002808A000A71F082F52
:102E0E00092F2D2F0030A8000030A9000030AA0095
:102E1E008030AB002408A8022508031C250F182FAC
:102E2E00192FA9022608031C260F1E2F1F2FAA02D8
:102E3E002708031C270F242F252FAB022B08A700D2
:102E4E002A08A6002908A5002808A4008030A30699
:102E5E008030A70627082302031D3F2F26082202D3
:102E6E00031D3F2F25082102031D3F2F240820029A
:102E7E000318422F432F452F0310462F031408002B
:102E8E00643083120313A0000030A1002908AB00A8
:102E9E002808AA000310AA0DAB0D0310AA0DAB0D46
:102EAE000310AA0DAB0D2A08A2002B08A3000A16C8
:102EBE008A1156250A168A11831203132108AD00B2
:102ECE002008AC008810081087130713871207120A
:102EDE00871187102D08803AFF0080307F02031D76
:102EEE007A2F01302C02031C7D2F7E2F812F83120F
:102EFE0003138814831203132D08803AFF008030C9
:102F0E007F02031D8C2F02302C02031C8F2F902F5B
:102F1E00932F831203130814831203132D08803A80
:102F2E00FF0080307F02031D9E2F03302C02031CF6
:102F3E00A12FA22FA52F831203138717831203131A
:102F4E002D08803AFF0080307F02031DB02F043021
:102F5E002C02031CB32FB42FB72F831203130717A2
:102F6E00831203132D08803AFF0080307F02031D69
:102F7E00C22F05302C02031CC52FC62FC92F83125A
:102F8E0003138716831203132D08803AFF00803037
:102F9E007F02031DD42F06302C02031CD72FD82FEF
:102FAE00DB2F831203130716831203132D08803AA7
:102FBE00FF0080307F02031DE62F07302C02031C1A
:102FCE00E92FEA2FED2F83120313871583120313B4
:102FDE002D08803AFF0080307F02031DF82F083045
:102FEE002C02031CFB2FFC2FFF2F831203138714BD
:022FFE000800C9
:00000001FF
