:020000040000FA
:060000000A128A110C280F
:10000800FE00030EF0000A08F1000A168A15812C7A
:100018000A128A110F28831603170A128A11FE275B
:100028000A128A11E9000A128A11FF270A128A1194
:10003800EA00831203170A128A11FC270A128A118E
:1000480094000A128A11FD270A128A119500831654
:100058000317E701E8018312031790019101920148
:100068009301FA01FB0183010A168A119B2A831264
:1000780003133C088039C6003C08C1004107CC0086
:10008800BB1F4728482849284C144C0803194D28F9
:100098004E285D284C0A031D522853285B2800303F
:1000A800BC000030BB000030BA000030B900BB17FC
:1000B80065280030BC000030BB000030BA000030BA
:1000C800B90040088039FF007F08C6064008C10013
:1000D8004107C700BF1F71287228732847144708B3
:1000E8000319772878288728470A031D7C287D2844
:1000F80085280030C0000030BF000030BE0000304E
:10010800BD00BF178F280030C0000030BF0000308E
:10011800BE000030BD004708031993289428992889
:100128004C08031D98289928A2280030BC000030EC
:10013800BB000030BA000030B9007F2B3908F2004C
:100148003F080A168A15F4240A128A1173088312C2
:100158000313D2007208D1005108C100C201C301C3
:10016800C4014408CB004308CA004208C90041083A
:10017800C8005208C100C201C301C4014408D0002C
:100188004308CF004208CE004108CD003A08F200EB
:100198003E080A168A15F4240A128A117308831273
:1001A8000313D2007208D1005108C100C201C30173
:1001B800C4014108C807420803110318013E031986
:1001C800E628C907430803110318013E0319ED285F
:1001D800CA07440803110318013E0319F428CB0782
:1001E8005208C100C201C301C4014108CD07420839
:1001F80003110318013E03190229CE07430803110E
:100208000318013E03190929CF07440803110318ED
:10021800013E03191029D0073B08F2003D080A16D1
:100228008A15F4240A128A11730883120313D20060
:100238007208D1005108C100C201C301C4014108BC
:10024800C807420803110318013E03192C29C907DE
:10025800430803110318013E03193329CA07440848
:1002680003110318013E03193A29CB075208C100AC
:10027800C201C301C4014108CD0742080311031894
:10028800013E03194829CE07430803110318013E0C
:1002980003194F29CF07440803110318013E031916
:1002A8005629D0070830C1000310C80DC90DCA0D62
:1002B800CB0DC10B58293A08F2003D080A168A15D9
:1002C800F4240A128A11730883120313D2007208E5
:1002D800D1005108C1005208C200C301C40141083D
:1002E800C807420803110318013E03197C29C907EE
:1002F800430803110318013E03198329CA07440858
:1003080003110318013E03198A29CB073908F200A3
:100318003E080A168A15F4240A128A1173088312F1
:100328000313D2007208D1005108C1005208C2005C
:10033800C301C4014108C807420803110318013E5C
:100348000319A729C907430803110318013E031914
:10035800AE29CA07440803110318013E0319B52939
:10036800CB070830C1000310C80DC90DCA0DCB0D4D
:10037800C10BB7293908F2003D080A168A15F4247A
:100388000A128A11730883120313D2007208D1006B
:100398005108C1005208C200C301C4014108C8077E
:1003A800420803110318013E0319DB29C907430852
:1003B80003110318013E0319E229CA07440803116F
:1003C8000318013E0319E929CB073A08F2003F0850
:1003D8000A168A15F4240A128A1173088312031361
:1003E800D2007208D1005108C1005208C200C301EE
:1003F800C4014108CD07420803110318013E03193F
:10040800062ACE07430803110318013E03190D2AD3
:10041800CF07440803110318013E0319142AD00713
:100428003B08F2003E080A168A15F4240A128A11BB
:10043800730883120313D2007208D1005108C10057
:100448005208C200C301C4014108CD074208031184
:100458000318013E0319312ACE0743080311031874
:10046800013E0319382ACF07440803110318013E37
:1004780003193F2AD0073B08F2003F080A168A15DD
:10048800F4240A128A11730883120313D200720823
:10049800D1005108C1005208C200C301C40108308C
:1004A8000310C10DC20DC30DC40DFF3E031D542A18
:1004B8004108CD07420803110318013E0319652AB4
:1004C800CE07430803110318013E03196C2ACF070E
:1004D800440803110318013E0319732AD00748087A
:1004E800C1004908C2004A08C3004B08C4001830BC
:1004F8000310C40CC30CC20CC10CFF3E031D7C2AA4
:100508004108CD07420803110318013E03198D2A3B
:10051800CE07430803110318013E0319942ACF0795
:10052800440803110318013E03199B2AD007083019
:10053800C1000310C80DC90DCA0DCB0DC10B9D2AF2
:100548004C084707C100C201C20D4108823ED100D4
:1005580042080318013EFF3ED200CF2A0130C100F5
:100568000310CD0DCE0DCF0DD00DC10BB42ACB1F6E
:10057800BE2ABF2AC02A4D140130C1000310C80D7D
:10058800C90DCA0DCB0DC10BC22AFF30D107031804
:10059800D20AFF30D207CF1FD22AD32AB22AC701E4
:1005A800CB1FD72AD82AF42AFF304805C100FF30CC
:1005B8004905C200FF304A05C3007F304B05C4001F
:1005C80044084304420441040319EB2AEC2AEF2AA5
:1005D800C701C70AF42A4D1CF22AF32AF42AEC2A86
:1005E80047080319F82AF92A2A2B0130CD070030C9
:1005F80003180130CE07003003180130CF07003050
:1006080003180130D007501C0A2B0B2B2A2B4D083E
:10061800C1004E08C2004F08C3005008C400013092
:10062800C500440DC40CC30CC20CC10CC50B152B62
:100638004408D0004308CF004208CE004108CD004E
:100648000130D1070318D20A0030D2075208803A85
:10065800FF0080307F02031D332BFF305102031C43
:10066800362B372B422B7F3083120313D000803078
:10067800CF000030CE000030CD00732B831203135F
:100688005208803AFF0080307F02031D4D2B013055
:1006980051020318502B512B5D2B0030831203138A
:1006A800D0000030CF000030CE000030CD00C601B1
:1006B800732B831203135108CC00FF30CD05FF3094
:1006C800CE057F30CF050030D0054C1C6C2B6D2B30
:1006D8006E2BCF174C08C1000310410CD000460800
:1006E800FF007F08D0045008BC004F08BB004E082C
:1006F800BA004D08B9000800831603172F088312A3
:100708000313C000831603172E0883120313BF00B8
:10071800831603172D0883120313BE0083160317CD
:100728002C0883120313BD004630BC001C30BB00EC
:100738004030BA000030B9000A128A113B200A1270
:100748008A11831203133C0883160313C40083120F
:1007580003133B0883160313C300831203133A08D9
:1007680083160313C2008312031339088316031375
:10077800C1004030BC00A030BB000030BA000030DF
:10078800B900831603172F0883160313B8008316BE
:1007980003172E0883160313B700831603172D08B3
:1007A80083160313B600831603172C088316031346
:1007B800B5000A168A15A5260A128A11831603138C
:1007C8003808C0003708BF003608BE003508BD002D
:1007D8000A128A112D260A128A1183160313400859
:1007E800DA003F08D9003E08D8003D08D7000A16AD
:1007F8008A117F210A128A11831603135808831657
:100808000317C90083160313570883160317C80074
:10081800413083160313B0001030AF000030AE0033
:100828000030AD000A168A154E270A128A1183165F
:1008380003133008B8002F08B7002E08B6002D089B
:10084800B5004030B0008030AF000030AE0000305E
:10085800AD000A168A154E270A128A118316031349
:100868003008BC002F08BB002E08BA002D08B900BC
:100878000A168A15A5260A128A1183160313380840
:1008880083160317B7008316031337088316031755
:10089800B60083160313360883160317B5008316AC
:1008A8000313350883160317B40044308316031363
:1008B800C0007730BF008030BE000030BD00BF30C0
:1008C80083120313D6008030D5000030D4000030E6
:1008D800D30083160317370883120313DA0083162D
:1008E8000317360883120313D90083160317350834
:1008F80083120313D80083160317340883120313D3
:10090800D7000A128A15A8250A128A11831203131E
:10091800560883160313C40083120313550883165D
:100928000313C30083120313540883160313C2006E
:1009380083120313530883160313C1000A128A1182
:100948002D260A128A1183160313400883160317EB
:10095800CD00831603133F0883160317CC008316B4
:1009680003133E0883160317CB00831603133D08B1
:1009780083160317CA004808F2004908F30000303C
:10098800F31BFF30F400F50001300A168A114223E8
:100998000A128A11750883160317BB007408BA0077
:1009A8007308B9007208B800433083160313B00007
:1009B800C830AF000030AE000030AD000A168A150E
:1009C8004E270A128A11831603133008B8002F081D
:1009D800B7002E08B6002D08B500831603173B088C
:1009E80083160313B000831603173A0883160313FC
:1009F800AF0083160317390883160313AE00831656
:100A08000317380883160313AD000A168A154E27F4
:100A18000A128A11831603133008BC002F08BB0082
:100A28002E08BA002D08B9000A168A15A5260A123A
:100A38008A1183160313380883160317BF00831619
:100A48000313370883160317BE00831603133608EB
:100A580083160317BD00831603133508831603177F
:100A6800BC00BF309E0080309D0000309C000030EC
:100A78009B004D089A004C0899004B0898004A08BA
:100A880097000A128A1560210A128A118316031721
:100A98001A08C3001908C2001808C1001708C000C6
:100AA800443083120313BC007A30BB000030BA0014
:100AB8000030B900831603174D0883120313C000D2
:100AC800831603174C0883120313BF0083160317FA
:100AD8004B0883120313BE00831603174A088312B8
:100AE8000313BD000A128A113B200A128A118312CD
:100AF80003133C08D6003B08D5003A08D40039084F
:100B0800D300831603173F0883120313DA008316F2
:100B180003173E0883120313D900831603173D08F1
:100B280083120313D800831603173C088312031398
:100B3800D7000A128A15A8250A128A1183120313EC
:100B4800560883160317C700831203135508831624
:100B58000317C60083120313540883160317C5002E
:100B680083120313530883160317C4004308831220
:100B78000313BC0083160317420883120313BB0038
:100B880083160317410883120313BA008316031749
:100B9800400883120313B90083160317470883120A
:100BA8000313C00083160317460883120313BF00FC
:100BB80083160317450883120313BE008316031711
:100BC800440883120313BD000A128A113B200A123B
:100BD8008A11831203133C0883160317B300831288
:100BE80003133B0883160317B200831203133A0852
:100BF80083160317B10083120313390883160317EA
:100C0800B000330883160313DA008316031732087B
:100C180083160313D90083160317310883160313A9
:100C2800D80083160317300883160313D7000A1653
:100C38008A117F210A128A11831603135808831612
:100C48000317AD0083160313570883160317AC0068
:100C580008008316031344088039CE004408C500F1
:100C68004507D500C31F392E3A2E3B2E551455087B
:100C780003193F2E402E502E550A031D442E452E93
:100C88004D2E0030C4000030C3000030C2000030D8
:100C9800C100C317C401582E0030C4000030C3007F
:100CA8000030C2000030C10040088039FF007F08D2
:100CB800CE064008C5004507D600BF1F642E652E26
:100CC800662E5614560803196A2E6B2E7B2E560A6A
:100CD800031D6F2E702E782E0030C0000030BF002C
:100CE8000030BE000030BD00BF17C001832E0030A9
:100CF800C0000030BF000030BE000030BD0040081A
:100D08003F043E043D04031D8A2E8B2EA42E003082
:100D1800C4000030C3000030C2000030C100803081
:100D2800C3047F30C4044E08FF007F08C40444088D
:100D3800C0004308BF004208BE004108BD00FB2FA9
:100D48005508031DA82EA92EB22E0030C000003071
:100D5800BF000030BE000030BD00FB2F5508C500A5
:100D6800C6014608C80056084502C700031CC80348
:100D780047087F3ECF0048080318013E003ED000D8
:100D88004408CD004308CC004208CB004108CA0003
:100D98000030C4000030C3000030C2000030C10081
:100DA8000030D4000030D3000030D2000030D10031
:100DB800D601282F56080319E22EE32E032F0130FF
:100DC800C5000310CA0DCB0DCC0DCD0DC50BE52EFE
:100DD8000130C5000310C10DC20DC30DC40DC50BF4
:100DE800EE2ED41FF82EF92EFA2E41140130C5002C
:100DF8000310D10DD20DD30DD40DC50BFC2E400818
:100E08004D02031D112F3F084C02031D112F3E08F0
:100E18004B02031D112F3D084A02031C142F152FE6
:100E2800242F54173D08CA023E08031C3E0FCB026C
:100E38003F08031C3F0FCC024008031C400FCD02A3
:100E48000130FF007F08D6071A305602031C2D2FE9
:100E58002E2FDE2E4D084C044B044A040319352F5F
:100E6800362F552F5114552F0130C5000310C10DD1
:100E7800C20DC30DC40DC50B3A2FD41F442F452FE7
:100E8800462F41140130C5000310D10DD20DD30DEA
:100E9800D40DC50B482FFF30CF070318D00AFF30F9
:100EA800D007C31F582F592F382FD601D41F5D2FB5
:100EB8005E2F7A2FFF305105C500FF305205C6005E
:100EC800FF305305C7007F305405C8004808470461
:100ED800460445040319712F722F752FD601D60ABF
:100EE8007A2F411C782F792F7A2F722F56080319E1
:100EF8007E2F7F2FB02F0130C1070030031801303B
:100F0800C207003003180130C3070030031801304E
:100F1800C407441C902F912FB02F4108C5004208E8
:100F2800C6004308C7004408C8000130C900480D7E
:100F3800C80CC70CC60CC50CC90B9B2F4808C400AD
:100F48004708C3004608C2004508C1000130CF0762
:100F58000318D00A0030D0075008803AFF008030CC
:100F68007F02031DB92FFF304F02031CBC2FBD2F7A
:100F7800CB2FFF3083160313CF000030D000003092
:100F8800C4000030C3000030C2000030C100831626
:100F980003135008803AFF0080307F02031DD62FCC
:100FA80001304F020318D92FDA2FE72F83160313C6
:100FB800CF01D0010030C4000030C3000030C200AF
:100FC8000030C100CE01831603134F08D500551C0D
:100FD800EE2FEF2FF12FC317F52F7F30FF007F087B
:100FE800C3055508C5000310450CC400972E08001A
:080FF80032340034903401345E
:101004000F30831203139700643083160313920086
:10101400323083120313950012150800F701F31FF1
:10102400142815281C28F209F309F20A0319F30AF3
:10103400F701F70AF51F1F2820282928F409F509C4
:10104400F40A0319F50A0130FF007F08F706F801D6
:10105400F901720873040319302831286828F6014D
:10106400F60A3F2801300310F20DF30DFF3E031D75
:1010740035280130FF007F08F607F31F4228432874
:10108400342801300310F80DF90DFF3E031D4428E8
:1010940073087502031D502872087402031C532838
:1010A40054285B287208F4027308031CF503F50244
:1010B400781401300310F30CF20CFF3E031D5C287E
:1010C4000130F602031D67286828432877080319AE
:1010D4006C286D287228F809F909F80A0319F90A25
:1010E4007908F3007808F2000800831603136408F3
:1010F40083120313B50083160313630883120313C7
:10110400B40083160313620883120313B300831617
:101114000313610883120313B200E930B6000A1600
:101124008A11C6200A128A1583160313EA1F9B2804
:101134009C28CB286408F5006308F4006208F300D7
:101144006108F2000030F9000030F8000030F700C8
:101154000030F6000A168A11F7210A128A150318BC
:10116400B428B528C028BF3083160313E4008030A8
:10117400E3000030E2000030E1005F290030831614
:101184000313E4000030E3000030E2000030E1002B
:101194005F2900306A021D3003196902031CD32839
:1011A400D428D5285F296408DA006308D9006208C6
:1011B400D8006108D7000A168A117F210A128A15FD
:1011C400831603135A08F5005908F4005808F3006D
:1011D4005708F20001300A168A1142230A128A15AE
:1011E400750883160313E8007408E7007308E60023
:1011F4007208E5006408F5006308F4006208F3006F
:101204006108F2006808F9006708F8006608F7004A
:101214006508F6000A168A11F7210A128A150318BE
:10122400142915295529BF3083120313D6008030A1
:10123400D5000030D4000030D300831603136808AF
:1012440083120313DA00831603136708831203134C
:10125400D90083160313660883120313D800831678
:101264000313650883120313D7000A128A15A825ED
:101274000A128A1583120313560883160313E40013
:1012840083120313550883160313E3008312031315
:10129400540883160313E2008312031353088316BE
:1012A4000313E1005F29831603136808E400670849
:1012B400E3006608E2006508E100080083160317EE
:1012C400A7011A0883120313A90083160317190828
:1012D40083120313A8008316031718088312031339
:1012E400A70083160317170883120313A600003000
:1012F400AD000030AC000030AB000030AA000A168C
:101304008A1555260A128A15031C89298A29B629A1
:101314000030F5000030F4000030F3000030F2003B
:10132400831603171E08F9001D08F8001C08F700AF
:101334001B08F6000A168A11F7210A128A15031CE3
:10134400A429A529AB29213083120317900000306A
:1013540091000030831603179A0000309900003082
:10136400980000309700702B831603171E08831211
:101374000313A900831603171D0883120313A8007F
:10138400831603171C0883120313A700831603177D
:101394001B0883120313A6000030AD000030AC001C
:1013A4000030AB000030AA000A168A1555260A122E
:1013B4008A15031CDE29DF29EA293F308316031727
:1013C4009A00803099000030980000309700702B0C
:1013D400831603171A08F5001908F4001808F30017
:1013E4001708F2000030F9000030F8000030F70070
:1013F4000030F6000A168A11F7210A128A1503181A
:10140400042A052AA02A831603171E088316031329
:10141400DA00831603171D0883160313D9008316F5
:1014240003171C0883160313D800831603171B081D
:1014340083160313D7000A168A117F210A128A150C
:10144400831603135A0883160317AB00831603137A
:10145400590883160317AA00831603135808831622
:101464000317A90083160313570883160317A8004C
:101474002B08F5002A08F4002908F3002808F200D4
:1014840000300A168A1142230A128A15750883123B
:101494000313A9007408A8007308A7007208A60023
:1014A400831603171E0883120313AD008316031754
:1014B4001D0883120313AC00831603171C08831240
:1014C4000313AB00831603171B0883120313AA002C
:1014D4000A168A1555260A128A150318722A732ABF
:1014E400842A2130831203179000003091000030C9
:1014F400831603179A0000309900003098000030DA
:101504009700702B8316031728080139A7001A08BF
:10151400F5001908F4001808F3001708F2000A1679
:101524008A153D240A128A157508831603179A0032
:1015340074089900730898007208970083160317BB
:101544001A0883160313AC008316031719088316AD
:101554000313AB0083160317180883160313AA009A
:1015640083160317170883160313A9000A168A1192
:101574008C260A128A15831603132C088316031764
:10158400A200831603132B0883160317A1008316E6
:1015940003132A0883160317A000831603132908CC
:1015A400831603179F001E0883120313BC008316BF
:1015B40003171D0883120313BB00831603171C08AB
:1015C40083120313BA00831603171B088312031331
:1015D400B90083160317220883120313C00083166D
:1015E4000317210883120313BF008316031720086F
:1015F40083120313BE00831603171F0883120313F9
:10160400BD000A128A113B200A128A1583120313A1
:101614003C0883160317A600831203133B088316A2
:101624000317A500831203133A0883160317A400B3
:1016340083120313390883160317A300260883169D
:101644000313EE0083160317250883160313ED0016
:1016540083160317240883160313EC008316031759
:10166400230883160313EB000A128A1571230A1246
:101674008A15831603136E08831603179A008316BC
:1016840003136D08831603179900831603136C085C
:10169400831603179800831603136B088316031726
:1016A400970027080319572B582B702B1A08F5009D
:1016B4001908F4001808F3001708F2000A168A152E
:1016C4003D240A128A157508831603179A007408B4
:1016D40099007308980072089700702B080083160D
:1016E40003136E0883120313A900831603136D08F2
:1016F40083120313A800831603136C0883120313C5
:10170400A700831603136B0883120313A60000308B
:10171400AD000030AC000030AB000030AA000A1667
:101724008A1555260A128A15031C992B9A2BA52B68
:101734003F3083160313EE008030ED000030EC00E0
:101744000030EB00A72D4430F5003130F400723046
:10175400F3001830F200831603136E08F9006D08C5
:10176400F8006C08F7006B08F6000A168A11F721D6
:101774000A128A150318BF2BC02BD12B22308312D7
:1017840003179000003091007F3083160313EE009E
:101794007F30ED00FF30EC00FF30EB00A72D831607
:1017A40003136E08F5006D08F4006C08F3006B0871
:1017B400F200C430F9003A30F8004830F7008730BE
:1017C400F6000A168A11F7210A128A150318EB2B60
:1017D400EC2BFD2B22308312031790000030910074
:1017E400003083160313EE000030ED000030EC00EF
:1017F4000030EB00A72D831603136E08F5006D0867
:10180400F4006C08F3006B08F2000030F9000030BB
:10181400F8000030F7000030F6000A168A11F721AC
:101824000A128A15031C172C192C01301A2C0030AB
:1018340083160317960016080319212C222C3B2C1F
:10184400831603136E08F5006D08F4006C08F300AA
:101854006B08F2000A168A153D240A128A157508C7
:1018640083160313EE007408ED007308EC0072088D
:10187400EB003F3083120313BC00B830BB00AA3026
:10188400BA003B30B900831603136E0883120313A6
:10189400C000831603136D0883120313BF0083165D
:1018A40003136C0883120313BE00831603136B081F
:1018B40083120313BD000A128A113B200A128A15EF
:1018C400831203133C0883160313EE0083120313DD
:1018D4003B0883160313ED00831203133A0883169F
:1018E4000313EC0083120313390883160313EB006C
:1018F4006E08E4006D08E3006C08E2006B08E10088
:101904000A128A1577200A128A15831603136408AB
:1019140083160317930083160313630883160317B0
:10192400920083160313620883160317910083162B
:101934000313610883160317900013088316031317
:10194400DA0083160317120883160313D9008316CB
:101954000317110883160313D800831603171008FE
:1019640083160313D7000A168A117F210A128A15D7
:10197400831603135808831603179500831603135D
:1019840057088316031794001408F2001508F3008F
:101994000030F31BFF30F400F50001300A168A1101
:1019A40042230A128A15750883160313B8007408B3
:1019B400B7007308B6007208B5006E08BC006D0865
:1019C400BB006C08BA006B08B9000A168A15A52674
:1019D4000A128A15831603133808EE003708ED003F
:1019E4003608EC003508EB006E0883120313EA0096
:1019F400831603136D0883120313E900831603137C
:101A04006C0883120313E800831603136B08831214
:101A14000313E7000130EB000930EC000030ED0067
:101A24000A168A11A4250A128A15831203136A0856
:101A340083160313AC00831203136908831603137C
:101A4400AB0083120313680883160313AA008312DE
:101A54000313670883160313A900831603171508D5
:101A640083160313AE008316031714088316031397
:101A7400AD000A168A11C0240A128A1583160313AC
:101A84002C08EE002B08ED002A08EC002908EB00D6
:101A94008316031716080319502D512DA72D8316ED
:101AA40003136E0883120313A900831603136D082E
:101AB40083120313A800831603136C088312031301
:101AC400A700831603136B0883120313A6007F3049
:101AD400AD007F30AC00FF30AB00FF30AA000A1627
:101AE4008A1555260A128A15031C792D7A2D852DFF
:101AF400003083160313EE000030ED000030EC00DC
:101B04000030EB00A72D831603136E08C0006D0888
:101B1400BF006C08BE006B08BD003F30C4008030BD
:101B2400C3000030C2000030C1000A128A112D2601
:101B34000A128A15831603134008EE003F08ED00CD
:101B44003E08EC003D08EB00A72D080083120313A8
:101B540056088039E3005608DB005B07E500D51F13
:101B6400B42DB52DB62D651465080319BA2DBB2DFA
:101B7400CB2D650A031DBF2DC02DC82D0030D60006
:101B84000030D5000030D4000030D300D517D60182
:101B9400D32D0030D6000030D5000030D400003002
:101BA400D3005A088039E400640863060319DB2D66
:101BB400DC2DDD2D63175A08DB005B07E400D91F19
:101BC400E42DE52DE62D641464080319EA2DEB2DAC
:101BD400FB2D640A031DEF2DF02DF82D0030DA00E3
:101BE4000030D9000030D8000030D700D917DA010E
:101BF400032E0030DA000030D9000030D800003065
:101C0400D700650864020318082E092E2F2E631FBF
:101C14000C2E0D2E112E8030FF007F08E306650880
:101C2400E6006408E5006608E4005308E600570887
:101C3400D3006608D7005408E6005808D4006608A4
:101C4400D8005508E6005908D5006608D90056089A
:101C5400E6005A08D6006608DA00E6016408DB00EC
:101C6400DC015C08DE0065085B02DD00031CDE03AA
:101C74005E08803AFF0080307F02031D432E1A3035
:101C84005D02031C462E472E7E2E83120313560834
:101C9400550454045304031D502E522E0130532E68
:101CA4000030E6000030D6000030D5000030D4000B
:101CB4000030D3006408E500862E661C622E632E75
:101CC4006A2E6608DB0003105B0C0138E6006C2EFC
:101CD4000310E60C531C6F2E702E712EE617013084
:101CE400DB00560DD60CD50CD40CD30CDB0B732EA9
:101CF4000130FF007F08E5078312031364086502BF
:101D0400031C852E862E5F2E631B892E8A2ED32ECE
:101D14006508031D8E2E8F2E982E0030D6000030BD
:101D2400D5000030D4000030D300FF2F5708D3076C
:101D3400580803110318013E0319A12ED4075908AA
:101D440003110318013E0319A82ED5075A080311DD
:101D54000318013E0319AF2ED607561CB22EB32E1C
:101D6400872F661CB62EB72EBE2E6608DB00031026
:101D74005B0C0138E600C02E0310E60C531CC32E86
:101D8400C42EC52EE6170130DB00560DD60CD50C3B
:101D9400D40CD30CDB0BC72E0130FF007F08E50702
:101DA400872F5608803AFF005A08803A7F02031DA5
:101DB400E52E59085502031DE52E58085402031D4B
:101DC400E52E570853020318E82EE92E412FFF3061
:101DD400DB00FF30DC00FF30DD00FF30DE005708A1
:101DE400DF005808E0005908E1005A08E2005308EF
:101DF400DF025408031C540F002F012FE002550882
:101E0400031C550F062F072FE1025608031C560F1B
:101E14000C2F0D2FE2025F08DB0760080318600F28
:101E2400142F152FDC0761080318610F1A2F1B2FBD
:101E3400DD0762080318620ADE075E08D6005D0843
:101E4400D5005C08D4005B08D3008030FF007F0815
:101E5400E306E609E60A6608031D312F322F4F2FE9
:101E64000130D307003003180130D40700300318C1
:101E74000130D507003003180130D6074F2F57081B
:101E8400D3025808031C580FD4025908031C590FD5
:101E9400D5025A08031C5A0FD60256085504540496
:101EA4005304031D562F572F832F6608031D5B2FE2
:101EB4005C2F832F0030D6000030D5000030D400D2
:101EC4000030D300FF2F0130DB000310D30DD40DFD
:101ED400D50DD60DDB0B672FE61F712F722F732FD5
:101EE4005314661C762F772F7A2F0314E60D7C2F5C
:101EF4000310E60D65080319802F812F832F01300D
:101F0400E502D51F862F872F652FE401E61F8B2F4F
:101F14008C2F9A2F66087F390319912F922F952FB2
:101F2400E401E40A9A2F531C982F992F9A2F922F89
:101F3400640803199E2F9F2FD32F0130D30700303D
:101F440003180130D407003003180130D5070030DE
:101F540003180130D607561CB02FB12FD32F5308C6
:101F6400DB005408DC005508DD005608DE000130B3
:101F7400DF005E0DDE0CDD0CDC0CDB0CDF0BBB2F9D
:101F84005E08D6005D08D5005C08D4005B08D30069
:101F9400650A0319CE2FCF2FD32F0130FF007F08FE
:101FA400E507650A0319D72FD82FDD2F6508031D10
:101FB400DC2FDD2FEB2F0030D6000030D5000030B1
:101FC400D4000030D3006508031DE92FEA2FEB2F5E
:101FD400E301651CEE2FEF2FF12FD517F52F7F307E
:101FE400FF007F08D5056508DB0003105B0CD600F5
:101FF400E31FFD2FFE2FFF2FD6170800FF1B0A2813
:1020040083137F1883170008840A0319FF0A080042
:1020140010308A000408840A820700340034003433
:1020240080343F341834723431343F34F034FD3466
:1020340075343E344734583463343D34583495341D
:102044001D343C348234C434AE343A34A834783445
:1020540021343934EF34933480343734A034923417
:10206400A73435344634563415343434003400340B
:1020740000340034C434FF347F343F348034EF34CC
:10208400FF34BE349034E134A9343E34EC34823429
:102094007634BE348234AD342B343E340E343C3486
:1020A400C334BD348734D13413343D3441347834AB
:1020B400D334BB344C3455344D3449344E344F341A
:1020C4005334493444344134443445342034413461
:1020D4005434553441344C343A3400344D3445345A
:1020E4004E34553420342D3420344F3442344A3461
:1020F40045345434493456344F3400343534303450
:0C210400303420344C345534583400344E
:102112008312031712081304031D90289128BC2868
:1021220083120313861996289728BC28013083123C
:102132000317920000309300831603176A08803A4F
:10214200FF0080307F02031DA8280B306902031CA8
:10215200AB28AC28B528F63083160317E907031815
:10216200EA0AFF30EA07C5280A3083160317E90096
:102172000030EA00C5280313861DC028C128C528DF
:102182008312031792019301080083120313350887
:10219200A9003408A8003308A7003208A6000030BE
:1021A200AD000030AC000030AB000030AA000A16CF
:1021B2008A1555260A168A11031CE028E128F228FE
:1021C200831203133608840083138001840A80017A
:1021D2000030B5000030B4000030B3000030B2006F
:1021E20021298312031335087F39B700B801031080
:1021F200B70DB80D36088400370883138000840AAF
:1022020038088000340D340D0139B700B8013608A2
:10221200840037088004840A380880043608840061
:1022220082308007840F00080318000AFF00FF3085
:102232007F0780008403350880393F38B500B41326
:10224200080000300A168A15D2240A168A111A309A
:10225200F700F830F600F60B2C29F70B2C290000BA
:1022620003300A168A159A240A168A110730F700D3
:102272007D30F600F60B3B29F70B3B2903300A169B
:102282008A159A240A168A110F30F7004730F60091
:10229200F60B4929F70B49294E2903300A168A15EC
:1022A2009A240A168A1102300A168A159A240A16E4
:1022B2008A1102300A168A159A240A168A110830DF
:1022C2000A168A159A240A168A1100300A168A15E5
:1022D2009A240A168A110C300A168A159A240A16AA
:1022E2008A1100300A168A159A240A168A110630B3
:1022F2000A168A159A240A168A11080003108316F0
:102302000313590D5A0DE0006008031D89298A291B
:1023120093290030DA000030D9000030D8000030B4
:10232200D700F6295708DB005808DC005908DD0001
:102332005A08DE001F300310DE0CDD0CDC0CDB0C57
:10234200FF3E031D9C295B08DF00D917FF30D7052C
:10235200FF30D805FF30D9050030DA059630E002AB
:10236200E01FB429B529CF296008803A973E0318A7
:10237200BB29BC29BD298A2901300310DA0CD90CEA
:10238200D80CD70CFF3E031DBE290130FF007F0889
:10239200E007031DCD29CE29BD29E62920306002A0
:1023A200031CD429D529E1298A290130DB00031035
:1023B200D70DD80DD90DDA0DDB0BD8290130E0028B
:1023C2006008031DE529E629D6295F080319EA29D1
:1023D200EB29F629D709D809D909DA09D70A031945
:1023E200D80A0319D90A0319DA0A0800003072055B
:1023F20083120313A00000307305A100803074051E
:10240200A2007F307505A3002308220421042004C2
:10241200031D0C2A0D2A152A0030F5000030F400A5
:102422000030F3000030F20000307605A0000030EA
:102432007705A10080307805A2007F307905A300DE
:102442002308220421042004031D282A292A312AD0
:102452000030F9000030F8000030F7000030F600DC
:10246200F51F342A352A592A0030A0000030A10075
:102472000030A2008030A3007208A0027308031C7F
:10248200730F442A452AA1027408031C740F4A2AB6
:102492004B2AA2027508031C750F502A512AA30267
:1024A2002308F5002208F4002108F3002008F200B6
:1024B200F91F5C2A5D2A812A0030A0000030A100A9
:1024C2000030A2008030A3007608A0027708031C27
:1024D200770F6C2A6D2AA1027808031C780F722AE2
:1024E200732AA2027908031C790F782A792AA30297
:1024F2002308F9002208F8002108F7002008F60056
:102502008030F5068030F90679087502031D932A9A
:1025120078087402031D932A77087302031D932A15
:10252200760872020318962A972A992A03109A2A81
:102532000314080083160313870101170130860074
:102542000A168A156A240A168A110A128A150220A4
:102552000A168A118316031388010A168A11222188
:102562000A168A114D3083160317E6000A168A15D9
:1025720036240A168A110A168A1555240A168A1151
:10258200730883160317E3007208E2006208F20080
:102592006308F3000030F31BFF30F400F500013054
:1025A2000A168A1142230A168A1175088316031322
:1025B200DA007408D9007308D8007208D7000A1626
:1025C2008A15F5260A168A11831603135A088316EA
:1025D2000317E10083160313590883160317E0005B
:1025E20083160313580883160317DF008316031399
:1025F200570883160317DE006108AF006008AE00BB
:102602005F08AD005E08AC000A128A1180230A1628
:102612008A11831603172D08E5002C08E4000A1618
:102622008A15B4240A168A113230831203139500D4
:1026320083160317650883120313A1008316031779
:10264200640883120313A000CE30A2000A30A30054
:102652000030A4000A168A11FC230A168A11CE3011
:1026620083120313A5000130A60083160317660820
:102672000A168A1550250A168A11BC2A0A128A11CC
:102682000C2883120313A00020080319492B4A2B9C
:102692005E2BF51F4D2B4E2B5E2B7209A200730988
:1026A200A3007409A4007509A500A20A0319A30ACC
:1026B2000319A40A0319A50A662B7508A500740854
:1026C200A4007308A3007208A200750874047304BE
:1026D2007204031D6D2B6E2B772B0030F50000303A
:1026E200F4000030F3000030F200FB2B9630A10022
:1026F200872B0130FF007F08A10701300310A50CD2
:10270200A40CA30CA20CFF3E031D7F2BFE3025055B
:10271200031D8C2B8D2B7A2BA92B0130FF007F08F8
:10272200A1070130A207003003180130A3070030CF
:1027320003180130A407003003180130A507013047
:102742000310A50CA40CA30CA20CFF3E031DA12B8D
:10275200FF302505031DAE2BAF2B8E2BBB2B01307B
:10276200A1020130F6000310A20DA30DA40DA50DC8
:10277200F60BB42BA41BBE2BBF2BC52B02302102A0
:102782000318C42BC52BB02B2118C82BC92BD12B56
:10279200FF30A205FF30A3057F30A405FF30A50559
:1027A2000310A10C2108F600F701F801F901183015
:1027B2000310F60DF70DF80DF90DFF3E031DD92B91
:1027C2007608A2047708A3047808A4047908A5046B
:1027D20020080319ED2BEE2BF32BF51FF12BF22B17
:1027E200F32BA5172508F5002408F4002308F300AD
:1027F2002208F200080083120313B001B10120087D
:102802002104031D052C062C6E2C22088400303076
:10281200831780000130B0070318B10A0030B107F6
:1028220030082207A500250884008001BF2C240857
:10283200F3002308F2002108F5002008F4000A162C
:102842008A15A7270A168A11730883120313AB008D
:102852007208AA002B08803AFF0080307F02031D15
:10286200342C0A302A020318372C382C432C8312BA
:1028720003132A08303EA8002B080318013E003E2D
:10288200A9004D2C831203132A08373EA8002B08F7
:102892000318013E003EA90030082207A5002508C2
:1028A20084002808831780000130B0070318B10A9A
:1028B2000030B1072408F3002308F2002108F500D4
:1028C2002008F4000A128A1510200A168A117308C9
:1028D20083120313A1007208A00020082104031D23
:1028E200732C742C182C30082207A50025088400AC
:1028F20083178001AC01AD013008FF3EAE00310804
:102902000318013EFF3EAF00B12C831203132C08C3
:102912002207A5002508840083170008A7002E08B7
:102922002207A500250884000008FF002C082207C2
:10293200A600260884007F0880002E082207A50032
:1029420025088400270880000130AC070318AD0A6F
:102952000030AD07FF30AE070318AF0AFF30AF07F4
:102962002D08803AA5002F08803A2502031DBB2CB2
:102972002E082C02031CBE2CBF2C862C08008316AA
:1029820003132C0883120313A900831603132B08C5
:1029920083120313A800831603132A088312031356
:1029A200A70083160313290883120313A60000301D
:1029B200AD000030AC000030AB000030AA000A16B7
:1029C2008A1555260A168A11031CE82CE92CF42CC8
:1029D200003083160313AC000030AB000030AA00B5
:1029E2000030A900A32D831603132C087F3983120C
:1029F2000313EE00EF010310EE0DEF0D6E088316C8
:102A02000313AD070318AE0A831203136F0883166C
:102A12000313AE072B0D2B0D013983120313EE00A6
:102A2200EF016E0883160313AD070318AE0A831273
:102A320003136F0883160313AE07AE1F212D222D39
:102A4200332D2230831203179000003091000030A2
:102A520083160313AC000030AB000030AA00003034
:102A6200A900A32D2E08803AFF0081307F02031DAA
:102A72003C2D00302D02031C3F2D402D772D22309E
:102A820083120317900000309100831603132C0861
:102A9200F5002B08F4002A08F3002908F2000030A0
:102AA200F9000030F8000030F7000030F6000A1696
:102AB2008A11F7210A168A110318602D612D6C2DD7
:102AC200FF3083160313AC007F30AB00FF30AA0047
:102AD200FF30A900A32D7F3083160313AC007F3093
:102AE200AB00FF30AA00FF30A900A32D8316031309
:102AF2002E0883120313EF00831603132D0883128B
:102B02000313EE006F0DEF0CEE0C831603132C086B
:102B1200831203136E0680396E0683160313AC000C
:102B22002D08013983120313EE00EE0CEE0C83160E
:102B320003132B08831203136E067F396E06831666
:102B42000313AB000800831203136C0883160313EC
:102B5200A00001300310A00DFF3E031DAB2D03109A
:102B6200200D831203136B0784000A168A110A20B0
:102B72000A168A1183160313A1000A168A110A2063
:102B82000A168A11A2000A168A110A200A168A1146
:102B9200A3000A168A110A200A168A11A400240820
:102BA200A8002308A7002208A6002108A5006B2E72
:102BB200FF30EC070318ED0AFF30ED076C088316AF
:102BC2000313A00001300310A00DFF3E031DE42DEE
:102BD2000310200D831203136B0784000A168A1157
:102BE2000A200A168A1183160313A1000A168A11F3
:102BF2000A200A168A11A2000A168A110A200A1647
:102C02008A11A3000A168A110A200A168A11A40040
:102C1200240883120313D600831603132308831296
:102C22000313D50083160313220883120313D4005F
:102C320083160313210883120313D300831603138D
:102C4200280883120313BC00831603132708831278
:102C52000313BB0083160313260883120313BA005F
:102C620083160313250883120313B9006A08C000F0
:102C72006908BF006808BE006708BD000A128A1111
:102C82003B200A168A11831203133C08DA003B0820
:102C9200D9003A08D8003908D7000A128A15A8259F
:102CA2000A168A1183120313560883160313A80007
:102CB20083120313550883160313A7008312031309
:102CC200540883160313A6008312031353088316B2
:102CD2000313A500831203136C086D04031D722EE7
:102CE200732ED92D83160313280883120313EA00C7
:102CF20083160313270883120313E90083160313B1
:102D0200260883120313E80083160313250883128F
:102D12000313E7000800831603132C08F5002B08A1
:102D2200F4002A08F3002908F2000030F90000300C
:102D3200F8000030F7000030F6000A168A11F72179
:102D42000A168A110318A62EA72EB82E2130831236
:102D52000317900000309100003083160313AC007B
:102D62000030AB000030AA000030A900FF2F83160C
:102D720003132C0883120313A900831603132B08D1
:102D820083120313A800831603132A088312031362
:102D9200A70083160313290883120313A600003029
:102DA200AD000030AC000030AB000030AA000A16C3
:102DB2008A1555260A168A11031CE02EE12EF22EE0
:102DC20022308312031790000030910000308316E6
:102DD2000313AC000030AB000030AA000030A900A1
:102DE200FF2FBF3083120313D6008030D50000308E
:102DF200D4000030D3004030BC000030BB000030B3
:102E0200BA000030B9006E30B600831603132C08E6
:102E120083120313B500831603132B0883120313C3
:102E2200B400831603132A0883120313B300831614
:102E32000313290883120313B2000A168A11C6204B
:102E42000A168A11831203133508C0003408BF0022
:102E52003308BE003208BD000A128A113B200A164E
:102E62008A11831203133C08DA003B08D9003A089E
:102E7200D8003908D7000A128A15A8250A168A111D
:102E820083120313560883160313AC008312031331
:102E9200550883160313AB008312031354088316D9
:102EA2000313AA0083120313530883160313A90002
:102EB200FF3083120313EE070318EF0AFF30EF0708
:102EC200831603132C0883120313EA0083160313D9
:102ED2002B0883120313E900831603132A088312B3
:102EE2000313E80083160313290883120313E70070
:102EF2002930EB000830EC000030ED000A168A1190
:102F0200A4250A168A11831203136A08831603136F
:102F1200AC0083120313690883160313AB008312F8
:102F22000313680883160313AA00831203136708A6
:102F320083160313A9002C0883120313D6008316E9
:102F420003132B0883120313D500831603132A08D5
:102F520083120313D4008316031329088312031365
:102F6200D3003F30BC003130BB007230BA001830A1
:102F7200B9006E08F2006F08F3000030F31BFF3057
:102F8200F400F50001300A168A1142230A168A114A
:102F9200750883120313C0007408BF007308BE00D3
:102FA2007208BD000A128A113B200A168A11831286
:102FB20003133C08DA003B08D9003A08D800390864
:102FC200D7000A128A15A8250A168A11831203133A
:102FD200560883160313AC00831203135508831695
:102FE2000313AB0083120313540883160313AA00BE
:0E2FF20083120313530883160313A90008006B
:10386C008316031301138B170B168B1008007508A6
:10387C007404730472040319442C452C472C8030B7
:10388C00F506080000300A168A159A240A168A15BD
:10389C0001300A168A159A240A168A150800831212
:1038AC0003131F150330F400F40B5A2C831203136B
:1038BC001E08F400F5017408F6007508F700770887
:1038CC00F3007608F2000800831603131F109F14F0
:1038DC001F159F15831203131F139F1383160313B6
:1038EC001F139F139E01831203139E011F149F111C
:1038FC001F129F1208008B1C842C852C932C7A0889
:10390C007B0403198A2C8B2C8E2CFA01FB01922C34
:10391C000130FA000030FB008B1071088A00700E29
:10392C008300FE0E7E0E0900F500831203130811AE
:10393C0075080A168A15D2240A168A1583120313DF
:10394C0088150630F4003030F300F30BAB2CF40B7D
:10395C00AB2C00008312031388110800CB2C0A1621
:10396C008A1587250A168A150A168A1189200A16BD
:10397C008A15713083120313A5008030A6006130C4
:10398C000A168A1550250A168A157A087B04031D17
:10399C00D02CD12CB52C0800F200721CD62CD72CB4
:1039AC00DB2C831203130816DE2C8312031308126C
:1039BC00F21CE12CE22CE42C8816E52C8812721DEA
:1039CC00E82CE92CEB2C0817EC2C0813F21DEF2C2F
:1039DC00F02CF22C8817F32C881308008312031395
:1039EC00A400A001A1017208F400F5017408A20062
:1039FC007508A300241C032D042D0A2D2208A007F2
:103A0C000318A10A2308A10701300310A20DA30D6E
:103A1C00FF3E031D0B2D0310A40C2408031D172DB2
:103A2C00182D002D2108F3002008F2000800F600E4
:103A3C0076080F39F4007608F039F5008312031379
:103A4C0008157508F30004300310F30CFF3E031D3A
:103A5C002A2D73080A168A15D2240A168A1583127F
:103A6C00031388150D30F300F30B3A2D8312031357
:103A7C00881174080A168A15D2240A168A1583121C
:103A8C00031388150D30F300F30B4A2D8312031327
:103A9C0088110800F9000A168A1548240A168A1596
:103AAC00F601F60A01300A168A1509260A168A1535
:103ABC007908F7000030031D8030F8000A168A15CB
:103ACC00C3250A168A15F601F60A02300A168A155B
:103ADC0009260A168A15831203132508F7002608EF
:103AEC00F8000A168A15C3250A168A158230831225
:103AFC000313A800DD30A700A70B822DA80B822D85
:103B0C0008008316031767086804031D8E2D8F2D7C
:103B1C00B82D831203130619942D952DB82D013051
:103B2C0083160317E7000030E8006A08803AFF00AC
:103B3C0083307F02031DA42DE83069020318A72DE2
:103B4C00A82DB12D0A3083160317E9070318EA0ACA
:103B5C000030EA07C22DE83083160317E900033062
:103B6C00EA00C22D83120313061DBD2DBE2DC22DDE
:103B7C0083160317E701E801080083120313A3015E
:103B8C00A401EC2D23087707A1007808A0000318E6
:103B9C00A00AA31FD22DA003831203132008A20096
:103BAC002208FF00210884000A168A1100200A1638
:103BBC008A150A168A151D250A168A1501308312D4
:103BCC000313A3070318A40A0030A40723087707DC
:103BDC00A1007808A0000318A00AA31FF62DA003CB
:103BEC00831203132008A2002208FF00210884007E
:103BFC000A168A1100200A168A15003A031D072E90
:103C0C00082EC82D080083120313A0002003031DE7
:103C1C00102E112E302E76087F3EA3002308F700BD
:103C2C0004300310F70CFF3E031D172E7708A1007C
:103C3C0023080F39A20021080A168A159A240A169D
:103C4C008A158312031322080A168A159A240A1657
:103C5C008A15542E02302006031D352E362E542E76
:103C6C007608BF3EA3002308F70004300310F70CBE
:103C7C00FF3E031D3C2E7708A10023080F39A2003C
:103C8C0021080A168A159A240A168A158312031318
:103C9C0022080A168A159A240A168A15080000307A
:103CAC00831203132605AE0000302705AF008030C9
:103CBC002805B0007F302905B100310830042F04ED
:103CCC002E04031D6A2E6B2E732E0030A9000030BB
:103CDC00A8000030A7000030A60000302A05AE0076
:103CEC0000302B05AF0080302C05B0007F302D0547
:103CFC00B100310830042F042E04031D862E872EAC
:103D0C008F2E0030AD000030AC000030AB00003026
:103D1C00AA002D082906031D9D2E2C082806031D1C
:103D2C009D2E2B082706031D9D2E2A0826060319F7
:103D3C00A02EA12EA32E0310A42E03140800803055
:103D4C0083160313B8063C0883120313D60083169C
:103D5C0003133B0883120313D500831603133A088D
:103D6C0083120313D400831603133908831203132D
:103D7C00D30083160313380883120313DA00831657
:103D8C000313370883120313D90083160313360861
:103D9C0083120313D80083160313350883120313FD
:103DAC00D7000A128A15A8250A168A15831203133E
:103DBC00560883160313B800831203135508831691
:103DCC000313B70083120313540883160313B600AE
:103DDC0083120313530883160313B50008004330F2
:103DEC0083160313C0007F30BF000030BE000030CC
:103DFC00BD00403083120313BC00A030BB00003068
:103E0C00BA000030B900831603135A088312031347
:103E1C00C00083160313590883120313BF008316C3
:103E2C000313580883120313BE0083160313570899
:103E3C0083120313BD000A128A113B200A168A153D
:103E4C00831203133C0883160313C4008312031359
:103E5C003B0883160313C300831203133A0883161B
:103E6C000313C20083120313390883160313C10012
:103E7C000A128A112D260A168A1583160313400876
:103E8C00DA003F08D9003E08D8003D08D7000800EA
:103E9C00831603133008AC002F08AB002E08AA00C1
:103EAC002D08A9000A168A118C260A168A15831663
:103EBC0003132C08B4002B08B3002A08B2002908FD
:103ECC00B1003E3083120313BC00DE30BB005B300C
:103EDC00BA00D930B90083160313340883120313C4
:103EEC00C00083160313330883120313BF00831619
:103EFC000313320883120313BE0083160313310815
:103F0C0083120313BD000A128A113B200A168A156C
:103F1C00831203133C0883160313B000831203139C
:103F2C003B0883160313AF00831203133A0883165E
:103F3C000313AE0083120313390883160313AD0069
:103F4C000800F701F51FAB2FAC2FB32FF409F509BF
:103F5C00F40A0319F50AF701F70AF31FB62FB72F66
:103F6C00BC2FF209F309F20A0319F30A720873045D
:103F7C000319C12FC22FF12FF601F60AD02F0130F1
:103F8C000310F20DF30DFF3E031DC62F0130FF0091
:103F9C007F08F607F31FD32FD42FC52F7308750294
:103FAC00031DDA2F72087402031CDD2FDE2FE42FA1
:103FBC007208F4027308031CF503F50201300310B8
:103FCC00F30CF20CFF3E031DE52F0130F602031D2E
:103FDC00F02FF12FD42F77080319F52FF62FFB2F85
:103FEC00F409F509F40A0319F50A7508F3007408C5
:043FFC00F2000800C7
:00000001FF
