:020000040000FA
:060000000A128A110C280F
:10000800FE00030EF0000A08F1000A128A11272CDC
:100018000A128A110F280A128A117E240A128A11DA
:10002800C7000A128A117F240A128A11C800C30164
:10003800C401C501C601FA01FB0183010A128A1134
:10004800522A83120313B001B10120082104031DB1
:100058002E282F2897282208840030308313800008
:100068000130B0070318B10A0030B1073008220781
:10007800A500250884008001E8282408F300230847
:10008800F2002108F5002008F4000A128A11AD21B7
:100098000A128A11730883120313AB007208AA00AC
:1000A8002B08803AFF0080307F02031D5D280A304C
:1000B8002A020318602861286C28831203132A086F
:1000C800303EA8002B080318013E003EA900762800
:1000D800831203132A08373EA8002B080318013E91
:1000E800003EA90030082207A5002508840028083A
:1000F800831380000130B0070318B10A0030B1073C
:100108002408F3002308F2002108F5002008F40071
:100118000A128A11E9200A128A117308831203133A
:10012800A1007208A00020082104031D9C289D2816
:10013800412830082207A500250884008313800180
:10014800AC01AD013008FF3EAE0031080318013E96
:10015800FF3EAF00DA28831203132C082207A500FC
:100168002508840083130008A7002E082207A5008D
:10017800250884000008FF002C082207A60026088E
:1001880084007F0880002E082207A5002508840027
:10019800270880000130AC070318AD0A0030AD070E
:1001A800FF30AE070318AF0AFF30AF072D08803ABB
:1001B800A5002F08803A2502031DE4282E082C02EA
:1001C800031CE728E828AF280800F701F31FED28EB
:1001D800EE28F528F209F309F20A0319F30AF701E0
:1001E800F70AF51FF828F9280229F409F509F40A8D
:1001F8000319F50A0130FF007F08F706F801F90135
:1002080072087304031909290A294129F601F60A13
:10021800182901300310F20DF30DFF3E031D0E29BE
:100228000130FF007F08F607F31F1B291C290D2941
:1002380001300310F80DF90DFF3E031D1D29730849
:100248007502031D292972087402031C2C292D2903
:1002580034297208F4027308031CF503F5027814B4
:1002680001300310F30CF20CFF3E031D3529013059
:10027800F602031D402941291C297708031945293D
:1002880046294B29F809F909F80A0319F90A7908DE
:10029800F3007808F200080000300A128A11E523FA
:1002A8000A128A111A30F700F830F600F60B5A29AC
:1002B800F70B5A29000003300A128A1142240A1245
:1002C8008A110730F7007D30F600F60B6929F70B25
:1002D800692903300A128A1142240A128A110F303E
:1002E800F7004730F600F60B7729F70B77297C29BA
:1002F80003300A128A1142240A128A1102300A12A1
:100308008A1142240A128A1102300A128A114224DE
:100318000A128A1108300A128A1142240A128A1112
:1003280000300A128A1142240A128A110C300A1269
:100338008A1142240A128A1100300A128A114224B0
:100348000A128A1106300A128A1142240A128A11E4
:100358000800F701F51FB129B229B929F409F509EF
:10036800F40A0319F50AF701F70AF31FBC29BD2996
:10037800C229F209F309F20A0319F30A720873048D
:100388000319C729C829F729F601F60AD629013021
:100398000310F20DF30DFF3E031DCC290130FF00C1
:1003A8007F08F607F31FD929DA29CB2973087502C4
:1003B800031DE02972087402031CE329E429EA29D1
:1003C8007208F4027308031CF503F50201300310E8
:1003D800F30CF20CFF3E031DEB290130F602031D5E
:1003E800F629F729DA2977080319FB29FC29012AB4
:1003F800F409F509F40A0319F50A7508F3007408F5
:10040800F200080083120313A0002003031D0D2A25
:100418000E2A2D2A76087F3EA3002308F700043011
:100428000310F70CFF3E031D142A7708A1002308C8
:100438000F39A20021080A128A1142240A128A11CD
:100448008312031322080A128A1142240A128A11FB
:10045800512A02302006031D322A332A512A7608EF
:10046800BF3EA3002308F70004300310F70CFF3E3B
:10047800031D392A7708A10023080F39A200210893
:100488000A128A1142240A128A11831203132208BB
:100498000A128A1142240A128A11080083160313C9
:1004A80087010117013086000A128A115C240A129A
:1004B8008A118316031388010A128A1150210A121D
:1004C8008A11113083120313C2000A128A11772489
:1004D8000A128A110A128A1107240A128A1183122F
:1004E8000313470895004808A1004708A0003230C8
:1004F800A2000A30A3000030A4000A128A112520A5
:100508000A128A11253083120313C0003230A50065
:100518000030A60042080A128A11DE220A128A1145
:100528006E2A0A128A110C2883120313A301A4014C
:10053800C12A23087707A1007808A0000318A00A99
:10054800A31FA72AA003831203132008A2002208CE
:10055800FF00210884000A128A114B230A128A110B
:100568000A128A1180230A128A1101308312031396
:10057800A3070318A40A0030A40723087707A100DB
:100588007808A0000318A00AA31FCB2AA00383128F
:1005980003132008A2002208FF00210884000A1281
:1005A8008A114B230A128A11003A031DDC2ADD2A1C
:1005B8009D2A0800F9000A128A116A240A128A116F
:1005C800F601F60A01300A128A1106220A128A1165
:1005D8007908F7000030031D8030F8000A128A11EC
:1005E80098220A128A11F601F60A02300A128A11B2
:1005F80006220A128A11831203132508F700260817
:10060800F8000A128A1198220A128A11823083127B
:100618000313A800DD30A700A70B102BA80B102B85
:1006280008007A087B04031D1A2B1B2B422B83120C
:1006380003130619202B212B422B0130FA0000301E
:10064800FB004808803AFF0080307F02031D2E2BF4
:10065800643047020318312B322B3B2B0A308312AC
:100668000313C7070318C80A0030C8074A2B6430A9
:1006780083120313C7000030C8004A2B83120313E8
:10068800061D472B482B4A2BFA01FB010800FF1BCC
:10069800552B83137F1883170008840A0319FF0A50
:1006A800080003308A000408840A820700344D34A5
:1006B80045344E34553420342D3420344F344234AC
:1006C8004A3445345434493456344F3400344C3465
:1006D80041344D3450344134443441342034453469
:1006E8004D3420343A340034353430343034203406
:1006F8004C34553458340034F60076080F39F40079
:100708007608F039F5008312031308157508F3000D
:1007180004300310F30CFF3E031D8D2B73080A12DF
:100728008A11E5230A128A118312031388150D30E2
:10073800F300F30B9D2B83120313881174080A121C
:100748008A11E5230A128A118312031388150D30C2
:10075800F300F30BAD2B83120313881108008312E7
:10076800031345084604031DBA2BBB2BDE2B861941
:10077800BE2BBF2BDE2B0130C5000030C600480859
:10078800803AFF0080307F02031DCC2B01304702E6
:10079800031CCF2BD02BD92BF63083120313C7079A
:1007A8000318C80AFF30C807E42B83120313C701D4
:1007B800C801E42B861DE12BE22BE42BC501C60101
:1007C8000800F200721CE92BEA2BEE2B83120313AC
:1007D8000816F12B831203130812F21CF42BF52BC5
:1007E800F72B8816F82B8812721DFB2BFC2BFE2B7F
:1007F8000817FF2B0813F21D022C032C052C881751
:10080800062C881308001E2C0A128A1115230A12B6
:100818008A110A128A11B3230A128A111E3083120E
:100828000313A5008030A60001300A128A11DE22C7
:100838000A128A118312031343084404031D252C4A
:10084800262C082C08008B1C2A2C2B2C3B2C8312C2
:100858000313430844040319322C332C362CC301E8
:10086800C4013A2C0130C3000030C4008B10710859
:100878008A00700E8300FE0E7E0E0900F5008312BA
:100888000313081175080A128A11E5230A128A113E
:100898008312031388150630F4003030F300F30B8D
:1008A800532CF40B532C00008312031388110800F7
:1008B8000F308312031397006430831603139200DA
:1008C80083120313470895001215080000300A1216
:1008D8008A1142240A128A1101300A128A1142240A
:1008E8000A128A1108008316031301138B170B16BB
:0808F8008B10080032340034BB
:00000001FF
